{
  "address": "0xf073bAC22DAb7FaF4a3Dd6c6189a70D54110525C",
  "abi": [
    {
      "type": "constructor",
      "stateMutability": "undefined",
      "payable": false,
      "inputs": []
    },
    {
      "type": "error",
      "name": "ERC20InsufficientAllowance",
      "inputs": [
        {
          "type": "address",
          "name": "spender"
        },
        {
          "type": "uint256",
          "name": "allowance"
        },
        {
          "type": "uint256",
          "name": "needed"
        }
      ]
    },
    {
      "type": "error",
      "name": "ERC20InsufficientBalance",
      "inputs": [
        {
          "type": "address",
          "name": "sender"
        },
        {
          "type": "uint256",
          "name": "balance"
        },
        {
          "type": "uint256",
          "name": "needed"
        }
      ]
    },
    {
      "type": "error",
      "name": "ERC20InvalidApprover",
      "inputs": [
        {
          "type": "address",
          "name": "approver"
        }
      ]
    },
    {
      "type": "error",
      "name": "ERC20InvalidReceiver",
      "inputs": [
        {
          "type": "address",
          "name": "receiver"
        }
      ]
    },
    {
      "type": "error",
      "name": "ERC20InvalidSender",
      "inputs": [
        {
          "type": "address",
          "name": "sender"
        }
      ]
    },
    {
      "type": "error",
      "name": "ERC20InvalidSpender",
      "inputs": [
        {
          "type": "address",
          "name": "spender"
        }
      ]
    },
    {
      "type": "error",
      "name": "EnforcedPause",
      "inputs": []
    },
    {
      "type": "error",
      "name": "ExpectedPause",
      "inputs": []
    },
    {
      "type": "error",
      "name": "InvalidInitialization",
      "inputs": []
    },
    {
      "type": "error",
      "name": "MathOverflowedMulDiv",
      "inputs": []
    },
    {
      "type": "error",
      "name": "NotInitializing",
      "inputs": []
    },
    {
      "type": "error",
      "name": "OnlyGovernanceAllowed",
      "inputs": []
    },
    {
      "type": "error",
      "name": "OnlyOperatorAllowed",
      "inputs": []
    },
    {
      "type": "error",
      "name": "OnlyRestakingPoolAllowed",
      "inputs": []
    },
    {
      "type": "event",
      "anonymous": false,
      "name": "Approval",
      "inputs": [
        {
          "type": "address",
          "name": "owner",
          "indexed": true
        },
        {
          "type": "address",
          "name": "spender",
          "indexed": true
        },
        {
          "type": "uint256",
          "name": "value",
          "indexed": false
        }
      ]
    },
    {
      "type": "event",
      "anonymous": false,
      "name": "Initialized",
      "inputs": [
        {
          "type": "uint64",
          "name": "version",
          "indexed": false
        }
      ]
    },
    {
      "type": "event",
      "anonymous": false,
      "name": "Paused",
      "inputs": [
        {
          "type": "address",
          "name": "account",
          "indexed": false
        }
      ]
    },
    {
      "type": "event",
      "anonymous": false,
      "name": "Transfer",
      "inputs": [
        {
          "type": "address",
          "name": "from",
          "indexed": true
        },
        {
          "type": "address",
          "name": "to",
          "indexed": true
        },
        {
          "type": "uint256",
          "name": "value",
          "indexed": false
        }
      ]
    },
    {
      "type": "event",
      "anonymous": false,
      "name": "Unpaused",
      "inputs": [
        {
          "type": "address",
          "name": "account",
          "indexed": false
        }
      ]
    },
    {
      "type": "function",
      "name": "allowance",
      "constant": true,
      "stateMutability": "view",
      "payable": false,
      "inputs": [
        {
          "type": "address",
          "name": "owner"
        },
        {
          "type": "address",
          "name": "spender"
        }
      ],
      "outputs": [
        {
          "type": "uint256",
          "name": ""
        }
      ]
    },
    {
      "type": "function",
      "name": "approve",
      "constant": false,
      "payable": false,
      "inputs": [
        {
          "type": "address",
          "name": "spender"
        },
        {
          "type": "uint256",
          "name": "value"
        }
      ],
      "outputs": [
        {
          "type": "bool",
          "name": ""
        }
      ]
    },
    {
      "type": "function",
      "name": "balanceOf",
      "constant": true,
      "stateMutability": "view",
      "payable": false,
      "inputs": [
        {
          "type": "address",
          "name": "account"
        }
      ],
      "outputs": [
        {
          "type": "uint256",
          "name": ""
        }
      ]
    },
    {
      "type": "function",
      "name": "burn",
      "constant": false,
      "payable": false,
      "inputs": [
        {
          "type": "address",
          "name": "account"
        },
        {
          "type": "uint256",
          "name": "shares"
        }
      ],
      "outputs": []
    },
    {
      "type": "function",
      "name": "config",
      "constant": true,
      "stateMutability": "view",
      "payable": false,
      "inputs": [],
      "outputs": [
        {
          "type": "address",
          "name": ""
        }
      ]
    },
    {
      "type": "function",
      "name": "convertToAmount",
      "constant": true,
      "stateMutability": "view",
      "payable": false,
      "inputs": [
        {
          "type": "uint256",
          "name": "shares"
        }
      ],
      "outputs": [
        {
          "type": "uint256",
          "name": ""
        }
      ]
    },
    {
      "type": "function",
      "name": "convertToShares",
      "constant": true,
      "stateMutability": "view",
      "payable": false,
      "inputs": [
        {
          "type": "uint256",
          "name": "amount"
        }
      ],
      "outputs": [
        {
          "type": "uint256",
          "name": ""
        }
      ]
    },
    {
      "type": "function",
      "name": "decimals",
      "constant": true,
      "stateMutability": "view",
      "payable": false,
      "inputs": [],
      "outputs": [
        {
          "type": "uint8",
          "name": ""
        }
      ]
    },
    {
      "type": "function",
      "name": "initialize",
      "constant": false,
      "payable": false,
      "inputs": [
        {
          "type": "address",
          "name": "config"
        },
        {
          "type": "string",
          "name": "name"
        },
        {
          "type": "string",
          "name": "symbol"
        }
      ],
      "outputs": []
    },
    {
      "type": "function",
      "name": "mint",
      "constant": false,
      "payable": false,
      "inputs": [
        {
          "type": "address",
          "name": "account"
        },
        {
          "type": "uint256",
          "name": "shares"
        }
      ],
      "outputs": []
    },
    {
      "type": "function",
      "name": "name",
      "constant": true,
      "stateMutability": "view",
      "payable": false,
      "inputs": [],
      "outputs": [
        {
          "type": "string",
          "name": ""
        }
      ]
    },
    {
      "type": "function",
      "name": "pause",
      "constant": false,
      "payable": false,
      "inputs": [],
      "outputs": []
    },
    {
      "type": "function",
      "name": "paused",
      "constant": true,
      "stateMutability": "view",
      "payable": false,
      "inputs": [],
      "outputs": [
        {
          "type": "bool",
          "name": ""
        }
      ]
    },
    {
      "type": "function",
      "name": "ratio",
      "constant": true,
      "stateMutability": "view",
      "payable": false,
      "inputs": [],
      "outputs": [
        {
          "type": "uint256",
          "name": ""
        }
      ]
    },
    {
      "type": "function",
      "name": "symbol",
      "constant": true,
      "stateMutability": "view",
      "payable": false,
      "inputs": [],
      "outputs": [
        {
          "type": "string",
          "name": ""
        }
      ]
    },
    {
      "type": "function",
      "name": "totalAssets",
      "constant": true,
      "stateMutability": "view",
      "payable": false,
      "inputs": [],
      "outputs": [
        {
          "type": "uint256",
          "name": "totalManagedEth"
        }
      ]
    },
    {
      "type": "function",
      "name": "totalSupply",
      "constant": true,
      "stateMutability": "view",
      "payable": false,
      "inputs": [],
      "outputs": [
        {
          "type": "uint256",
          "name": ""
        }
      ]
    },
    {
      "type": "function",
      "name": "transfer",
      "constant": false,
      "payable": false,
      "inputs": [
        {
          "type": "address",
          "name": "to"
        },
        {
          "type": "uint256",
          "name": "value"
        }
      ],
      "outputs": [
        {
          "type": "bool",
          "name": ""
        }
      ]
    },
    {
      "type": "function",
      "name": "transferFrom",
      "constant": false,
      "payable": false,
      "inputs": [
        {
          "type": "address",
          "name": "from"
        },
        {
          "type": "address",
          "name": "to"
        },
        {
          "type": "uint256",
          "name": "value"
        }
      ],
      "outputs": [
        {
          "type": "bool",
          "name": ""
        }
      ]
    },
    {
      "type": "function",
      "name": "unpause",
      "constant": false,
      "payable": false,
      "inputs": [],
      "outputs": []
    }
  ],
  "transactionHash": "0x4c5a6c2a40840faa0bfffc0f8bb6c1f720f535b8ae6ef0dc271525b9d7601c6f",
  "numDeployments": 2,
  "bytecode": "0x608060405234801561001057600080fd5b5061001961001e565b6100d0565b7ff0c57e16840df040f15088dc2f81fe391c3923bec73e23a9662efc9c229c6a00805468010000000000000000900460ff161561006e5760405163f92ee8a960e01b815260040160405180910390fd5b80546001600160401b03908116146100cd5780546001600160401b0319166001600160401b0390811782556040519081527fc7f505b2f371ae2175ee4913f4499e1f2633a7b5936321eed1cdaeb6115181d29060200160405180910390a15b50565b61155e806100df6000396000f3fe608060405234801561001057600080fd5b506004361061012c5760003560e01c806371ca337d116100ad5780639dc29fac116100715780639dc29fac1461027e578063a9059cbb14610291578063c6e6f592146102a4578063dd62ed3e146102b7578063ff1bdd43146102ca57600080fd5b806371ca337d1461023857806379502c55146102405780638456cb591461025b578063906571471461026357806395d89b411461027657600080fd5b8063313ce567116100f4578063313ce567146101be5780633f4ba83a146101cd57806340c10f19146101d75780635c975abb146101ea57806370a082311461020257600080fd5b806301e1d1141461013157806306fdde031461014c578063095ea7b31461016157806318160ddd1461018457806323b872dd146101ab575b600080fd5b6101396102dd565b6040519081526020015b60405180910390f35b61015461030f565b6040516101439190611092565b61017461016f3660046110f8565b6103d2565b6040519015158152602001610143565b7f52c63247e1f47db19d5ce0460030c497f067ca4cebf71ba98eeadabe20bace0254610139565b6101746101b9366004611124565b6103ec565b60405160128152602001610143565b6101d5610412565b005b6101d56101e53660046110f8565b6104c2565b6000805160206115098339815191525460ff16610174565b610139610210366004611165565b6001600160a01b031660009081526000805160206114e9833981519152602052604090205490565b61013961057e565b6000546040516001600160a01b039091168152602001610143565b6101d5610656565b6101d5610271366004611225565b610704565b610154610830565b6101d561028c3660046110f8565b61086f565b61017461029f3660046110f8565b610927565b6101396102b236600461129b565b610935565b6101396102c53660046112b4565b610954565b6101396102d836600461129b565b61099e565b600061030a6102d87f52c63247e1f47db19d5ce0460030c497f067ca4cebf71ba98eeadabe20bace025490565b905090565b7f52c63247e1f47db19d5ce0460030c497f067ca4cebf71ba98eeadabe20bace0380546060916000805160206114e98339815191529161034e906112ed565b80601f016020809104026020016040519081016040528092919081815260200182805461037a906112ed565b80156103c75780601f1061039c576101008083540402835291602001916103c7565b820191906000526020600020905b8154815290600101906020018083116103aa57829003601f168201915b505050505091505090565b6000336103e08185856109be565b60019150505b92915050565b6000336103fa8582856109d0565b610405858585610a3b565b60019150505b9392505050565b60008054906101000a90046001600160a01b03166001600160a01b031663289b3c0d6040518163ffffffff1660e01b8152600401602060405180830381865afa158015610463573d6000803e3d6000fd5b505050506040513d601f19601f820116820180604052508101906104879190611327565b6001600160a01b0316336001600160a01b0316146104b85760405163e2d4f15f60e01b815260040160405180910390fd5b6104c0610a9a565b565b6104ca610afa565b60008054906101000a90046001600160a01b03166001600160a01b0316637745165b6040518163ffffffff1660e01b8152600401602060405180830381865afa15801561051b573d6000803e3d6000fd5b505050506040513d601f19601f8201168201806040525081019061053f9190611327565b6001600160a01b0316336001600160a01b031614610570576040516301beb2d760e51b815260040160405180910390fd5b61057a8282610b2b565b5050565b600080546001600160a01b03166001600160a01b031663c5db8a7a6040518163ffffffff1660e01b8152600401602060405180830381865afa1580156105c8573d6000803e3d6000fd5b505050506040513d601f19601f820116820180604052508101906105ec9190611327565b60405163754b270760e01b81523060048201526001600160a01b03919091169063754b270790602401602060405180830381865afa158015610632573d6000803e3d6000fd5b505050506040513d601f19601f8201168201806040525081019061030a9190611344565b60008054906101000a90046001600160a01b03166001600160a01b031663289b3c0d6040518163ffffffff1660e01b8152600401602060405180830381865afa1580156106a7573d6000803e3d6000fd5b505050506040513d601f19601f820116820180604052508101906106cb9190611327565b6001600160a01b0316336001600160a01b0316146106fc5760405163e2d4f15f60e01b815260040160405180910390fd5b6104c0610b61565b7ff0c57e16840df040f15088dc2f81fe391c3923bec73e23a9662efc9c229c6a008054600160401b810460ff16159067ffffffffffffffff1660008115801561074a5750825b905060008267ffffffffffffffff1660011480156107675750303b155b905081158015610775575080155b156107935760405163f92ee8a960e01b815260040160405180910390fd5b845467ffffffffffffffff1916600117855583156107bd57845460ff60401b1916600160401b1785555b6107c688610baa565b6107d08787610bd4565b6107d8610be6565b6107e0610be6565b831561082657845460ff60401b19168555604051600181527fc7f505b2f371ae2175ee4913f4499e1f2633a7b5936321eed1cdaeb6115181d29060200160405180910390a15b5050505050505050565b7f52c63247e1f47db19d5ce0460030c497f067ca4cebf71ba98eeadabe20bace0480546060916000805160206114e98339815191529161034e906112ed565b610877610afa565b60008054906101000a90046001600160a01b03166001600160a01b0316637745165b6040518163ffffffff1660e01b8152600401602060405180830381865afa1580156108c8573d6000803e3d6000fd5b505050506040513d601f19601f820116820180604052508101906108ec9190611327565b6001600160a01b0316336001600160a01b03161461091d576040516301beb2d760e51b815260040160405180910390fd5b61057a8282610bf6565b6000336103e0818585610a3b565b60006103e661094261057e565b8390670de0b6b3a76400006000610c2c565b6001600160a01b0391821660009081527f52c63247e1f47db19d5ce0460030c497f067ca4cebf71ba98eeadabe20bace016020908152604080832093909416825291909152205490565b60006103e6670de0b6b3a76400006109b461057e565b8491906001610c2c565b6109cb8383836001610c7d565b505050565b60006109dc8484610954565b90506000198114610a355781811015610a2657604051637dc7a0d960e11b81526001600160a01b038416600482015260248101829052604481018390526064015b60405180910390fd5b610a3584848484036000610c7d565b50505050565b6001600160a01b038316610a6557604051634b637e8f60e11b815260006004820152602401610a1d565b6001600160a01b038216610a8f5760405163ec442f0560e01b815260006004820152602401610a1d565b6109cb838383610d65565b610aa2610d78565b600080516020611509833981519152805460ff191681557f5db9ee0a495bf2e6ff9c91a7834c1ba4fdd244a5e8aa4e537bd38aeae4b073aa335b6040516001600160a01b03909116815260200160405180910390a150565b6000805160206115098339815191525460ff16156104c05760405163d93c066560e01b815260040160405180910390fd5b6001600160a01b038216610b555760405163ec442f0560e01b815260006004820152602401610a1d565b61057a60008383610d65565b610b69610afa565b600080516020611509833981519152805460ff191660011781557f62e78cea01bee320cd4e420270b5ea74000d11b0c9f74754ebdbfc544b05a25833610adc565b610bb2610da8565b600080546001600160a01b0319166001600160a01b0392909216919091179055565b610bdc610da8565b61057a8282610df1565b610bee610da8565b6104c0610e42565b6001600160a01b038216610c2057604051634b637e8f60e11b815260006004820152602401610a1d565b61057a82600083610d65565b600080610c3a868686610e63565b9050610c4583610f27565b8015610c61575060008480610c5c57610c5c61135d565b868809115b15610c7457610c71600182611373565b90505b95945050505050565b6000805160206114e98339815191526001600160a01b038516610cb65760405163e602df0560e01b815260006004820152602401610a1d565b6001600160a01b038416610ce057604051634a1406b160e11b815260006004820152602401610a1d565b6001600160a01b03808616600090815260018301602090815260408083209388168352929052208390558115610d5e57836001600160a01b0316856001600160a01b03167f8c5be1e5ebec7d5bd14f71427d1e84f3dd0314c0f7b2291e5b200ac8c7c3b92585604051610d5591815260200190565b60405180910390a35b5050505050565b610d6d610afa565b6109cb838383610f54565b6000805160206115098339815191525460ff166104c057604051638dfc202b60e01b815260040160405180910390fd5b7ff0c57e16840df040f15088dc2f81fe391c3923bec73e23a9662efc9c229c6a0054600160401b900460ff166104c057604051631afcd79f60e31b815260040160405180910390fd5b610df9610da8565b6000805160206114e98339815191527f52c63247e1f47db19d5ce0460030c497f067ca4cebf71ba98eeadabe20bace03610e3384826113e2565b5060048101610a3583826113e2565b610e4a610da8565b600080516020611509833981519152805460ff19169055565b6000838302816000198587098281108382030391505080600003610e9a57838281610e9057610e9061135d565b049250505061040b565b808411610eba5760405163227bc15360e01b815260040160405180910390fd5b6000848688096000868103871696879004966002600389028118808a02820302808a02820302808a02820302808a02820302808a02820302808a02909103029181900381900460010186841190950394909402919094039290920491909117919091029150509392505050565b60006002826003811115610f3d57610f3d6114a2565b610f4791906114b8565b60ff166001149050919050565b6000805160206114e98339815191526001600160a01b038416610f905781816002016000828254610f859190611373565b909155506110029050565b6001600160a01b03841660009081526020829052604090205482811015610fe35760405163391434e360e21b81526001600160a01b03861660048201526024810182905260448101849052606401610a1d565b6001600160a01b03851660009081526020839052604090209083900390555b6001600160a01b03831661102057600281018054839003905561103f565b6001600160a01b03831660009081526020829052604090208054830190555b826001600160a01b0316846001600160a01b03167fddf252ad1be2c89b69c2b068fc378daa952ba7f163c4a11628f55a4df523b3ef8460405161108491815260200190565b60405180910390a350505050565b600060208083528351808285015260005b818110156110bf578581018301518582016040015282016110a3565b506000604082860101526040601f19601f8301168501019250505092915050565b6001600160a01b03811681146110f557600080fd5b50565b6000806040838503121561110b57600080fd5b8235611116816110e0565b946020939093013593505050565b60008060006060848603121561113957600080fd5b8335611144816110e0565b92506020840135611154816110e0565b929592945050506040919091013590565b60006020828403121561117757600080fd5b813561040b816110e0565b634e487b7160e01b600052604160045260246000fd5b600082601f8301126111a957600080fd5b813567ffffffffffffffff808211156111c4576111c4611182565b604051601f8301601f19908116603f011681019082821181831017156111ec576111ec611182565b8160405283815286602085880101111561120557600080fd5b836020870160208301376000602085830101528094505050505092915050565b60008060006060848603121561123a57600080fd5b8335611245816110e0565b9250602084013567ffffffffffffffff8082111561126257600080fd5b61126e87838801611198565b9350604086013591508082111561128457600080fd5b5061129186828701611198565b9150509250925092565b6000602082840312156112ad57600080fd5b5035919050565b600080604083850312156112c757600080fd5b82356112d2816110e0565b915060208301356112e2816110e0565b809150509250929050565b600181811c9082168061130157607f821691505b60208210810361132157634e487b7160e01b600052602260045260246000fd5b50919050565b60006020828403121561133957600080fd5b815161040b816110e0565b60006020828403121561135657600080fd5b5051919050565b634e487b7160e01b600052601260045260246000fd5b808201808211156103e657634e487b7160e01b600052601160045260246000fd5b601f8211156109cb57600081815260208120601f850160051c810160208610156113bb5750805b601f850160051c820191505b818110156113da578281556001016113c7565b505050505050565b815167ffffffffffffffff8111156113fc576113fc611182565b6114108161140a84546112ed565b84611394565b602080601f831160018114611445576000841561142d5750858301515b600019600386901b1c1916600185901b1785556113da565b600085815260208120601f198616915b8281101561147457888601518255948401946001909101908401611455565b50858210156114925787850151600019600388901b60f8161c191681555b5050505050600190811b01905550565b634e487b7160e01b600052602160045260246000fd5b600060ff8316806114d957634e487b7160e01b600052601260045260246000fd5b8060ff8416069150509291505056fe52c63247e1f47db19d5ce0460030c497f067ca4cebf71ba98eeadabe20bace00cd5ed15c6e187e77e9aee88184c21f4f2182ab5827cb3b7e07fbedcd63f03300a2646970667358221220d9c7e72434589c7e7f685457cdb4cc69d9ef998de03aacae0de16e1165eae59064736f6c63430008140033",
  "deployedBytecode": "0x608060405261000c61000e565b005b7f000000000000000000000000db141deb37787fd3de11ae34f548da7e2657df556001600160a01b0316330361007b576000356001600160e01b03191663278f794360e11b14610071576040516334ad5dbb60e21b815260040160405180910390fd5b610079610083565b565b6100796100b2565b6000806100933660048184610312565b8101906100a09190610352565b915091506100ae82826100c2565b5050565b6100796100bd61011d565b610155565b6100cb82610179565b6040516001600160a01b038316907fbc7cd75a20ee27fd9adebab32041f755214dbc6bffa90cc0225b39da2e5c2d3b90600090a28051156101155761011082826101f5565b505050565b6100ae61026b565b60006101507f360894a13ba1a3210667c828492db98dca3e2076cc3735a920a3ca505d382bbc546001600160a01b031690565b905090565b3660008037600080366000845af43d6000803e808015610174573d6000f35b3d6000fd5b806001600160a01b03163b6000036101b457604051634c9c8ce360e01b81526001600160a01b03821660048201526024015b60405180910390fd5b7f360894a13ba1a3210667c828492db98dca3e2076cc3735a920a3ca505d382bbc80546001600160a01b0319166001600160a01b0392909216919091179055565b6060600080846001600160a01b0316846040516102129190610422565b600060405180830381855af49150503d806000811461024d576040519150601f19603f3d011682016040523d82523d6000602084013e610252565b606091505b509150915061026285838361028a565b95945050505050565b34156100795760405163b398979f60e01b815260040160405180910390fd5b60608261029f5761029a826102e9565b6102e2565b81511580156102b657506001600160a01b0384163b155b156102df57604051639996b31560e01b81526001600160a01b03851660048201526024016101ab565b50805b9392505050565b8051156102f95780518082602001fd5b604051630a12f52160e11b815260040160405180910390fd5b6000808585111561032257600080fd5b8386111561032f57600080fd5b5050820193919092039150565b634e487b7160e01b600052604160045260246000fd5b6000806040838503121561036557600080fd5b82356001600160a01b038116811461037c57600080fd5b9150602083013567ffffffffffffffff8082111561039957600080fd5b818501915085601f8301126103ad57600080fd5b8135818111156103bf576103bf61033c565b604051601f8201601f19908116603f011681019083821181831017156103e7576103e761033c565b8160405282815288602084870101111561040057600080fd5b8260208601602083013760006020848301015280955050505050509250929050565b6000825160005b818110156104435760208186018101518583015201610429565b50600092019182525091905056fea264697066735822122027f80176059c85af4ee8751015dd9e5db167736b2eedc4be4d13ffc86fde444964736f6c63430008140033"
}