{
  "address": "0xf403eb7B69F6c7Ab73BBaeF42AFE87c0a61a15D0",
  "abi": [
    {
      "type": "constructor",
      "stateMutability": "undefined",
      "payable": false,
      "inputs": []
    },
    {
      "type": "error",
      "name": "CommissionNotInRange",
      "inputs": []
    },
    {
      "type": "error",
      "name": "FeeCollectorTransferFailed",
      "inputs": [
        {
          "type": "address",
          "name": "to"
        }
      ]
    },
    {
      "type": "error",
      "name": "InvalidInitialization",
      "inputs": []
    },
    {
      "type": "error",
      "name": "NotInitializing",
      "inputs": []
    },
    {
      "type": "error",
      "name": "OnlyGovernanceAllowed",
      "inputs": []
    },
    {
      "type": "error",
      "name": "OnlyOperatorAllowed",
      "inputs": []
    },
    {
      "type": "error",
      "name": "OnlyRestakingPoolAllowed",
      "inputs": []
    },
    {
      "type": "error",
      "name": "ReentrancyGuardReentrantCall",
      "inputs": []
    },
    {
      "type": "event",
      "anonymous": false,
      "name": "CommissionChanged",
      "inputs": [
        {
          "type": "uint16",
          "name": "prevValue",
          "indexed": false
        },
        {
          "type": "uint16",
          "name": "newValue",
          "indexed": false
        }
      ]
    },
    {
      "type": "event",
      "anonymous": false,
      "name": "Initialized",
      "inputs": [
        {
          "type": "uint64",
          "name": "version",
          "indexed": false
        }
      ]
    },
    {
      "type": "event",
      "anonymous": false,
      "name": "Received",
      "inputs": [
        {
          "type": "address",
          "name": "sender",
          "indexed": true
        },
        {
          "type": "uint256",
          "name": "amount",
          "indexed": false
        }
      ]
    },
    {
      "type": "event",
      "anonymous": false,
      "name": "Withdrawn",
      "inputs": [
        {
          "type": "address",
          "name": "pool",
          "indexed": true
        },
        {
          "type": "address",
          "name": "treasury",
          "indexed": true
        },
        {
          "type": "uint256",
          "name": "rewards",
          "indexed": false
        },
        {
          "type": "uint256",
          "name": "fee",
          "indexed": false
        }
      ]
    },
    {
      "type": "function",
      "name": "MAX_COMMISSION",
      "constant": true,
      "stateMutability": "view",
      "payable": false,
      "inputs": [],
      "outputs": [
        {
          "type": "uint16",
          "name": ""
        }
      ]
    },
    {
      "type": "function",
      "name": "commission",
      "constant": true,
      "stateMutability": "view",
      "payable": false,
      "inputs": [],
      "outputs": [
        {
          "type": "uint16",
          "name": ""
        }
      ]
    },
    {
      "type": "function",
      "name": "config",
      "constant": true,
      "stateMutability": "view",
      "payable": false,
      "inputs": [],
      "outputs": [
        {
          "type": "address",
          "name": ""
        }
      ]
    },
    {
      "type": "function",
      "name": "getRewards",
      "constant": true,
      "stateMutability": "view",
      "payable": false,
      "inputs": [],
      "outputs": [
        {
          "type": "uint256",
          "name": "rewards"
        }
      ]
    },
    {
      "type": "function",
      "name": "initialize",
      "constant": false,
      "payable": false,
      "inputs": [
        {
          "type": "address",
          "name": "config"
        },
        {
          "type": "uint16",
          "name": "commission_"
        }
      ],
      "outputs": []
    },
    {
      "type": "function",
      "name": "setCommission",
      "constant": false,
      "payable": false,
      "inputs": [
        {
          "type": "uint16",
          "name": "newValue"
        }
      ],
      "outputs": []
    },
    {
      "type": "function",
      "name": "withdraw",
      "constant": false,
      "payable": false,
      "inputs": [],
      "outputs": []
    },
    {
      "type": "receive",
      "stateMutability": "payable"
    }
  ],
  "transactionHash": "0x5c822fd38c9205136ba415bf3fc3cb50b9d70fb94686efa7637ed1468fd5f898",
  "numDeployments": 1,
  "bytecode": "0x608060405234801561001057600080fd5b5061001961001e565b6100d0565b7ff0c57e16840df040f15088dc2f81fe391c3923bec73e23a9662efc9c229c6a00805468010000000000000000900460ff161561006e5760405163f92ee8a960e01b815260040160405180910390fd5b80546001600160401b03908116146100cd5780546001600160401b0319166001600160401b0390811782556040519081527fc7f505b2f371ae2175ee4913f4499e1f2633a7b5936321eed1cdaeb6115181d29060200160405180910390a15b50565b61090c806100df6000396000f3fe6080604052600436106100745760003560e01c8063ae97dde81161004e578063ae97dde81461011c578063c594cc6514610145578063e148919114610165578063f39e69a41461018057600080fd5b80630572b0cc146100b55780633ccfd60b146100dd57806379502c55146100f457600080fd5b366100b05760405134815233907f88a5966d370b9919b20f3e2c13ff65706f196a4e32cc2c12bf57088f885258749060200160405180910390a2005b600080fd5b3480156100c157600080fd5b506100ca6101a0565b6040519081526020015b60405180910390f35b3480156100e957600080fd5b506100f26101b1565b005b34801561010057600080fd5b506000546040516001600160a01b0390911681526020016100d4565b34801561012857600080fd5b5061013261271081565b60405161ffff90911681526020016100d4565b34801561015157600080fd5b506100f26101603660046107eb565b61044a565b34801561017157600080fd5b506032546101329061ffff1681565b34801561018c57600080fd5b506100f261019b366004610822565b6104fc565b60006101ab4761061e565b92915050565b6101b9610655565b47612710811061041e576000806101cf8361061e565b9150915060006101e76000546001600160a01b031690565b6001600160a01b0316637745165b6040518163ffffffff1660e01b8152600401602060405180830381865afa158015610224573d6000803e3d6000fd5b505050506040513d601f19601f820116820180604052508101906102489190610857565b9050600061025e6000546001600160a01b031690565b6001600160a01b0316633b19e84a6040518163ffffffff1660e01b8152600401602060405180830381865afa15801561029b573d6000803e3d6000fd5b505050506040513d601f19601f820116820180604052508101906102bf9190610857565b90506000826001600160a01b03168460405160006040518083038185875af1925050503d806000811461030e576040519150601f19603f3d011682016040523d82523d6000602084013e610313565b606091505b50509050806103455760405163035106a760e31b81526001600160a01b03841660048201526024015b60405180910390fd5b6040516001600160a01b038316908690600081818185875af1925050503d806000811461038e576040519150601f19603f3d011682016040523d82523d6000602084013e610393565b606091505b505080915050806103c25760405163035106a760e31b81526001600160a01b038316600482015260240161033c565b816001600160a01b0316836001600160a01b03167f91fb9d98b786c57d74c099ccd2beca1739e9f6a81fb49001ca465c4b7591bbe28688604051610410929190918252602082015260400190565b60405180910390a350505050505b5061044860017f9b779b17422d0df92223018b32b4d1fa46e071723d6817e2486d003becc55f0055565b565b60008054906101000a90046001600160a01b03166001600160a01b031663289b3c0d6040518163ffffffff1660e01b8152600401602060405180830381865afa15801561049b573d6000803e3d6000fd5b505050506040513d601f19601f820116820180604052508101906104bf9190610857565b6001600160a01b0316336001600160a01b0316146104f05760405163e2d4f15f60e01b815260040160405180910390fd5b6104f9816106c5565b50565b7ff0c57e16840df040f15088dc2f81fe391c3923bec73e23a9662efc9c229c6a008054600160401b810460ff16159067ffffffffffffffff166000811580156105425750825b905060008267ffffffffffffffff16600114801561055f5750303b155b90508115801561056d575080155b1561058b5760405163f92ee8a960e01b815260040160405180910390fd5b845467ffffffffffffffff1916600117855583156105b557845460ff60401b1916600160401b1785555b6105bd610745565b6105c687610755565b6105cf8661077f565b831561061557845460ff60401b19168555604051600181527fc7f505b2f371ae2175ee4913f4499e1f2633a7b5936321eed1cdaeb6115181d29060200160405180910390a15b50505050505050565b6032546000908190612710906106389061ffff168561088a565b61064291906108a1565b915061064e82846108c3565b9050915091565b7f9b779b17422d0df92223018b32b4d1fa46e071723d6817e2486d003becc55f0080546001190161069957604051633ee5aeb560e01b815260040160405180910390fd5b60029055565b60017f9b779b17422d0df92223018b32b4d1fa46e071723d6817e2486d003becc55f0055565b61271061ffff8216106106eb57604051631994455560e11b815260040160405180910390fd5b6032546040805161ffff928316815291831660208301527f07d1ecb0b6fd1c556347c57a4035549a933093e3e5a0a63418dd3589c82749de910160405180910390a16032805461ffff191661ffff92909216919091179055565b61074d610783565b6104486107cc565b61075d610783565b600080546001600160a01b0319166001600160a01b0392909216919091179055565b6104f05b7ff0c57e16840df040f15088dc2f81fe391c3923bec73e23a9662efc9c229c6a0054600160401b900460ff1661044857604051631afcd79f60e31b815260040160405180910390fd5b61069f610783565b803561ffff811681146107e657600080fd5b919050565b6000602082840312156107fd57600080fd5b610806826107d4565b9392505050565b6001600160a01b03811681146104f957600080fd5b6000806040838503121561083557600080fd5b82356108408161080d565b915061084e602084016107d4565b90509250929050565b60006020828403121561086957600080fd5b81516108068161080d565b634e487b7160e01b600052601160045260246000fd5b80820281158282048414176101ab576101ab610874565b6000826108be57634e487b7160e01b600052601260045260246000fd5b500490565b818103818111156101ab576101ab61087456fea26469706673582212209d25a3adca31ea97b4a4c66b5890ec58ee60738becb898ff3d1a279098267b9564736f6c63430008140033",
  "deployedBytecode": "0x608060405261000c61000e565b005b7f00000000000000000000000065d70c178216980ba9fee1fd292da7dfdbea5abc6001600160a01b0316330361007b576000356001600160e01b03191663278f794360e11b14610071576040516334ad5dbb60e21b815260040160405180910390fd5b610079610083565b565b6100796100b2565b6000806100933660048184610312565b8101906100a09190610352565b915091506100ae82826100c2565b5050565b6100796100bd61011d565b610155565b6100cb82610179565b6040516001600160a01b038316907fbc7cd75a20ee27fd9adebab32041f755214dbc6bffa90cc0225b39da2e5c2d3b90600090a28051156101155761011082826101f5565b505050565b6100ae61026b565b60006101507f360894a13ba1a3210667c828492db98dca3e2076cc3735a920a3ca505d382bbc546001600160a01b031690565b905090565b3660008037600080366000845af43d6000803e808015610174573d6000f35b3d6000fd5b806001600160a01b03163b6000036101b457604051634c9c8ce360e01b81526001600160a01b03821660048201526024015b60405180910390fd5b7f360894a13ba1a3210667c828492db98dca3e2076cc3735a920a3ca505d382bbc80546001600160a01b0319166001600160a01b0392909216919091179055565b6060600080846001600160a01b0316846040516102129190610422565b600060405180830381855af49150503d806000811461024d576040519150601f19603f3d011682016040523d82523d6000602084013e610252565b606091505b509150915061026285838361028a565b95945050505050565b34156100795760405163b398979f60e01b815260040160405180910390fd5b60608261029f5761029a826102e9565b6102e2565b81511580156102b657506001600160a01b0384163b155b156102df57604051639996b31560e01b81526001600160a01b03851660048201526024016101ab565b50805b9392505050565b8051156102f95780518082602001fd5b604051630a12f52160e11b815260040160405180910390fd5b6000808585111561032257600080fd5b8386111561032f57600080fd5b5050820193919092039150565b634e487b7160e01b600052604160045260246000fd5b6000806040838503121561036557600080fd5b82356001600160a01b038116811461037c57600080fd5b9150602083013567ffffffffffffffff8082111561039957600080fd5b818501915085601f8301126103ad57600080fd5b8135818111156103bf576103bf61033c565b604051601f8201601f19908116603f011681019083821181831017156103e7576103e761033c565b8160405282815288602084870101111561040057600080fd5b8260208601602083013760006020848301015280955050505050509250929050565b6000825160005b818110156104435760208186018101518583015201610429565b50600092019182525091905056fea264697066735822122027f80176059c85af4ee8751015dd9e5db167736b2eedc4be4d13ffc86fde444964736f6c63430008140033"
}