{
  "address": "0x113A5A84F42B7485970D0Ea6061dD2CbeD35f7fA",
  "abi": [
    {
      "type": "error",
      "name": "BridgeAlreadyExists",
      "inputs": [
        {
          "type": "uint256",
          "name": "chainId"
        }
      ]
    },
    {
      "type": "error",
      "name": "ChainIdAlreadyExists",
      "inputs": [
        {
          "type": "uint256",
          "name": "chainId"
        }
      ]
    },
    {
      "type": "error",
      "name": "ChainIdNotFound",
      "inputs": [
        {
          "type": "uint256",
          "name": "chainId"
        }
      ]
    },
    {
      "type": "error",
      "name": "CrosschainBridgeNotSet",
      "inputs": []
    },
    {
      "type": "error",
      "name": "InceptionTokenAddressNotSet",
      "inputs": []
    },
    {
      "type": "error",
      "name": "IndexOutOfBounds",
      "inputs": [
        {
          "type": "uint256",
          "name": "index"
        },
        {
          "type": "uint256",
          "name": "length"
        }
      ]
    },
    {
      "type": "error",
      "name": "InvalidInitialization",
      "inputs": []
    },
    {
      "type": "error",
      "name": "LiquidityPoolNotSet",
      "inputs": []
    },
    {
      "type": "error",
      "name": "MissingOneOrMoreL2Transactions",
      "inputs": [
        {
          "type": "uint256",
          "name": "chainId"
        }
      ]
    },
    {
      "type": "error",
      "name": "MsgNotFromBridge",
      "inputs": [
        {
          "type": "address",
          "name": "caller"
        }
      ]
    },
    {
      "type": "error",
      "name": "NoAdapterAvailable",
      "inputs": [
        {
          "type": "uint256",
          "name": "_chainId"
        }
      ]
    },
    {
      "type": "error",
      "name": "NoBridgeForThisChainId",
      "inputs": [
        {
          "type": "uint256",
          "name": "chainId"
        }
      ]
    },
    {
      "type": "error",
      "name": "NoChainIdsConfigured",
      "inputs": []
    },
    {
      "type": "error",
      "name": "NoRebalancingRequired",
      "inputs": []
    },
    {
      "type": "error",
      "name": "NotInitializing",
      "inputs": []
    },
    {
      "type": "error",
      "name": "OnlyAdapter",
      "inputs": []
    },
    {
      "type": "error",
      "name": "OnlyOperator",
      "inputs": []
    },
    {
      "type": "error",
      "name": "OwnableInvalidOwner",
      "inputs": [
        {
          "type": "address",
          "name": "owner"
        }
      ]
    },
    {
      "type": "error",
      "name": "OwnableUnauthorizedAccount",
      "inputs": [
        {
          "type": "address",
          "name": "account"
        }
      ]
    },
    {
      "type": "error",
      "name": "SendAmountExceedsEthBalance",
      "inputs": [
        {
          "type": "uint256",
          "name": "amountToSend"
        }
      ]
    },
    {
      "type": "error",
      "name": "SettingZeroAddress",
      "inputs": []
    },
    {
      "type": "error",
      "name": "StakeAmountExceedsEthBalance",
      "inputs": [
        {
          "type": "uint256",
          "name": "staked"
        },
        {
          "type": "uint256",
          "name": "availableEth"
        }
      ]
    },
    {
      "type": "error",
      "name": "StakeAmountExceedsMaxTVL",
      "inputs": []
    },
    {
      "type": "error",
      "name": "TimeBeforePrevRecord",
      "inputs": [
        {
          "type": "uint256",
          "name": "timestamp"
        }
      ]
    },
    {
      "type": "error",
      "name": "TimeCannotBeInFuture",
      "inputs": [
        {
          "type": "uint256",
          "name": "timestamp"
        }
      ]
    },
    {
      "type": "error",
      "name": "TransferToLockboxFailed",
      "inputs": []
    },
    {
      "type": "error",
      "name": "TransferToRestakingPoolFailed",
      "inputs": []
    },
    {
      "type": "error",
      "name": "TreasuryUpdatesPaused",
      "inputs": []
    },
    {
      "type": "event",
      "anonymous": false,
      "name": "AdapterAdded",
      "inputs": [
        {
          "type": "uint256",
          "name": "chainId",
          "indexed": true
        },
        {
          "type": "address",
          "name": "newAdapter",
          "indexed": false
        }
      ]
    },
    {
      "type": "event",
      "anonymous": false,
      "name": "ChainIdAdded",
      "inputs": [
        {
          "type": "uint256",
          "name": "chainId",
          "indexed": false
        }
      ]
    },
    {
      "type": "event",
      "anonymous": false,
      "name": "ChainIdDeleted",
      "inputs": [
        {
          "type": "uint256",
          "name": "chainId",
          "indexed": false
        },
        {
          "type": "uint256",
          "name": "index",
          "indexed": false
        }
      ]
    },
    {
      "type": "event",
      "anonymous": false,
      "name": "DefaultBridgeChanged",
      "inputs": [
        {
          "type": "address",
          "name": "prevDefaultAdapter",
          "indexed": true
        },
        {
          "type": "address",
          "name": "newDefaultAdapter",
          "indexed": true
        }
      ]
    },
    {
      "type": "event",
      "anonymous": false,
      "name": "ETHDepositedToLiquidPool",
      "inputs": [
        {
          "type": "address",
          "name": "liquidPool",
          "indexed": false
        },
        {
          "type": "uint256",
          "name": "amountETH",
          "indexed": false
        }
      ]
    },
    {
      "type": "event",
      "anonymous": false,
      "name": "ETHReceived",
      "inputs": [
        {
          "type": "address",
          "name": "sender",
          "indexed": false
        },
        {
          "type": "uint256",
          "name": "amount",
          "indexed": false
        }
      ]
    },
    {
      "type": "event",
      "anonymous": false,
      "name": "InceptionTokenChanged",
      "inputs": [
        {
          "type": "address",
          "name": "prevInceptionToken",
          "indexed": false
        },
        {
          "type": "address",
          "name": "newInceptionToken",
          "indexed": false
        }
      ]
    },
    {
      "type": "event",
      "anonymous": false,
      "name": "InceptionTokenDepositedToLockbox",
      "inputs": [
        {
          "type": "uint256",
          "name": "mintAmount",
          "indexed": false
        }
      ]
    },
    {
      "type": "event",
      "anonymous": false,
      "name": "Initialized",
      "inputs": [
        {
          "type": "uint64",
          "name": "version",
          "indexed": false
        }
      ]
    },
    {
      "type": "event",
      "anonymous": false,
      "name": "L2InfoReceived",
      "inputs": [
        {
          "type": "uint256",
          "name": "networkId",
          "indexed": true
        },
        {
          "type": "uint256",
          "name": "timestamp",
          "indexed": false
        },
        {
          "type": "uint256",
          "name": "ethBalance",
          "indexed": false
        },
        {
          "type": "uint256",
          "name": "inceptionTokenBalance",
          "indexed": false
        }
      ]
    },
    {
      "type": "event",
      "anonymous": false,
      "name": "LiqPoolChanged",
      "inputs": [
        {
          "type": "address",
          "name": "prevLiqPool",
          "indexed": false
        },
        {
          "type": "address",
          "name": "newLiqPool",
          "indexed": false
        }
      ]
    },
    {
      "type": "event",
      "anonymous": false,
      "name": "LockboxChanged",
      "inputs": [
        {
          "type": "address",
          "name": "prevLockbox",
          "indexed": false
        },
        {
          "type": "address",
          "name": "newLockbox",
          "indexed": false
        }
      ]
    },
    {
      "type": "event",
      "anonymous": false,
      "name": "OperatorChanged",
      "inputs": [
        {
          "type": "address",
          "name": "prevOperator",
          "indexed": false
        },
        {
          "type": "address",
          "name": "newOperator",
          "indexed": false
        }
      ]
    },
    {
      "type": "event",
      "anonymous": false,
      "name": "OwnershipTransferStarted",
      "inputs": [
        {
          "type": "address",
          "name": "previousOwner",
          "indexed": true
        },
        {
          "type": "address",
          "name": "newOwner",
          "indexed": true
        }
      ]
    },
    {
      "type": "event",
      "anonymous": false,
      "name": "OwnershipTransferred",
      "inputs": [
        {
          "type": "address",
          "name": "previousOwner",
          "indexed": true
        },
        {
          "type": "address",
          "name": "newOwner",
          "indexed": true
        }
      ]
    },
    {
      "type": "event",
      "anonymous": false,
      "name": "SyncedSupplyChanged",
      "inputs": [
        {
          "type": "uint256",
          "name": "prevSyncedSupply",
          "indexed": false
        },
        {
          "type": "uint256",
          "name": "nextSyncedSupply",
          "indexed": false
        }
      ]
    },
    {
      "type": "event",
      "anonymous": false,
      "name": "TransferToRestakingPool",
      "inputs": [
        {
          "type": "uint256",
          "name": "amount",
          "indexed": false
        }
      ]
    },
    {
      "type": "event",
      "anonymous": false,
      "name": "TreasuryUpdateBurn",
      "inputs": [
        {
          "type": "uint256",
          "name": "mintAmount",
          "indexed": false
        }
      ]
    },
    {
      "type": "event",
      "anonymous": false,
      "name": "TreasuryUpdateMint",
      "inputs": [
        {
          "type": "uint256",
          "name": "mintAmount",
          "indexed": false
        }
      ]
    },
    {
      "type": "event",
      "anonymous": false,
      "name": "UpdateableChanged",
      "inputs": [
        {
          "type": "bool",
          "name": "prevUpdateable",
          "indexed": false
        },
        {
          "type": "bool",
          "name": "nextUpdateable",
          "indexed": false
        }
      ]
    },
    {
      "type": "function",
      "name": "MULTIPLIER",
      "constant": true,
      "stateMutability": "view",
      "payable": false,
      "inputs": [],
      "outputs": [
        {
          "type": "uint256",
          "name": ""
        }
      ]
    },
    {
      "type": "function",
      "name": "acceptOwnership",
      "constant": false,
      "payable": false,
      "inputs": [],
      "outputs": []
    },
    {
      "type": "function",
      "name": "addAdapter",
      "constant": false,
      "payable": false,
      "inputs": [
        {
          "type": "uint256",
          "name": "_chainId"
        },
        {
          "type": "address",
          "name": "_newAdapter"
        }
      ],
      "outputs": []
    },
    {
      "type": "function",
      "name": "addChainId",
      "constant": false,
      "payable": false,
      "inputs": [
        {
          "type": "uint256",
          "name": "_newChainId"
        }
      ],
      "outputs": []
    },
    {
      "type": "function",
      "name": "chainIds",
      "constant": true,
      "stateMutability": "view",
      "payable": false,
      "inputs": [
        {
          "type": "uint256",
          "name": ""
        }
      ],
      "outputs": [
        {
          "type": "uint256",
          "name": ""
        }
      ]
    },
    {
      "type": "function",
      "name": "defaultAdapter",
      "constant": true,
      "stateMutability": "view",
      "payable": false,
      "inputs": [],
      "outputs": [
        {
          "type": "address",
          "name": ""
        }
      ]
    },
    {
      "type": "function",
      "name": "deleteChainId",
      "constant": false,
      "payable": false,
      "inputs": [
        {
          "type": "uint256",
          "name": "_chainId"
        }
      ],
      "outputs": []
    },
    {
      "type": "function",
      "name": "getAdapter",
      "constant": true,
      "stateMutability": "view",
      "payable": false,
      "inputs": [
        {
          "type": "uint256",
          "name": "_chainId"
        }
      ],
      "outputs": [
        {
          "type": "address",
          "name": "adapter"
        },
        {
          "type": "bool",
          "name": "isDefault"
        }
      ]
    },
    {
      "type": "function",
      "name": "getTransactionData",
      "constant": true,
      "stateMutability": "view",
      "payable": false,
      "inputs": [
        {
          "type": "uint256",
          "name": "_chainId"
        }
      ],
      "outputs": [
        {
          "type": "tuple",
          "name": "",
          "components": [
            {
              "type": "uint256",
              "name": "timestamp"
            },
            {
              "type": "uint256",
              "name": "ethBalance"
            },
            {
              "type": "uint256",
              "name": "inceptionTokenBalance"
            }
          ]
        }
      ]
    },
    {
      "type": "function",
      "name": "handleL2Info",
      "constant": false,
      "payable": false,
      "inputs": [
        {
          "type": "uint256",
          "name": "_chainId"
        },
        {
          "type": "uint256",
          "name": "_timestamp"
        },
        {
          "type": "uint256",
          "name": "_balance"
        },
        {
          "type": "uint256",
          "name": "_totalSupply"
        }
      ],
      "outputs": []
    },
    {
      "type": "function",
      "name": "inceptionToken",
      "constant": true,
      "stateMutability": "view",
      "payable": false,
      "inputs": [],
      "outputs": [
        {
          "type": "address",
          "name": ""
        }
      ]
    },
    {
      "type": "function",
      "name": "initialize",
      "constant": false,
      "payable": false,
      "inputs": [
        {
          "type": "address",
          "name": "_inceptionToken"
        },
        {
          "type": "address",
          "name": "_lockbox"
        },
        {
          "type": "address",
          "name": "_liqPool"
        },
        {
          "type": "address",
          "name": "_defaultAdapter"
        },
        {
          "type": "address",
          "name": "_ratioFeed"
        },
        {
          "type": "address",
          "name": "_operator"
        }
      ],
      "outputs": []
    },
    {
      "type": "function",
      "name": "liqPool",
      "constant": true,
      "stateMutability": "view",
      "payable": false,
      "inputs": [],
      "outputs": [
        {
          "type": "address",
          "name": ""
        }
      ]
    },
    {
      "type": "function",
      "name": "lockboxAddress",
      "constant": true,
      "stateMutability": "view",
      "payable": false,
      "inputs": [],
      "outputs": [
        {
          "type": "address",
          "name": ""
        }
      ]
    },
    {
      "type": "function",
      "name": "operator",
      "constant": true,
      "stateMutability": "view",
      "payable": false,
      "inputs": [],
      "outputs": [
        {
          "type": "address",
          "name": ""
        }
      ]
    },
    {
      "type": "function",
      "name": "owner",
      "constant": true,
      "stateMutability": "view",
      "payable": false,
      "inputs": [],
      "outputs": [
        {
          "type": "address",
          "name": ""
        }
      ]
    },
    {
      "type": "function",
      "name": "pendingOwner",
      "constant": true,
      "stateMutability": "view",
      "payable": false,
      "inputs": [],
      "outputs": [
        {
          "type": "address",
          "name": ""
        }
      ]
    },
    {
      "type": "function",
      "name": "quoteSendEthToL2",
      "constant": true,
      "stateMutability": "view",
      "payable": false,
      "inputs": [
        {
          "type": "uint256",
          "name": "_chainId"
        },
        {
          "type": "bytes",
          "name": "_options"
        }
      ],
      "outputs": [
        {
          "type": "uint256",
          "name": "fee"
        }
      ]
    },
    {
      "type": "function",
      "name": "ratioFeed",
      "constant": true,
      "stateMutability": "view",
      "payable": false,
      "inputs": [],
      "outputs": [
        {
          "type": "address",
          "name": ""
        }
      ]
    },
    {
      "type": "function",
      "name": "renounceOwnership",
      "constant": false,
      "payable": false,
      "inputs": [],
      "outputs": []
    },
    {
      "type": "function",
      "name": "sendEthToL2",
      "constant": false,
      "stateMutability": "payable",
      "payable": true,
      "inputs": [
        {
          "type": "uint256",
          "name": "_chainId"
        },
        {
          "type": "uint256",
          "name": "_callValue"
        },
        {
          "type": "bytes",
          "name": "_options"
        }
      ],
      "outputs": []
    },
    {
      "type": "function",
      "name": "setDefaultAdapter",
      "constant": false,
      "payable": false,
      "inputs": [
        {
          "type": "address",
          "name": "_newDefaultAdapter"
        }
      ],
      "outputs": []
    },
    {
      "type": "function",
      "name": "setInceptionToken",
      "constant": false,
      "payable": false,
      "inputs": [
        {
          "type": "address",
          "name": "_inceptionToken"
        }
      ],
      "outputs": []
    },
    {
      "type": "function",
      "name": "setLiqPool",
      "constant": false,
      "payable": false,
      "inputs": [
        {
          "type": "address",
          "name": "_liqPool"
        }
      ],
      "outputs": []
    },
    {
      "type": "function",
      "name": "setLockboxAddress",
      "constant": false,
      "payable": false,
      "inputs": [
        {
          "type": "address",
          "name": "_lockboxAddress"
        }
      ],
      "outputs": []
    },
    {
      "type": "function",
      "name": "setOperator",
      "constant": false,
      "payable": false,
      "inputs": [
        {
          "type": "address",
          "name": "_operator"
        }
      ],
      "outputs": []
    },
    {
      "type": "function",
      "name": "setSyncedSupply",
      "constant": false,
      "payable": false,
      "inputs": [
        {
          "type": "uint256",
          "name": "_syncedSupply"
        }
      ],
      "outputs": []
    },
    {
      "type": "function",
      "name": "setUpdateable",
      "constant": false,
      "payable": false,
      "inputs": [
        {
          "type": "bool",
          "name": "_updateable"
        }
      ],
      "outputs": []
    },
    {
      "type": "function",
      "name": "stake",
      "constant": false,
      "payable": false,
      "inputs": [
        {
          "type": "uint256",
          "name": "_amount"
        }
      ],
      "outputs": []
    },
    {
      "type": "function",
      "name": "syncedSupply",
      "constant": true,
      "stateMutability": "view",
      "payable": false,
      "inputs": [],
      "outputs": [
        {
          "type": "uint256",
          "name": ""
        }
      ]
    },
    {
      "type": "function",
      "name": "transferOwnership",
      "constant": false,
      "payable": false,
      "inputs": [
        {
          "type": "address",
          "name": "newOwner"
        }
      ],
      "outputs": []
    },
    {
      "type": "function",
      "name": "txs",
      "constant": true,
      "stateMutability": "view",
      "payable": false,
      "inputs": [
        {
          "type": "uint256",
          "name": ""
        }
      ],
      "outputs": [
        {
          "type": "uint256",
          "name": "timestamp"
        },
        {
          "type": "uint256",
          "name": "ethBalance"
        },
        {
          "type": "uint256",
          "name": "inceptionTokenBalance"
        }
      ]
    },
    {
      "type": "function",
      "name": "updateTreasuryData",
      "constant": false,
      "payable": false,
      "inputs": [],
      "outputs": []
    },
    {
      "type": "function",
      "name": "updateable",
      "constant": true,
      "stateMutability": "view",
      "payable": false,
      "inputs": [],
      "outputs": [
        {
          "type": "bool",
          "name": ""
        }
      ]
    },
    {
      "type": "receive",
      "stateMutability": "payable"
    }
  ],
  "transactionHash": "0xcb0ade53e4d41eb5fd2073b4d60181eb487c14f33dbd736647f15fee8f04db37",
  "numDeployments": 1,
  "bytecode": "0x6080604052348015600f57600080fd5b506121d48061001f6000396000f3fe6080604052600436106101fc5760003560e01c8063715018a61161010d578063a694fc3a116100a0578063cc2a9a5b1161006f578063cc2a9a5b146105f2578063ddeadbb614610612578063e30c397814610651578063f2fde38b14610666578063f5715d561461068657600080fd5b8063a694fc3a14610572578063b3ab15fb14610592578063bfab2bb6146105b2578063c235fb14146105d257600080fd5b806382257e3f116100dc57806382257e3f146104f35780638da5cb5b146105135780638e29ebb514610528578063983586d91461054857600080fd5b8063715018a614610489578063734e6cad1461049e578063740b91f4146104be57806379ba5097146104de57600080fd5b80633b24b5471161019057806357039e911161015f57806357039e9114610400578063570ca73514610413578063582f1da21461043357806358951c68146104535780637129bbac1461047357600080fd5b80633b24b5471461035e578063405a2c1c146103a057806350d7be5f146103c057806351eafd87146103e057600080fd5b80631b449f06116101cc5780631b449f06146102de57806321d93090146102fe57806328ed3db61461031e5780633924c33c1461033e57600080fd5b80625c54fc14610240578063029c9ae914610257578063059f8b16146102945780630f3b647e146102be57600080fd5b3661023b57604080513381523460208201527fbfe611b001dfcd411432f7bf0d79b82b4b2ee81511edac123a3403c357fb972a910160405180910390a1005b600080fd5b34801561024c57600080fd5b506102556106dd565b005b34801561026357600080fd5b50600154610277906001600160a01b031681565b6040516001600160a01b0390911681526020015b60405180910390f35b3480156102a057600080fd5b506102b0670de0b6b3a764000081565b60405190815260200161028b565b3480156102ca57600080fd5b506102556102d9366004611d9a565b610a64565b3480156102ea57600080fd5b506102556102f9366004611dca565b610b05565b34801561030a57600080fd5b506102b0610319366004611dee565b610b9d565b34801561032a57600080fd5b50610255610339366004611dee565b610bbe565b34801561034a57600080fd5b50610255610359366004611dca565b610cdc565b34801561036a57600080fd5b5061037e610379366004611dee565b610d74565b604080518251815260208084015190820152918101519082015260600161028b565b3480156103ac57600080fd5b506102556103bb366004611dee565b610dd1565b3480156103cc57600080fd5b506102b06103db366004611e07565b610e1a565b3480156103ec57600080fd5b506102556103fb366004611e85565b610f42565b61025561040e366004611ecd565b61108b565b34801561041f57600080fd5b50600454610277906001600160a01b031681565b34801561043f57600080fd5b5061025561044e366004611dee565b6111ad565b34801561045f57600080fd5b5061025561046e366004611fa7565b6111c1565b34801561047f57600080fd5b506102b060095481565b34801561049557600080fd5b5061025561121f565b3480156104aa57600080fd5b50600754610277906001600160a01b031681565b3480156104ca57600080fd5b50600254610277906001600160a01b031681565b3480156104ea57600080fd5b50610255611233565b3480156104ff57600080fd5b5061025561050e366004611dca565b611278565b34801561051f57600080fd5b50610277611303565b34801561053457600080fd5b50600354610277906001600160a01b031681565b34801561055457600080fd5b50600a546105629060ff1681565b604051901515815260200161028b565b34801561057e57600080fd5b5061025561058d366004611dee565b611338565b34801561059e57600080fd5b506102556105ad366004611dca565b611520565b3480156105be57600080fd5b506102556105cd366004611dca565b6115b8565b3480156105de57600080fd5b50600054610277906001600160a01b031681565b3480156105fe57600080fd5b5061025561060d366004611fc4565b611650565b34801561061e57600080fd5b5061063261062d366004611dee565b6118b1565b604080516001600160a01b03909316835290151560208301520161028b565b34801561065d57600080fd5b506102776118df565b34801561067257600080fd5b50610255610681366004611dca565b611908565b34801561069257600080fd5b506106c26106a1366004611dee565b60056020526000908152604090208054600182015460029092015490919083565b6040805193845260208401929092529082015260600161028b565b600a5460ff1661070057604051630cfb2abb60e41b815260040160405180910390fd5b600080600880548060200260200160405190810160405280929190818152602001828054801561074f57602002820191906000526020600020905b81548152602001906001019080831161073b575b5050505050905060006008805490501161077c57604051634c25b0bb60e01b815260040160405180910390fd5b60005b81518110156107fd57600082828151811061079c5761079c612046565b6020026020010151905060006107b182610d74565b805190915082906107e1576040516335a6861360e11b81526004016107d891815260200190565b60405180910390fd5b5060408101516107f19086612072565b9450505060010161077f565b5081600954101561088857600060095483610818919061208b565b90506108238161198d565b6009547f4ebdc55b116c8f3b6be61532cd8931e2cdc8990f5c56087cbadb83c96a314c08906108528382612072565b6040805192835260208301919091520160405180910390a1806009600082825461087c9190612072565b9091555061091f915050565b816009541115610906576000826009546108a2919061208b565b90506108ad81611a51565b6009547f4ebdc55b116c8f3b6be61532cd8931e2cdc8990f5c56087cbadb83c96a314c08906108dc838261208b565b6040805192835260208301919091520160405180910390a1806009600082825461087c919061208b565b604051637bb44c2160e11b815260040160405180910390fd5b600080546040516370a0823160e01b81523060048201526001600160a01b03909116906370a0823190602401602060405180830381865afa158015610968573d6000803e3d6000fd5b505050506040513d601f19601f8201168201806040525081019061098c919061209e565b90508015610a5f5760005460015460405163a9059cbb60e01b81526001600160a01b0391821660048201526024810184905291169063a9059cbb906044016020604051808303816000875af11580156109e9573d6000803e3d6000fd5b505050506040513d601f19601f82011682018060405250810190610a0d91906120b7565b610a2a57604051638205342760e01b815260040160405180910390fd5b6040518181527f4ae5bd787f4cd94b85a88836b5cefe362f37828a82ecd6172ae39aa907f3dec9906020015b60405180910390a15b505050565b610a6c611b15565b6001600160a01b038116610a935760405163ef945a6560e01b815260040160405180910390fd5b600082815260066020526040902080546001600160a01b0319166001600160a01b038316179055610ac382611b47565b6040516001600160a01b038216815282907f36faf335eb63af51ba93e9dd185ae816d74a9bac978bc399b49b11137ecd48189060200160405180910390a25050565b610b0d611b15565b6001600160a01b038116610b345760405163ef945a6560e01b815260040160405180910390fd5b600254604080516001600160a01b03928316815291831660208301527ffc944a5f86de9fcfac9dd7587ad1fbfb44e832bfeddec35cad2884cab5d7da65910160405180910390a1600280546001600160a01b0319166001600160a01b0392909216919091179055565b60088181548110610bad57600080fd5b600091825260209091200154905081565b610bc6611b15565b600080805b600854811015610c0d578360088281548110610be957610be9612046565b906000526020600020015403610c055780925060019150610c0d565b600101610bcb565b508281610c30576040516354a5785b60e11b81526004016107d891815260200190565b5060088054610c419060019061208b565b81548110610c5157610c51612046565b906000526020600020015460088381548110610c6f57610c6f612046565b6000918252602090912001556008805480610c8c57610c8c6120d4565b600190038181906000526020600020016000905590557f6065156fce04c2111fb2766a72318ef9845d87e0e4eebcf9c3400d1b0d22f4228383604051610a56929190918252602082015260400190565b610ce4611b15565b6001600160a01b038116610d0b5760405163ef945a6560e01b815260040160405180910390fd5b600054604080516001600160a01b03928316815291831660208301527fe8282554581f4f6dcc4a6fbb857f7e89cad72736bcb699bf4205e3665b8e7066910160405180910390a1600080546001600160a01b0319166001600160a01b0392909216919091179055565b610d9860405180606001604052806000815260200160008152602001600081525090565b50600090815260056020908152604091829020825160608101845281548152600182015492810192909252600201549181019190915290565b610dd9611b15565b60095460408051918252602082018390527f4ebdc55b116c8f3b6be61532cd8931e2cdc8990f5c56087cbadb83c96a314c08910160405180910390a1600955565b600080610e2685611bf0565b90506001600160a01b038116610e4f57604051636389838560e11b815260040160405180910390fd5b604051638d02167d60e01b81526001600160a01b03821690638d02167d90610e7d9087908790600401612113565b602060405180830381865afa158015610e9a573d6000803e3d6000fd5b505050506040513d601f19601f82011682018060405250810190610ebe919061209e565b604051632296888760e11b81526001600160a01b0383169063452d110e90610eee9089908990899060040161212f565b602060405180830381865afa158015610f0b573d6000803e3d6000fd5b505050506040513d601f19601f82011682018060405250810190610f2f919061209e565b610f39919061208b565b95945050505050565b83610f4c81611bf0565b6001600160a01b0316336001600160a01b031614610f7d576040516308ce245d60e31b815260040160405180910390fd5b8342811115610fa2576040516336ce2d0f60e11b81526004016107d891815260200190565b506000858152600560209081526040918290208251606081018452815480825260018301549382019390935260029091015492810192909252156110085780518590811161100657604051636e6f496160e01b81526004016107d891815260200190565b505b6040805160608082018352878252602080830188815283850188815260008c8152600584528690208551815591516001830155516002909101558351898152908101889052928301869052909188917f32d49425af41fa76a45e8ef674babb83acc4d8312d2dffe76903c97b7089249a910160405180910390a250505050505050565b6004546001600160a01b03163314806110bc57506110a7611303565b6001600160a01b0316336001600160a01b0316145b6110d9576040516327e1f1e560e01b815260040160405180910390fd5b60006110e484611bf0565b90506001600160a01b03811661110d57604051636389838560e11b815260040160405180910390fd5b476111183485612072565b1115839061113c57604051636e5b995960e11b81526004016107d891815260200190565b506001600160a01b0381166335d439496111563486612072565b86856040518463ffffffff1660e01b8152600401611175929190612149565b6000604051808303818588803b15801561118e57600080fd5b505af11580156111a2573d6000803e3d6000fd5b505050505050505050565b6111b5611b15565b6111be81611b47565b50565b6111c9611b15565b600a546040805160ff9092161515825282151560208301527fd5c31b9c0e8a01c501ba52c814e2ad86843d0b06abcc9d5f19ea1b2a3f482c29910160405180910390a1600a805460ff1916911515919091179055565b611227611b15565b6112316000611c4c565b565b338061123d6118df565b6001600160a01b03161461126f5760405163118cdaa760e01b81526001600160a01b03821660048201526024016107d8565b6111be81611c4c565b611280611b15565b6001600160a01b0381166112a75760405163ef945a6560e01b815260040160405180910390fd5b6007546040516001600160a01b038084169216907f45d051af501a72e3e9cb0c59c70e94521b42cf1ba723cd0956bf5b8321616c4590600090a3600780546001600160a01b0319166001600160a01b0392909216919091179055565b6000807f9016d09d72d40fdae2fd8ceac6b6234c7706214fd39c1cd1e609a0528c1993005b546001600160a01b031692915050565b6004546001600160a01b03163314806113695750611354611303565b6001600160a01b0316336001600160a01b0316145b611386576040516327e1f1e560e01b815260040160405180910390fd5b6002546001600160a01b03166113af5760405163d667ca4560e01b815260040160405180910390fd5b8047478211156113db576040516306836a2960e21b8152600481019290925260248201526044016107d8565b5050600260009054906101000a90046001600160a01b03166001600160a01b0316633f9085516040518163ffffffff1660e01b8152600401602060405180830381865afa158015611430573d6000803e3d6000fd5b505050506040513d601f19601f82011682018060405250810190611454919061209e565b811115611474576040516357337ea960e01b815260040160405180910390fd5b6002546040516000916001600160a01b03169083908381818185875af1925050503d80600081146114c1576040519150601f19603f3d011682016040523d82523d6000602084013e6114c6565b606091505b50509050806114e8576040516302e41dd760e61b815260040160405180910390fd5b6040518281527f795623ab5163e43e132ba4ff705f252637c1b1ec9e2b26c98751a2db8a744bae906020015b60405180910390a15050565b611528611b15565b6001600160a01b03811661154f5760405163ef945a6560e01b815260040160405180910390fd5b600454604080516001600160a01b03928316815291831660208301527fd58299b712891143e76310d5e664c4203c940a67db37cf856bdaa3c5c76a802c910160405180910390a1600480546001600160a01b0319166001600160a01b0392909216919091179055565b6115c0611b15565b6001600160a01b0381166115e75760405163ef945a6560e01b815260040160405180910390fd5b600154604080516001600160a01b03928316815291831660208301527f224a554a3f3aadb47d65ed2efd7c15f31f83deeee4b3717ed7ade9dec75c61f6910160405180910390a1600180546001600160a01b0319166001600160a01b0392909216919091179055565b7ff0c57e16840df040f15088dc2f81fe391c3923bec73e23a9662efc9c229c6a008054600160401b810460ff16159067ffffffffffffffff166000811580156116965750825b905060008267ffffffffffffffff1660011480156116b35750303b155b9050811580156116c1575080155b156116df5760405163f92ee8a960e01b815260040160405180910390fd5b845467ffffffffffffffff19166001178555831561170957845460ff60401b1916600160401b1785555b61171233611c88565b6001600160a01b038b166117395760405163ef945a6560e01b815260040160405180910390fd5b6001600160a01b038a166117605760405163ef945a6560e01b815260040160405180910390fd5b6001600160a01b0389166117875760405163ef945a6560e01b815260040160405180910390fd5b6001600160a01b0388166117ae5760405163ef945a6560e01b815260040160405180910390fd5b6001600160a01b0387166117d55760405163ef945a6560e01b815260040160405180910390fd5b6001600160a01b0386166117fc5760405163ef945a6560e01b815260040160405180910390fd5b600080546001600160a01b03199081166001600160a01b038e8116919091179092556001805482168d84161790556002805482168c84161790556007805482168b84161790556003805482168a84161790556004805490911691881691909117905583156118a457845460ff60401b19168555604051600181527fc7f505b2f371ae2175ee4913f4499e1f2633a7b5936321eed1cdaeb6115181d29060200160405180910390a15b5050505050505050505050565b6000806118bd83611bf0565b6007549092506001600160a01b03908116908316036118da575060015b915091565b6000807f237e158222e3e6968b72b9db0d8043aacf074ad9f650f0d1606b4d82ee432c00611328565b611910611b15565b7f237e158222e3e6968b72b9db0d8043aacf074ad9f650f0d1606b4d82ee432c0080546001600160a01b0319166001600160a01b0383169081178255611954611303565b6001600160a01b03167f38d16b8cac22d99fc7c124b9cd0de2d3fa1faef420bfe791d8c362d765e2270060405160405180910390a35050565b6000546001600160a01b03166119b657604051635ce3a26360e01b815260040160405180910390fd5b6000546001546040516340c10f1960e01b81526001600160a01b0391821660048201526024810184905291169081906340c10f1990604401600060405180830381600087803b158015611a0857600080fd5b505af1158015611a1c573d6000803e3d6000fd5b505050507f61f887a2f5c9e7b476f4c3dab1560bc4f01d991be63db8ab9dd0d826044ae1158260405161151491815260200190565b6000546001600160a01b0316611a7a57604051635ce3a26360e01b815260040160405180910390fd5b600054600154604051632770a7eb60e21b81526001600160a01b039182166004820152602481018490529116908190639dc29fac90604401600060405180830381600087803b158015611acc57600080fd5b505af1158015611ae0573d6000803e3d6000fd5b505050507f4addf2dd216e30ceae7fd7eea5312852e3471df45182db976a324001db87c0b08260405161151491815260200190565b33611b1e611303565b6001600160a01b0316146112315760405163118cdaa760e01b81523360048201526024016107d8565b60005b600854811015611b84578160088281548110611b6857611b68612046565b906000526020600020015403611b7c575050565b600101611b4a565b50600880546001810182556000919091527ff3f7a9fe364faab93b216da50a3214154f22a0a2b415b23a84c8169e8b636ee3018190556040518181527f81b76ca0f2f5caf9af258fb0d9955478a105e304a99322dd21ee8f35dcb494a69060200160405180910390a150565b6000818152600660205260409020546001600160a01b031680611c1b57506007546001600160a01b03165b816001600160a01b038216611c4657604051636efcc08960e01b81526004016107d891815260200190565b50919050565b7f237e158222e3e6968b72b9db0d8043aacf074ad9f650f0d1606b4d82ee432c0080546001600160a01b0319168155611c8482611c99565b5050565b611c90611d0a565b6111be81611d53565b7f9016d09d72d40fdae2fd8ceac6b6234c7706214fd39c1cd1e609a0528c19930080546001600160a01b031981166001600160a01b03848116918217845560405192169182907f8be0079c531659141344cd1fd0a4f28419497f9722a3daafe3b4186f6b6457e090600090a3505050565b7ff0c57e16840df040f15088dc2f81fe391c3923bec73e23a9662efc9c229c6a0054600160401b900460ff1661123157604051631afcd79f60e31b815260040160405180910390fd5b611d5b611d0a565b6001600160a01b03811661126f57604051631e4fbdf760e01b8152600060048201526024016107d8565b6001600160a01b03811681146111be57600080fd5b60008060408385031215611dad57600080fd5b823591506020830135611dbf81611d85565b809150509250929050565b600060208284031215611ddc57600080fd5b8135611de781611d85565b9392505050565b600060208284031215611e0057600080fd5b5035919050565b600080600060408486031215611e1c57600080fd5b83359250602084013567ffffffffffffffff811115611e3a57600080fd5b8401601f81018613611e4b57600080fd5b803567ffffffffffffffff811115611e6257600080fd5b866020828401011115611e7457600080fd5b939660209190910195509293505050565b60008060008060808587031215611e9b57600080fd5b5050823594602084013594506040840135936060013592509050565b634e487b7160e01b600052604160045260246000fd5b600080600060608486031215611ee257600080fd5b8335925060208401359150604084013567ffffffffffffffff811115611f0757600080fd5b8401601f81018613611f1857600080fd5b803567ffffffffffffffff811115611f3257611f32611eb7565b604051601f8201601f19908116603f0116810167ffffffffffffffff81118282101715611f6157611f61611eb7565b604052818152828201602001881015611f7957600080fd5b816020840160208301376000602083830101528093505050509250925092565b80151581146111be57600080fd5b600060208284031215611fb957600080fd5b8135611de781611f99565b60008060008060008060c08789031215611fdd57600080fd5b8635611fe881611d85565b95506020870135611ff881611d85565b9450604087013561200881611d85565b9350606087013561201881611d85565b9250608087013561202881611d85565b915060a087013561203881611d85565b809150509295509295509295565b634e487b7160e01b600052603260045260246000fd5b634e487b7160e01b600052601160045260246000fd5b808201808211156120855761208561205c565b92915050565b818103818111156120855761208561205c565b6000602082840312156120b057600080fd5b5051919050565b6000602082840312156120c957600080fd5b8151611de781611f99565b634e487b7160e01b600052603160045260246000fd5b81835281816020850137506000828201602090810191909152601f909101601f19169091010190565b6020815260006121276020830184866120ea565b949350505050565b838152604060208201526000610f396040830184866120ea565b828152604060208201526000825180604084015260005b8181101561217d5760208186018101516060868401015201612160565b506000606082850101526060601f19601f830116840101915050939250505056fea264697066735822122075bc9eaa98f27ad5d9cc6afcd9d6e547aa2f2cdf626cfd2ae18d44a7d2a3fce064736f6c634300081b0033",
  "deployedBytecode": "0x608060405261000c61000e565b005b7f0000000000000000000000002fb7d99315a8a24a3e58dc4e68ffbd95889951226001600160a01b0316330361007b576000356001600160e01b03191663278f794360e11b14610071576040516334ad5dbb60e21b815260040160405180910390fd5b610079610083565b565b6100796100b2565b6000806100933660048184610312565b8101906100a09190610352565b915091506100ae82826100c2565b5050565b6100796100bd61011d565b610155565b6100cb82610179565b6040516001600160a01b038316907fbc7cd75a20ee27fd9adebab32041f755214dbc6bffa90cc0225b39da2e5c2d3b90600090a28051156101155761011082826101f5565b505050565b6100ae61026b565b60006101507f360894a13ba1a3210667c828492db98dca3e2076cc3735a920a3ca505d382bbc546001600160a01b031690565b905090565b3660008037600080366000845af43d6000803e808015610174573d6000f35b3d6000fd5b806001600160a01b03163b6000036101b457604051634c9c8ce360e01b81526001600160a01b03821660048201526024015b60405180910390fd5b7f360894a13ba1a3210667c828492db98dca3e2076cc3735a920a3ca505d382bbc80546001600160a01b0319166001600160a01b0392909216919091179055565b6060600080846001600160a01b0316846040516102129190610422565b600060405180830381855af49150503d806000811461024d576040519150601f19603f3d011682016040523d82523d6000602084013e610252565b606091505b509150915061026285838361028a565b95945050505050565b34156100795760405163b398979f60e01b815260040160405180910390fd5b60608261029f5761029a826102e9565b6102e2565b81511580156102b657506001600160a01b0384163b155b156102df57604051639996b31560e01b81526001600160a01b03851660048201526024016101ab565b50805b9392505050565b8051156102f95780518082602001fd5b604051630a12f52160e11b815260040160405180910390fd5b6000808585111561032257600080fd5b8386111561032f57600080fd5b5050820193919092039150565b634e487b7160e01b600052604160045260246000fd5b6000806040838503121561036557600080fd5b82356001600160a01b038116811461037c57600080fd5b9150602083013567ffffffffffffffff8082111561039957600080fd5b818501915085601f8301126103ad57600080fd5b8135818111156103bf576103bf61033c565b604051601f8201601f19908116603f011681019083821181831017156103e7576103e761033c565b8160405282815288602084870101111561040057600080fd5b8260208601602083013760006020848301015280955050505050509250929050565b6000825160005b818110156104435760208186018101518583015201610429565b50600092019182525091905056fea264697066735822122027f80176059c85af4ee8751015dd9e5db167736b2eedc4be4d13ffc86fde444964736f6c63430008140033"
}