{
  "address": "0x81b98D3a51d4aC35e0ae132b0CF6b50EA1Da2603",
  "abi": [
    {
      "type": "constructor",
      "stateMutability": "undefined",
      "payable": false,
      "inputs": []
    },
    {
      "type": "error",
      "name": "InvalidInitialization",
      "inputs": []
    },
    {
      "type": "error",
      "name": "NotInitializing",
      "inputs": []
    },
    {
      "type": "error",
      "name": "OnlyGovernanceAllowed",
      "inputs": []
    },
    {
      "type": "error",
      "name": "ZeroAddress",
      "inputs": []
    },
    {
      "type": "event",
      "anonymous": false,
      "name": "CTokenChanged",
      "inputs": [
        {
          "type": "address",
          "name": "prevValue",
          "indexed": false
        },
        {
          "type": "address",
          "name": "newValue",
          "indexed": false
        }
      ]
    },
    {
      "type": "event",
      "anonymous": false,
      "name": "EigenManagerChanged",
      "inputs": [
        {
          "type": "address",
          "name": "prevValue",
          "indexed": false
        },
        {
          "type": "address",
          "name": "newValue",
          "indexed": false
        }
      ]
    },
    {
      "type": "event",
      "anonymous": false,
      "name": "GovernanceChanged",
      "inputs": [
        {
          "type": "address",
          "name": "prevValue",
          "indexed": false
        },
        {
          "type": "address",
          "name": "newValue",
          "indexed": false
        }
      ]
    },
    {
      "type": "event",
      "anonymous": false,
      "name": "Initialized",
      "inputs": [
        {
          "type": "uint64",
          "name": "version",
          "indexed": false
        }
      ]
    },
    {
      "type": "event",
      "anonymous": false,
      "name": "OperatorChanged",
      "inputs": [
        {
          "type": "address",
          "name": "prevValue",
          "indexed": false
        },
        {
          "type": "address",
          "name": "newValue",
          "indexed": false
        }
      ]
    },
    {
      "type": "event",
      "anonymous": false,
      "name": "RatioFeedChanged",
      "inputs": [
        {
          "type": "address",
          "name": "prevValue",
          "indexed": false
        },
        {
          "type": "address",
          "name": "newValue",
          "indexed": false
        }
      ]
    },
    {
      "type": "event",
      "anonymous": false,
      "name": "RestakerDeployerChanged",
      "inputs": [
        {
          "type": "address",
          "name": "prevValue",
          "indexed": false
        },
        {
          "type": "address",
          "name": "newValue",
          "indexed": false
        }
      ]
    },
    {
      "type": "event",
      "anonymous": false,
      "name": "RestakingPoolChanged",
      "inputs": [
        {
          "type": "address",
          "name": "prevValue",
          "indexed": false
        },
        {
          "type": "address",
          "name": "newValue",
          "indexed": false
        }
      ]
    },
    {
      "type": "event",
      "anonymous": false,
      "name": "TreasuryChanged",
      "inputs": [
        {
          "type": "address",
          "name": "prevValue",
          "indexed": false
        },
        {
          "type": "address",
          "name": "newValue",
          "indexed": false
        }
      ]
    },
    {
      "type": "function",
      "name": "getCToken",
      "constant": true,
      "stateMutability": "view",
      "payable": false,
      "inputs": [],
      "outputs": [
        {
          "type": "address",
          "name": ""
        }
      ]
    },
    {
      "type": "function",
      "name": "getGovernance",
      "constant": true,
      "stateMutability": "view",
      "payable": false,
      "inputs": [],
      "outputs": [
        {
          "type": "address",
          "name": ""
        }
      ]
    },
    {
      "type": "function",
      "name": "getOperator",
      "constant": true,
      "stateMutability": "view",
      "payable": false,
      "inputs": [],
      "outputs": [
        {
          "type": "address",
          "name": ""
        }
      ]
    },
    {
      "type": "function",
      "name": "getRatioFeed",
      "constant": true,
      "stateMutability": "view",
      "payable": false,
      "inputs": [],
      "outputs": [
        {
          "type": "address",
          "name": ""
        }
      ]
    },
    {
      "type": "function",
      "name": "getRestakerDeployer",
      "constant": true,
      "stateMutability": "view",
      "payable": false,
      "inputs": [],
      "outputs": [
        {
          "type": "address",
          "name": ""
        }
      ]
    },
    {
      "type": "function",
      "name": "getRestakingPool",
      "constant": true,
      "stateMutability": "view",
      "payable": false,
      "inputs": [],
      "outputs": [
        {
          "type": "address",
          "name": ""
        }
      ]
    },
    {
      "type": "function",
      "name": "getTreasury",
      "constant": true,
      "stateMutability": "view",
      "payable": false,
      "inputs": [],
      "outputs": [
        {
          "type": "address",
          "name": ""
        }
      ]
    },
    {
      "type": "function",
      "name": "initialize",
      "constant": false,
      "payable": false,
      "inputs": [
        {
          "type": "address",
          "name": "governanceAddress"
        },
        {
          "type": "address",
          "name": "operatorAddress"
        },
        {
          "type": "address",
          "name": "treasuryAddress"
        }
      ],
      "outputs": []
    },
    {
      "type": "function",
      "name": "setCToken",
      "constant": false,
      "payable": false,
      "inputs": [
        {
          "type": "address",
          "name": "newValue"
        }
      ],
      "outputs": []
    },
    {
      "type": "function",
      "name": "setGovernance",
      "constant": false,
      "payable": false,
      "inputs": [
        {
          "type": "address",
          "name": "newValue"
        }
      ],
      "outputs": []
    },
    {
      "type": "function",
      "name": "setOperator",
      "constant": false,
      "payable": false,
      "inputs": [
        {
          "type": "address",
          "name": "newValue"
        }
      ],
      "outputs": []
    },
    {
      "type": "function",
      "name": "setRatioFeed",
      "constant": false,
      "payable": false,
      "inputs": [
        {
          "type": "address",
          "name": "newValue"
        }
      ],
      "outputs": []
    },
    {
      "type": "function",
      "name": "setRestakerDeployer",
      "constant": false,
      "payable": false,
      "inputs": [
        {
          "type": "address",
          "name": "newValue"
        }
      ],
      "outputs": []
    },
    {
      "type": "function",
      "name": "setRestakingPool",
      "constant": false,
      "payable": false,
      "inputs": [
        {
          "type": "address",
          "name": "newValue"
        }
      ],
      "outputs": []
    },
    {
      "type": "function",
      "name": "setTreasury",
      "constant": false,
      "payable": false,
      "inputs": [
        {
          "type": "address",
          "name": "newValue"
        }
      ],
      "outputs": []
    }
  ],
  "transactionHash": "0x7a008a25fb95c832fe239e8d1a10ee9d74ecaf2affaf73054774dbbcb4d62a72",
  "numDeployments": 1,
  "bytecode": "0x608060405234801561001057600080fd5b5061001961001e565b6100d0565b7ff0c57e16840df040f15088dc2f81fe391c3923bec73e23a9662efc9c229c6a00805468010000000000000000900460ff161561006e5760405163f92ee8a960e01b815260040160405180910390fd5b80546001600160401b03908116146100cd5780546001600160401b0319166001600160401b0390811782556040519081527fc7f505b2f371ae2175ee4913f4499e1f2633a7b5936321eed1cdaeb6115181d29060200160405180910390a15b50565b610b3b806100df6000396000f3fe608060405234801561001057600080fd5b50600436106100f55760003560e01c8063c0c53b8b11610097578063e855f74a11610066578063e855f74a146101a7578063ec6c350c146101ba578063f0e35a9a146101c2578063f0f44260146101d557600080fd5b8063c0c53b8b14610171578063c5db8a7a14610184578063dd2b442f1461018c578063e7f43c681461019f57600080fd5b80634cb71222116100d35780634cb712221461012e5780637745165b14610143578063ab033ea91461014b578063b3ab15fb1461015e57600080fd5b8063289b3c0d146100fa5780633b19e84a1461011e5780633f69e0f714610126575b600080fd5b6101026101e8565b6040516001600160a01b03909116815260200160405180910390f35b610102610256565b610102610289565b61014161013c366004610a6f565b6102bc565b005b61010261039c565b610141610159366004610a6f565b6103cf565b61014161016c366004610a6f565b610414565b61014161017f366004610a93565b610456565b61010261056a565b61014161019a366004610a6f565b61059d565b61010261065c565b6101416101b5366004610a6f565b61068f565b61010261074d565b6101416101d0366004610a6f565b610780565b6101416101e3366004610a6f565b61083f565b600061024760ff1961021b60017f2c1ccc4e2e8669dd29e684614f72e5951cafb13383a25e53832a81925f89faca610ade565b60405160200161022d91815260200190565b604051602081830303815290604052805190602001201690565b546001600160a01b0316919050565b600061024760ff1961021b60017f0fc499aa3455bd2a5ab0b29aff6c822ab857e944cc6e50f67b9f41e56435bebc610ade565b600061024760ff1961021b60017f4e0d6a466ad0a4dabd7bbb3c7174d20d7140bb3b8855f56ab16df50f16364518610ade565b6102c46101e8565b6001600160a01b0316336001600160a01b0316146102f55760405163e2d4f15f60e01b815260040160405180910390fd5b6102fe81610881565b7f604ae4b80bb1d3cb1b6f8fd99500a3203337ec3cdd83cb343ee91f8960f634df61032761074d565b604080516001600160a01b03928316815291841660208301520160405180910390a18061037b60ff1961021b60017f4cdd4cb6db323c29441c0394bd1c6253320297c5aa6f34c1c5384c9bf6bbc500610ade565b80546001600160a01b0319166001600160a01b039290921691909117905550565b600061024760ff1961021b60017fc27f2bdbccd115fb7a8dce580d6128b98b87079c11fd3cfa156ce5fcbf32387b610ade565b6103d76101e8565b6001600160a01b0316336001600160a01b0316146104085760405163e2d4f15f60e01b815260040160405180910390fd5b610411816108a8565b50565b61041c6101e8565b6001600160a01b0316336001600160a01b03161461044d5760405163e2d4f15f60e01b815260040160405180910390fd5b6104118161092e565b7ff0c57e16840df040f15088dc2f81fe391c3923bec73e23a9662efc9c229c6a008054600160401b810460ff16159067ffffffffffffffff1660008115801561049c5750825b905060008267ffffffffffffffff1660011480156104b95750303b155b9050811580156104c7575080155b156104e55760405163f92ee8a960e01b815260040160405180910390fd5b845467ffffffffffffffff19166001178555831561050f57845460ff60401b1916600160401b1785555b61051a8789886109b4565b831561056057845460ff60401b19168555604051600181527fc7f505b2f371ae2175ee4913f4499e1f2633a7b5936321eed1cdaeb6115181d29060200160405180910390a15b5050505050505050565b600061024760ff1961021b60017f0ac0abfa68711233fc41490a6f0b3b137ad1c680baf2f02dadf5527ae048a1fb610ade565b6105a56101e8565b6001600160a01b0316336001600160a01b0316146105d65760405163e2d4f15f60e01b815260040160405180910390fd5b6105df81610881565b7f37910025f99bc7fdc07bdf77dee21c246391d5e3f98e8c6e3b0306dfaf8f24fa610608610289565b604080516001600160a01b03928316815291841660208301520160405180910390a18061037b60ff1961021b60017f4e0d6a466ad0a4dabd7bbb3c7174d20d7140bb3b8855f56ab16df50f16364518610ade565b600061024760ff1961021b60017f5c856a92785f6a62a694430cc3c1e05a0eb4456fd0c85251ab99976b25230cc8610ade565b6106976101e8565b6001600160a01b0316336001600160a01b0316146106c85760405163e2d4f15f60e01b815260040160405180910390fd5b6106d181610881565b7eae48a6cddea33b0b408d1f3e36bef3e47379bdc069c2f6662786c5bec83e106106f961039c565b604080516001600160a01b03928316815291841660208301520160405180910390a18061037b60ff1961021b60017fc27f2bdbccd115fb7a8dce580d6128b98b87079c11fd3cfa156ce5fcbf32387b610ade565b600061024760ff1961021b60017f4cdd4cb6db323c29441c0394bd1c6253320297c5aa6f34c1c5384c9bf6bbc500610ade565b6107886101e8565b6001600160a01b0316336001600160a01b0316146107b95760405163e2d4f15f60e01b815260040160405180910390fd5b6107c281610881565b7fdb29c30d5fa0d3da86f28fcd1e16611171e924d291c7ef82f03cffb0bfa056526107eb61056a565b604080516001600160a01b03928316815291841660208301520160405180910390a18061037b60ff1961021b60017f0ac0abfa68711233fc41490a6f0b3b137ad1c680baf2f02dadf5527ae048a1fb610ade565b6108476101e8565b6001600160a01b0316336001600160a01b0316146108785760405163e2d4f15f60e01b815260040160405180910390fd5b610411816109d4565b6001600160a01b0381166104115760405163d92e233d60e01b815260040160405180910390fd5b6108b181610881565b7f3aaaebeb4821d6a7e5c77ece53cff0afcc56c82add2c978dbbb7f73e84cbcfd26108da6101e8565b604080516001600160a01b03928316815291841660208301520160405180910390a18061037b60ff1961021b60017f2c1ccc4e2e8669dd29e684614f72e5951cafb13383a25e53832a81925f89faca610ade565b61093781610881565b7fd58299b712891143e76310d5e664c4203c940a67db37cf856bdaa3c5c76a802c61096061065c565b604080516001600160a01b03928316815291841660208301520160405180910390a18061037b60ff1961021b60017f5c856a92785f6a62a694430cc3c1e05a0eb4456fd0c85251ab99976b25230cc8610ade565b6109bd8361092e565b6109c6826108a8565b6109cf816109d4565b505050565b6109dd81610881565b7f8c3aa5f43a388513435861bf27dfad7829cd248696fed367c62d441f62954496610a06610256565b604080516001600160a01b03928316815291841660208301520160405180910390a18061037b60ff1961021b60017f0fc499aa3455bd2a5ab0b29aff6c822ab857e944cc6e50f67b9f41e56435bebc610ade565b6001600160a01b038116811461041157600080fd5b600060208284031215610a8157600080fd5b8135610a8c81610a5a565b9392505050565b600080600060608486031215610aa857600080fd5b8335610ab381610a5a565b92506020840135610ac381610a5a565b91506040840135610ad381610a5a565b809150509250925092565b81810381811115610aff57634e487b7160e01b600052601160045260246000fd5b9291505056fea26469706673582212205065efb0566ca18ce51245a723bd1557261cbbee88b75ef60b5bcd4df791efec64736f6c63430008140033",
  "deployedBytecode": "0x608060405261000c61000e565b005b7f000000000000000000000000128dbc4c8f7f39707ee9744b5c0ad7aa16d78fb36001600160a01b0316330361007b576000356001600160e01b03191663278f794360e11b14610071576040516334ad5dbb60e21b815260040160405180910390fd5b610079610083565b565b6100796100b2565b6000806100933660048184610312565b8101906100a09190610352565b915091506100ae82826100c2565b5050565b6100796100bd61011d565b610155565b6100cb82610179565b6040516001600160a01b038316907fbc7cd75a20ee27fd9adebab32041f755214dbc6bffa90cc0225b39da2e5c2d3b90600090a28051156101155761011082826101f5565b505050565b6100ae61026b565b60006101507f360894a13ba1a3210667c828492db98dca3e2076cc3735a920a3ca505d382bbc546001600160a01b031690565b905090565b3660008037600080366000845af43d6000803e808015610174573d6000f35b3d6000fd5b806001600160a01b03163b6000036101b457604051634c9c8ce360e01b81526001600160a01b03821660048201526024015b60405180910390fd5b7f360894a13ba1a3210667c828492db98dca3e2076cc3735a920a3ca505d382bbc80546001600160a01b0319166001600160a01b0392909216919091179055565b6060600080846001600160a01b0316846040516102129190610422565b600060405180830381855af49150503d806000811461024d576040519150601f19603f3d011682016040523d82523d6000602084013e610252565b606091505b509150915061026285838361028a565b95945050505050565b34156100795760405163b398979f60e01b815260040160405180910390fd5b60608261029f5761029a826102e9565b6102e2565b81511580156102b657506001600160a01b0384163b155b156102df57604051639996b31560e01b81526001600160a01b03851660048201526024016101ab565b50805b9392505050565b8051156102f95780518082602001fd5b604051630a12f52160e11b815260040160405180910390fd5b6000808585111561032257600080fd5b8386111561032f57600080fd5b5050820193919092039150565b634e487b7160e01b600052604160045260246000fd5b6000806040838503121561036557600080fd5b82356001600160a01b038116811461037c57600080fd5b9150602083013567ffffffffffffffff8082111561039957600080fd5b818501915085601f8301126103ad57600080fd5b8135818111156103bf576103bf61033c565b604051601f8201601f19908116603f011681019083821181831017156103e7576103e761033c565b8160405282815288602084870101111561040057600080fd5b8260208601602083013760006020848301015280955050505050509250929050565b6000825160005b818110156104435760208186018101518583015201610429565b50600092019182525091905056fea264697066735822122027f80176059c85af4ee8751015dd9e5db167736b2eedc4be4d13ffc86fde444964736f6c63430008140033"
}