{
  "address": "0x46199cAa0e453971cedf97f926368d9E5415831a",
  "abi": [
    {
      "type": "constructor",
      "stateMutability": "undefined",
      "payable": false,
      "inputs": []
    },
    {
      "type": "error",
      "name": "InvalidInitialization",
      "inputs": []
    },
    {
      "type": "error",
      "name": "NotInitializing",
      "inputs": []
    },
    {
      "type": "error",
      "name": "OnlyGovernanceAllowed",
      "inputs": []
    },
    {
      "type": "error",
      "name": "OnlyOperatorAllowed",
      "inputs": []
    },
    {
      "type": "error",
      "name": "OnlyRestakingPoolAllowed",
      "inputs": []
    },
    {
      "type": "error",
      "name": "PoolDistributeGasLimitNotInRange",
      "inputs": [
        {
          "type": "uint64",
          "name": "max"
        }
      ]
    },
    {
      "type": "error",
      "name": "PoolDistributeGasLimitNotSet",
      "inputs": []
    },
    {
      "type": "error",
      "name": "PoolFailedInnerCall",
      "inputs": []
    },
    {
      "type": "error",
      "name": "PoolInsufficientBalance",
      "inputs": []
    },
    {
      "type": "error",
      "name": "PoolRestakerExists",
      "inputs": []
    },
    {
      "type": "error",
      "name": "PoolRestakerNotExists",
      "inputs": []
    },
    {
      "type": "error",
      "name": "PoolStakeAmGreaterThanAvailable",
      "inputs": []
    },
    {
      "type": "error",
      "name": "PoolStakeAmLessThanMin",
      "inputs": []
    },
    {
      "type": "error",
      "name": "PoolUnstakeAmLessThanMin",
      "inputs": []
    },
    {
      "type": "error",
      "name": "PoolWrongInputLength",
      "inputs": []
    },
    {
      "type": "error",
      "name": "PoolZeroAddress",
      "inputs": []
    },
    {
      "type": "error",
      "name": "PoolZeroAmount",
      "inputs": []
    },
    {
      "type": "error",
      "name": "ReentrancyGuardReentrantCall",
      "inputs": []
    },
    {
      "type": "event",
      "anonymous": false,
      "name": "ClaimExpected",
      "inputs": [
        {
          "type": "address",
          "name": "claimer",
          "indexed": true
        },
        {
          "type": "uint256",
          "name": "value",
          "indexed": false
        }
      ]
    },
    {
      "type": "event",
      "anonymous": false,
      "name": "Deposited",
      "inputs": [
        {
          "type": "string",
          "name": "provider",
          "indexed": true
        },
        {
          "type": "bytes[]",
          "name": "pubkeys"
        }
      ]
    },
    {
      "type": "event",
      "anonymous": false,
      "name": "DistributeGasLimitChanged",
      "inputs": [
        {
          "type": "uint32",
          "name": "prevValue",
          "indexed": false
        },
        {
          "type": "uint32",
          "name": "newValue",
          "indexed": false
        }
      ]
    },
    {
      "type": "event",
      "anonymous": false,
      "name": "FeeClaimed",
      "inputs": [
        {
          "type": "address",
          "name": "treasury",
          "indexed": true
        },
        {
          "type": "uint256",
          "name": "amount",
          "indexed": false
        }
      ]
    },
    {
      "type": "event",
      "anonymous": false,
      "name": "Initialized",
      "inputs": [
        {
          "type": "uint64",
          "name": "version",
          "indexed": false
        }
      ]
    },
    {
      "type": "event",
      "anonymous": false,
      "name": "MaxTVLChanged",
      "inputs": [
        {
          "type": "uint256",
          "name": "prevValue",
          "indexed": false
        },
        {
          "type": "uint256",
          "name": "newValue",
          "indexed": false
        }
      ]
    },
    {
      "type": "event",
      "anonymous": false,
      "name": "MinStakeChanged",
      "inputs": [
        {
          "type": "uint256",
          "name": "prevValue",
          "indexed": false
        },
        {
          "type": "uint256",
          "name": "newValue",
          "indexed": false
        }
      ]
    },
    {
      "type": "event",
      "anonymous": false,
      "name": "MinUntakeChanged",
      "inputs": [
        {
          "type": "uint256",
          "name": "prevValue",
          "indexed": false
        },
        {
          "type": "uint256",
          "name": "newValue",
          "indexed": false
        }
      ]
    },
    {
      "type": "event",
      "anonymous": false,
      "name": "PendingUnstake",
      "inputs": [
        {
          "type": "address",
          "name": "ownerAddress",
          "indexed": true
        },
        {
          "type": "address",
          "name": "receiverAddress",
          "indexed": true
        },
        {
          "type": "uint256",
          "name": "amount",
          "indexed": false
        },
        {
          "type": "uint256",
          "name": "shares",
          "indexed": false
        }
      ]
    },
    {
      "type": "event",
      "anonymous": false,
      "name": "Received",
      "inputs": [
        {
          "type": "address",
          "name": "sender",
          "indexed": true
        },
        {
          "type": "uint256",
          "name": "amount",
          "indexed": false
        }
      ]
    },
    {
      "type": "event",
      "anonymous": false,
      "name": "RestakerAdded",
      "inputs": [
        {
          "type": "string",
          "name": "provider",
          "indexed": true
        },
        {
          "type": "address",
          "name": "restaker",
          "indexed": false
        }
      ]
    },
    {
      "type": "event",
      "anonymous": false,
      "name": "Staked",
      "inputs": [
        {
          "type": "address",
          "name": "staker",
          "indexed": true
        },
        {
          "type": "uint256",
          "name": "amount",
          "indexed": false
        },
        {
          "type": "uint256",
          "name": "shares",
          "indexed": false
        }
      ]
    },
    {
      "type": "event",
      "anonymous": false,
      "name": "UnstakeClaimed",
      "inputs": [
        {
          "type": "address",
          "name": "claimer",
          "indexed": true
        },
        {
          "type": "address",
          "name": "caller",
          "indexed": true
        },
        {
          "type": "uint256",
          "name": "value",
          "indexed": false
        }
      ]
    },
    {
      "type": "event",
      "anonymous": false,
      "name": "Unstaked",
      "inputs": [
        {
          "type": "address",
          "name": "from",
          "indexed": true
        },
        {
          "type": "address",
          "name": "to",
          "indexed": true
        },
        {
          "type": "uint256",
          "name": "amount",
          "indexed": false
        },
        {
          "type": "uint256",
          "name": "shares",
          "indexed": false
        }
      ]
    },
    {
      "type": "event",
      "anonymous": false,
      "name": "UnstakesDistributed",
      "inputs": [
        {
          "type": "tuple[]",
          "name": "unstakes",
          "components": [
            {
              "type": "address",
              "name": "recipient"
            },
            {
              "type": "uint256",
              "name": "amount"
            }
          ]
        }
      ]
    },
    {
      "type": "function",
      "name": "CALL_GAS_LIMIT",
      "constant": true,
      "stateMutability": "view",
      "payable": false,
      "inputs": [],
      "outputs": [
        {
          "type": "uint256",
          "name": ""
        }
      ]
    },
    {
      "type": "function",
      "name": "activateRestaking",
      "constant": false,
      "payable": false,
      "inputs": [
        {
          "type": "string",
          "name": "provider"
        }
      ],
      "outputs": []
    },
    {
      "type": "function",
      "name": "addRestaker",
      "constant": false,
      "payable": false,
      "inputs": [
        {
          "type": "string",
          "name": "provider"
        }
      ],
      "outputs": []
    },
    {
      "type": "function",
      "name": "availableToStake",
      "constant": true,
      "stateMutability": "view",
      "payable": false,
      "inputs": [],
      "outputs": [
        {
          "type": "uint256",
          "name": ""
        }
      ]
    },
    {
      "type": "function",
      "name": "batchDeposit",
      "constant": false,
      "payable": false,
      "inputs": [
        {
          "type": "string",
          "name": "provider"
        },
        {
          "type": "bytes[]",
          "name": "pubkeys"
        },
        {
          "type": "bytes[]",
          "name": "signatures"
        },
        {
          "type": "bytes32[]",
          "name": "deposit_data_roots"
        }
      ],
      "outputs": []
    },
    {
      "type": "function",
      "name": "claimUnstake",
      "constant": false,
      "payable": false,
      "inputs": [
        {
          "type": "address",
          "name": "claimer"
        }
      ],
      "outputs": []
    },
    {
      "type": "function",
      "name": "claimableOf",
      "constant": true,
      "stateMutability": "view",
      "payable": false,
      "inputs": [
        {
          "type": "address",
          "name": "claimer"
        }
      ],
      "outputs": [
        {
          "type": "uint256",
          "name": ""
        }
      ]
    },
    {
      "type": "function",
      "name": "config",
      "constant": true,
      "stateMutability": "view",
      "payable": false,
      "inputs": [],
      "outputs": [
        {
          "type": "address",
          "name": ""
        }
      ]
    },
    {
      "type": "function",
      "name": "delegateTo",
      "constant": false,
      "payable": false,
      "inputs": [
        {
          "type": "string",
          "name": "provider"
        },
        {
          "type": "address",
          "name": "elOperator"
        },
        {
          "type": "tuple",
          "name": "approverSignatureAndExpiry",
          "components": [
            {
              "type": "bytes",
              "name": "signature"
            },
            {
              "type": "uint256",
              "name": "expiry"
            }
          ]
        },
        {
          "type": "bytes32",
          "name": "approverSalt"
        }
      ],
      "outputs": []
    },
    {
      "type": "function",
      "name": "distributeUnstakes",
      "constant": false,
      "payable": false,
      "inputs": [
        {
          "type": "uint256",
          "name": "fee"
        }
      ],
      "outputs": []
    },
    {
      "type": "function",
      "name": "getMinStake",
      "constant": true,
      "stateMutability": "view",
      "payable": false,
      "inputs": [],
      "outputs": [
        {
          "type": "uint256",
          "name": "amount"
        }
      ]
    },
    {
      "type": "function",
      "name": "getMinUnstake",
      "constant": true,
      "stateMutability": "view",
      "payable": false,
      "inputs": [],
      "outputs": [
        {
          "type": "uint256",
          "name": "shares"
        }
      ]
    },
    {
      "type": "function",
      "name": "getPending",
      "constant": true,
      "stateMutability": "view",
      "payable": false,
      "inputs": [],
      "outputs": [
        {
          "type": "uint256",
          "name": ""
        }
      ]
    },
    {
      "type": "function",
      "name": "getTotalClaimable",
      "constant": true,
      "stateMutability": "view",
      "payable": false,
      "inputs": [],
      "outputs": [
        {
          "type": "uint256",
          "name": ""
        }
      ]
    },
    {
      "type": "function",
      "name": "getTotalPendingUnstakes",
      "constant": true,
      "stateMutability": "view",
      "payable": false,
      "inputs": [],
      "outputs": [
        {
          "type": "uint256",
          "name": ""
        }
      ]
    },
    {
      "type": "function",
      "name": "getTotalUnstakesOf",
      "constant": true,
      "stateMutability": "view",
      "payable": false,
      "inputs": [
        {
          "type": "address",
          "name": "recipient"
        }
      ],
      "outputs": [
        {
          "type": "uint256",
          "name": ""
        }
      ]
    },
    {
      "type": "function",
      "name": "getUnstakes",
      "constant": true,
      "stateMutability": "view",
      "payable": false,
      "inputs": [],
      "outputs": [
        {
          "type": "tuple[]",
          "name": "unstakes",
          "components": [
            {
              "type": "address",
              "name": "recipient"
            },
            {
              "type": "uint256",
              "name": "amount"
            }
          ]
        }
      ]
    },
    {
      "type": "function",
      "name": "getUnstakesOf",
      "constant": true,
      "stateMutability": "view",
      "payable": false,
      "inputs": [
        {
          "type": "address",
          "name": "recipient"
        }
      ],
      "outputs": [
        {
          "type": "tuple[]",
          "name": "unstakes",
          "components": [
            {
              "type": "address",
              "name": "recipient"
            },
            {
              "type": "uint256",
              "name": "amount"
            }
          ]
        }
      ]
    },
    {
      "type": "function",
      "name": "hasClaimable",
      "constant": true,
      "stateMutability": "view",
      "payable": false,
      "inputs": [
        {
          "type": "address",
          "name": "claimer"
        }
      ],
      "outputs": [
        {
          "type": "bool",
          "name": ""
        }
      ]
    },
    {
      "type": "function",
      "name": "initialize",
      "constant": false,
      "payable": false,
      "inputs": [
        {
          "type": "address",
          "name": "config"
        },
        {
          "type": "uint32",
          "name": "distributeGasLimit"
        },
        {
          "type": "uint256",
          "name": "maxTVL"
        }
      ],
      "outputs": []
    },
    {
      "type": "function",
      "name": "recoverTokens",
      "constant": false,
      "payable": false,
      "inputs": [
        {
          "type": "string",
          "name": "provider"
        },
        {
          "type": "address[]",
          "name": "tokenList"
        },
        {
          "type": "uint256[]",
          "name": "amountsToWithdraw"
        }
      ],
      "outputs": []
    },
    {
      "type": "function",
      "name": "setDistributeGasLimit",
      "constant": false,
      "payable": false,
      "inputs": [
        {
          "type": "uint32",
          "name": "newValue"
        }
      ],
      "outputs": []
    },
    {
      "type": "function",
      "name": "setMaxTVL",
      "constant": false,
      "payable": false,
      "inputs": [
        {
          "type": "uint256",
          "name": "newValue"
        }
      ],
      "outputs": []
    },
    {
      "type": "function",
      "name": "setMinStake",
      "constant": false,
      "payable": false,
      "inputs": [
        {
          "type": "uint256",
          "name": "newValue"
        }
      ],
      "outputs": []
    },
    {
      "type": "function",
      "name": "setMinUnstake",
      "constant": false,
      "payable": false,
      "inputs": [
        {
          "type": "uint256",
          "name": "newValue"
        }
      ],
      "outputs": []
    },
    {
      "type": "function",
      "name": "stake",
      "constant": false,
      "stateMutability": "payable",
      "payable": true,
      "inputs": [],
      "outputs": []
    },
    {
      "type": "function",
      "name": "unstake",
      "constant": false,
      "payable": false,
      "inputs": [
        {
          "type": "address",
          "name": "to"
        },
        {
          "type": "uint256",
          "name": "shares"
        }
      ],
      "outputs": []
    },
    {
      "type": "function",
      "name": "verifyWithdrawalCredentials",
      "constant": false,
      "payable": false,
      "inputs": [
        {
          "type": "string",
          "name": "provider"
        },
        {
          "type": "uint64",
          "name": "oracleTimestamp"
        },
        {
          "type": "tuple",
          "name": "stateRootProof",
          "components": [
            {
              "type": "bytes32",
              "name": "beaconStateRoot"
            },
            {
              "type": "bytes",
              "name": "proof"
            }
          ]
        },
        {
          "type": "uint40[]",
          "name": "validatorIndices"
        },
        {
          "type": "bytes[]",
          "name": "validatorFieldsProofs"
        },
        {
          "type": "bytes32[][]",
          "name": "validatorFields"
        }
      ],
      "outputs": []
    },
    {
      "type": "function",
      "name": "withdrawBeforeRestaking",
      "constant": false,
      "payable": false,
      "inputs": [
        {
          "type": "string",
          "name": "provider"
        }
      ],
      "outputs": []
    },
    {
      "type": "function",
      "name": "withdrawNonBeaconChainETHBalanceWei",
      "constant": false,
      "payable": false,
      "inputs": [
        {
          "type": "string",
          "name": "provider"
        },
        {
          "type": "uint256",
          "name": "amountToWithdraw"
        }
      ],
      "outputs": []
    },
    {
      "type": "receive",
      "stateMutability": "payable"
    }
  ],
  "transactionHash": "0x80a10cc38d11dd8cc7596a3c7da8898d269e3b85970d65f73c71bd22ff3bb558",
  "numDeployments": 1,
  "bytecode": "0x60806040523480156200001157600080fd5b506200001c62000022565b620000d6565b7ff0c57e16840df040f15088dc2f81fe391c3923bec73e23a9662efc9c229c6a00805468010000000000000000900460ff1615620000735760405163f92ee8a960e01b815260040160405180910390fd5b80546001600160401b0390811614620000d35780546001600160401b0319166001600160401b0390811782556040519081527fc7f505b2f371ae2175ee4913f4499e1f2633a7b5936321eed1cdaeb6115181d29060200160405180910390a15b50565b61363480620000e66000396000f3fe6080604052600436106101d15760003560e01c8063845b9150116100f7578063d11531da11610095578063eea4684d11610064578063eea4684d14610561578063f017e47414610581578063f21748ad146105a1578063fb8fa290146105c157600080fd5b8063d11531da146104e1578063d95edac914610501578063dc835d6b14610521578063e6a497331461054157600080fd5b80638e59fbf6116100d15780638e59fbf614610455578063b3870ef71461046b578063bc7829271461048b578063c2a672e0146104c157600080fd5b8063845b9150146103df5780638903ab9d146103ff5780638c80fd901461043557600080fd5b806348abd1961161016f57806370131f4d1161013e57806370131f4d1461032d57806378288a381461034d57806379502c551461036f5780637cf3d51e1461039757600080fd5b806348abd196146102c357806356a3b5fa146102e35780635f4aa38d146102f85780636180c6091461031857600080fd5b806311ae9ed2116101ab57806311ae9ed21461027c578063126d5df6146102915780633a4b66f1146102a65780633f908551146102ae57600080fd5b8063034c4454146102125780630359cc221461023a5780630f19aaef1461025c57600080fd5b3661020d5760405134815233907f88a5966d370b9919b20f3e2c13ff65706f196a4e32cc2c12bf57088f885258749060200160405180910390a2005b600080fd5b34801561021e57600080fd5b506102276105e1565b6040519081526020015b60405180910390f35b34801561024657600080fd5b5061025a610255366004612aee565b61074c565b005b34801561026857600080fd5b5061025a610277366004612b53565b6108a9565b34801561028857600080fd5b506102276109cb565b34801561029d57600080fd5b50603854610227565b61025a6109fa565b3480156102ba57600080fd5b50610227610bf2565b3480156102cf57600080fd5b5061025a6102de366004612b91565b610cf1565b3480156102ef57600080fd5b50610227610e0a565b34801561030457600080fd5b5061025a610313366004612c20565b610f07565b34801561032457600080fd5b50603b54610227565b34801561033957600080fd5b5061025a610348366004612aee565b611176565b34801561035957600080fd5b50610362611264565b6040516102319190612cde565b34801561037b57600080fd5b506000546040516001600160a01b039091168152602001610231565b3480156103a357600080fd5b506103cf6103b2366004612d36565b6001600160a01b03166000908152603c6020526040902054151590565b6040519015158152602001610231565b3480156103eb57600080fd5b5061025a6103fa366004612d53565b611368565b34801561040b57600080fd5b5061022761041a366004612d36565b6001600160a01b03166000908152603c602052604090205490565b34801561044157600080fd5b5061025a610450366004612d53565b61144f565b34801561046157600080fd5b5061022761271081565b34801561047757600080fd5b5061025a610486366004612dfa565b611536565b34801561049757600080fd5b506102276104a6366004612d36565b6001600160a01b031660009081526039602052604090205490565b3480156104cd57600080fd5b5061025a6104dc366004612ede565b6116b9565b3480156104ed57600080fd5b5061025a6104fc366004612d36565b6118ba565b34801561050d57600080fd5b5061025a61051c366004612f0a565b6119ff565b34801561052d57600080fd5b5061025a61053c366004612f25565b611aae565b34801561054d57600080fd5b5061036261055c366004612d36565b611bcb565b34801561056d57600080fd5b5061025a61057c366004613022565b611d2e565b34801561058d57600080fd5b5061025a61059c366004612d53565b611e5a565b3480156105ad57600080fd5b5061025a6105bc366004612d53565b612291565b3480156105cd57600080fd5b5061025a6105dc366004612aee565b612340565b6000806105f66000546001600160a01b031690565b6001600160a01b031663ec6c350c6040518163ffffffff1660e01b8152600401602060405180830381865afa158015610633573d6000803e3d6000fd5b505050506040513d601f19601f820116820180604052508101906106579190613117565b604051600162e422bd60e01b03198152600160048201529091506000906001600160a01b0383169063c6e6f59290829063ff1bdd4390602401602060405180830381865afa1580156106ad573d6000803e3d6000fd5b505050506040513d601f19601f820116820180604052508101906106d19190613134565b6040518263ffffffff1660e01b81526004016106ef91815260200190565b602060405180830381865afa15801561070c573d6000803e3d6000fd5b505050506040513d601f19601f820116820180604052508101906107309190613134565b905080603354116107415780610745565b6033545b9250505090565b60008054906101000a90046001600160a01b03166001600160a01b031663e7f43c686040518163ffffffff1660e01b8152600401602060405180830381865afa15801561079d573d6000803e3d6000fd5b505050506040513d601f19601f820116820180604052508101906107c19190613117565b6001600160a01b0316336001600160a01b0316146107f257604051633734611360e01b815260040160405180910390fd5b60006107fd82612575565b9050806001600160a01b0316630cd4649e6040518163ffffffff1660e01b8152600401600060405180830381600087803b15801561083a57600080fd5b505af115801561084e573d6000803e3d6000fd5b50505050806001600160a01b031663ef8cdf7c6040518163ffffffff1660e01b8152600401600060405180830381600087803b15801561088d57600080fd5b505af11580156108a1573d6000803e3d6000fd5b505050505050565b7ff0c57e16840df040f15088dc2f81fe391c3923bec73e23a9662efc9c229c6a008054600160401b810460ff1615906001600160401b03166000811580156108ee5750825b90506000826001600160401b0316600114801561090a5750303b155b905081158015610918575080155b156109365760405163f92ee8a960e01b815260040160405180910390fd5b845467ffffffffffffffff19166001178555831561096057845460ff60401b1916600160401b1785555b6109686125c9565b610971886125db565b61097b8787612605565b83156109c157845460ff60401b19168555604051600181527fc7f505b2f371ae2175ee4913f4499e1f2633a7b5936321eed1cdaeb6115181d29060200160405180910390a15b5050505050505050565b600047816109d8603b5490565b9050818111156109eb5760009250505090565b6107458183613163565b505090565b34610a03610e0a565b811015610a235760405163273d2bdb60e21b815260040160405180910390fd5b610a2b610bf2565b811115610a4b57604051633175986360e21b815260040160405180910390fd5b600080546001600160a01b03166001600160a01b031663ec6c350c6040518163ffffffff1660e01b8152600401602060405180830381865afa158015610a95573d6000803e3d6000fd5b505050506040513d601f19601f82011682018060405250810190610ab99190613117565b6040516363737ac960e11b8152600481018490529091506000906001600160a01b0383169063c6e6f59290602401602060405180830381865afa158015610b04573d6000803e3d6000fd5b505050506040513d601f19601f82011682018060405250810190610b289190613134565b90506001600160a01b0382166340c10f19336040516001600160e01b031960e084901b1681526001600160a01b03909116600482015260248101849052604401600060405180830381600087803b158015610b8257600080fd5b505af1158015610b96573d6000803e3d6000fd5b505050508260346000828254610bac919061317c565b9091555050604080518481526020810183905233917f1449c6dd7851abc30abf37f57715f492010519147cc2652fbc38202c18a6ee9091015b60405180910390a2505050565b600080610c076000546001600160a01b031690565b6001600160a01b031663ec6c350c6040518163ffffffff1660e01b8152600401602060405180830381865afa158015610c44573d6000803e3d6000fd5b505050506040513d601f19601f82011682018060405250810190610c689190613117565b6001600160a01b03166301e1d1146040518163ffffffff1660e01b8152600401602060405180830381865afa158015610ca5573d6000803e3d6000fd5b505050506040513d601f19601f82011682018060405250810190610cc99190613134565b9050603e54811115610cdd57600091505090565b80603e54610ceb9190613163565b91505090565b60008054906101000a90046001600160a01b03166001600160a01b031663e7f43c686040518163ffffffff1660e01b8152600401602060405180830381865afa158015610d42573d6000803e3d6000fd5b505050506040513d601f19601f82011682018060405250810190610d669190613117565b6001600160a01b0316336001600160a01b031614610d9757604051633734611360e01b815260040160405180910390fd5b6000610da283612575565b60405163e2c8344560e01b8152306004820152602481018490529091506001600160a01b0382169063e2c8344590604401600060405180830381600087803b158015610ded57600080fd5b505af1158015610e01573d6000803e3d6000fd5b50505050505050565b600080610e1f6000546001600160a01b031690565b6001600160a01b031663ec6c350c6040518163ffffffff1660e01b8152600401602060405180830381865afa158015610e5c573d6000803e3d6000fd5b505050506040513d601f19601f82011682018060405250810190610e809190613117565b604051600162e422bd60e01b03198152600160048201526001600160a01b03919091169063ff1bdd4390602401602060405180830381865afa158015610eca573d6000803e3d6000fd5b505050506040513d601f19601f82011682018060405250810190610eee9190613134565b90508060325411610eff5780610ceb565b505060325490565b60008054906101000a90046001600160a01b03166001600160a01b031663e7f43c686040518163ffffffff1660e01b8152600401602060405180830381865afa158015610f58573d6000803e3d6000fd5b505050506040513d601f19601f82011682018060405250810190610f7c9190613117565b6001600160a01b0316336001600160a01b031614610fad57604051633734611360e01b815260040160405180910390fd5b610fb561261f565b848381141580610fc55750808214155b15610fe3576040516367af08e760e11b815260040160405180910390fd5b610ff6816801bc16d674ec80000061318f565b47101561101657604051635093740560e01b815260040160405180910390fd5b600061102189612575565b905060005b8281101561110d57816001600160a01b0316639b4e46346801bc16d674ec8000008b8b85818110611059576110596131a6565b905060200281019061106b91906131bc565b8b8b8781811061107d5761107d6131a6565b905060200281019061108f91906131bc565b8b8b898181106110a1576110a16131a6565b905060200201356040518763ffffffff1660e01b81526004016110c895949392919061322b565b6000604051808303818588803b1580156110e157600080fd5b505af11580156110f5573d6000803e3d6000fd5b5050505050808061110590613265565b915050611026565b508860405161111c91906132a2565b60405180910390207f82893d4437db377df0abca554a4a9ef54de226c99efe74077b214d6d3390e7dd8989604051611155929190613353565b60405180910390a25050610e0160016000805160206135df83398151915255565b60008054906101000a90046001600160a01b03166001600160a01b031663e7f43c686040518163ffffffff1660e01b8152600401602060405180830381865afa1580156111c7573d6000803e3d6000fd5b505050506040513d601f19601f820116820180604052508101906111eb9190613117565b6001600160a01b0316336001600160a01b03161461121c57604051633734611360e01b815260040160405180910390fd5b600061122782612575565b9050806001600160a01b031663baa7145a6040518163ffffffff1660e01b8152600401600060405180830381600087803b15801561083a57600080fd5b60365460375460609161127691613163565b6001600160401b0381111561128d5761128d612a02565b6040519080825280602002602001820160405280156112d257816020015b60408051808201909152600080825260208201528152602001906001900390816112ab5790505b506036549091506000905b6037548110156109f557603781815481106112fa576112fa6131a6565b60009182526020918290206040805180820190915260029092020180546001600160a01b031682526001015491810191909152838361133881613265565b94508151811061134a5761134a6131a6565b6020026020010181905250808061136090613265565b9150506112dd565b60008054906101000a90046001600160a01b03166001600160a01b031663289b3c0d6040518163ffffffff1660e01b8152600401602060405180830381865afa1580156113b9573d6000803e3d6000fd5b505050506040513d601f19601f820116820180604052508101906113dd9190613117565b6001600160a01b0316336001600160a01b03161461140e5760405163e2d4f15f60e01b815260040160405180910390fd5b60335460408051918252602082018390527f8bdf1717dd354dbbe463f6106e79cd3ab4553f582ea47512f268d9470fc93609910160405180910390a1603355565b60008054906101000a90046001600160a01b03166001600160a01b031663289b3c0d6040518163ffffffff1660e01b8152600401602060405180830381865afa1580156114a0573d6000803e3d6000fd5b505050506040513d601f19601f820116820180604052508101906114c49190613117565b6001600160a01b0316336001600160a01b0316146114f55760405163e2d4f15f60e01b815260040160405180910390fd5b60325460408051918252602082018390527fca11c8a4c461b60c9f485404c272650c2aaae260b2067d72e9924abb68556593910160405180910390a1603255565b60008054906101000a90046001600160a01b03166001600160a01b031663e7f43c686040518163ffffffff1660e01b8152600401602060405180830381865afa158015611587573d6000803e3d6000fd5b505050506040513d601f19601f820116820180604052508101906115ab9190613117565b6001600160a01b0316336001600160a01b0316146115dc57604051633734611360e01b815260040160405180910390fd5b60006115e784612575565b9050806001600160a01b031663dda3346c848461160c6000546001600160a01b031690565b6001600160a01b031663e7f43c686040518163ffffffff1660e01b8152600401602060405180830381865afa158015611649573d6000803e3d6000fd5b505050506040513d601f19601f8201168201806040525081019061166d9190613117565b6040518463ffffffff1660e01b815260040161168b93929190613367565b600060405180830381600087803b1580156116a557600080fd5b505af11580156109c1573d6000803e3d6000fd5b6116c161261f565b6116c96105e1565b8110156116e9576040516307bd37ff60e01b815260040160405180910390fd5b600080543391906001600160a01b03166001600160a01b031663ec6c350c6040518163ffffffff1660e01b8152600401602060405180830381865afa158015611736573d6000803e3d6000fd5b505050506040513d601f19601f8201168201806040525081019061175a9190613117565b604051600162e422bd60e01b03198152600481018590529091506000906001600160a01b0383169063ff1bdd4390602401602060405180830381865afa1580156117a8573d6000803e3d6000fd5b505050506040513d601f19601f820116820180604052508101906117cc9190613134565b604051632770a7eb60e21b81526001600160a01b0385811660048301526024820187905291925090831690639dc29fac90604401600060405180830381600087803b15801561181a57600080fd5b505af115801561182e573d6000803e3d6000fd5b5050505061183c858261266b565b806035600082825461184e919061317c565b909155505060408051828152602081018690526001600160a01b0380881692908616917f06cc7e90b4f2b554a9614b0caa84f909f3498c820ae47c731f490c28c07f7d3b910160405180910390a35050506118b660016000805160206135df83398151915255565b5050565b6118c261261f565b6001600160a01b0381166118e9576040516321cb944560e11b815260040160405180910390fd5b6001600160a01b0381166000908152603c60205260408120549081900361192357604051630d23170560e01b815260040160405180910390fd5b603b5447101561194657604051635093740560e01b815260040160405180910390fd5b80603b60008282546119589190613163565b90915550506001600160a01b0382166000908152603c6020526040812081905561198383838361278c565b9050806119a357604051634dbb90c960e01b815260040160405180910390fd5b60405182815233906001600160a01b038516907febc6a30f46090cafd1f043241dbc148c4310b7026aae29ff950ea25a5411879b9060200160405180910390a350506119fc60016000805160206135df83398151915255565b50565b60008054906101000a90046001600160a01b03166001600160a01b031663289b3c0d6040518163ffffffff1660e01b8152600401602060405180830381865afa158015611a50573d6000803e3d6000fd5b505050506040513d601f19601f82011682018060405250810190611a749190613117565b6001600160a01b0316336001600160a01b031614611aa55760405163e2d4f15f60e01b815260040160405180910390fd5b6119fc81612825565b60008054906101000a90046001600160a01b03166001600160a01b031663e7f43c686040518163ffffffff1660e01b8152600401602060405180830381865afa158015611aff573d6000803e3d6000fd5b505050506040513d601f19601f82011682018060405250810190611b239190613117565b6001600160a01b0316336001600160a01b031614611b5457604051633734611360e01b815260040160405180910390fd5b6000611b5f85612575565b60405163eea9064b60e01b81529091506001600160a01b0382169063eea9064b90611b92908790879087906004016133f9565b600060405180830381600087803b158015611bac57600080fd5b505af1158015611bc0573d6000803e3d6000fd5b505050505050505050565b603654603754606091611bdd91613163565b6001600160401b03811115611bf457611bf4612a02565b604051908082528060200260200182016040528015611c3957816020015b6040805180820190915260008082526020820152815260200190600190039081611c125790505b506036549091506000905b603754811015611d0b57836001600160a01b031660378281548110611c6b57611c6b6131a6565b60009182526020909120600290910201546001600160a01b031603611cf95760378181548110611c9d57611c9d6131a6565b60009182526020918290206040805180820190915260029092020180546001600160a01b0316825260010154918101919091528383611cdb81613265565b945081518110611ced57611ced6131a6565b60200260200101819052505b80611d0381613265565b915050611c44565b506000818351611d1b9190613163565b90508015611d27578183525b5050919050565b60008054906101000a90046001600160a01b03166001600160a01b031663e7f43c686040518163ffffffff1660e01b8152600401602060405180830381865afa158015611d7f573d6000803e3d6000fd5b505050506040513d601f19601f82011682018060405250810190611da39190613117565b6001600160a01b0316336001600160a01b031614611dd457604051633734611360e01b815260040160405180910390fd5b6000611ddf8a612575565b604051633f65cf1960e01b81529091506001600160a01b03821690633f65cf1990611e1c908c908c908c908c908c908c908c908c9060040161351f565b600060405180830381600087803b158015611e3657600080fd5b505af1158015611e4a573d6000803e3d6000fd5b5050505050505050505050505050565b60008054906101000a90046001600160a01b03166001600160a01b031663e7f43c686040518163ffffffff1660e01b8152600401602060405180830381865afa158015611eab573d6000803e3d6000fd5b505050506040513d601f19601f82011682018060405250810190611ecf9190613117565b6001600160a01b0316336001600160a01b031614611f0057604051633734611360e01b815260040160405180910390fd5b611f0861261f565b6000611f126109cb565b9050818110611ff057611f258282613163565b90506000611f3b6000546001600160a01b031690565b6001600160a01b0316633b19e84a6040518163ffffffff1660e01b8152600401602060405180830381865afa158015611f78573d6000803e3d6000fd5b505050506040513d601f19601f82011682018060405250810190611f9c9190613117565b9050611faa8184600061278c565b50806001600160a01b03167f20ca5094f3a20c321cbe4123d0f01b276b81df0fa24cd4d83d9253956035d86384604051611fe691815260200190565b60405180910390a2505b6037546036546000906120039083613163565b6001600160401b0381111561201a5761201a612a02565b60405190808252806020026020018201604052801561205f57816020015b60408051808201909152600080825260208201528152602001906001900390816120385790505b506036549091506000905b83811080156120795750600085115b801561208c5750603a5463ffffffff165a115b1561221c576000603782815481106120a6576120a66131a6565b60009182526020918290206040805180820190915260029092020180546001600160a01b031680835260019091015492820192909252915015806120ec57506020810151155b15612102576120fa82613265565b91505061206a565b8060200151861015612114575061221c565b60208082015182516001600160a01b03166000908152603990925260408220805491929091612144908490613163565b9091555050602081015160388054600090612160908490613163565b909155505060208101516121749087613163565b955060378281548110612189576121896131a6565b60009182526020822060029091020180546001600160a01b0319168155600101556121b382613265565b915060006121cb82600001518360200151600161278c565b9050806121eb576121e4826000015183602001516128c9565b505061206a565b818585815181106121fe576121fe6131a6565b60200260200101819052508361221390613265565b9350505061206a565b60368190558251600090612231908490613163565b9050801561223d578284525b7fdb6e8b10a6c30551abbedf583209f3ba034b0fe65db6848390a5af4816a2eaa08460405161226c9190612cde565b60405180910390a15050505050506119fc60016000805160206135df83398151915255565b60008054906101000a90046001600160a01b03166001600160a01b031663289b3c0d6040518163ffffffff1660e01b8152600401602060405180830381865afa1580156122e2573d6000803e3d6000fd5b505050506040513d601f19601f820116820180604052508101906123069190613117565b6001600160a01b0316336001600160a01b0316146123375760405163e2d4f15f60e01b815260040160405180910390fd5b6119fc8161294f565b60008054906101000a90046001600160a01b03166001600160a01b031663289b3c0d6040518163ffffffff1660e01b8152600401602060405180830381865afa158015612391573d6000803e3d6000fd5b505050506040513d601f19601f820116820180604052508101906123b59190613117565b6001600160a01b0316336001600160a01b0316146123e65760405163e2d4f15f60e01b815260040160405180910390fd5b805160208201206000906000818152603d60205260409020549091506001600160a01b0316801561242a57604051638b1a6ce760e01b815260040160405180910390fd5b6000546001600160a01b03166001600160a01b0316633f69e0f76040518163ffffffff1660e01b8152600401602060405180830381865afa158015612473573d6000803e3d6000fd5b505050506040513d601f19601f820116820180604052508101906124979190613117565b6001600160a01b0316639ce953c86040518163ffffffff1660e01b81526004016020604051808303816000875af11580156124d6573d6000803e3d6000fd5b505050506040513d601f19601f820116820180604052508101906124fa9190613117565b6000838152603d60205260409081902080546001600160a01b0319166001600160a01b039390931692909217909155516125359084906132a2565b6040519081900381206001600160a01b0383168252907f187f9ad308b4b25229d086a632166f351b45905117cc3162fb9ec6873b9a9ce890602001610be5565b6000603d600061258a84805160209091012090565b81526020810191909152604001600020546001600160a01b03169050806125c457604051631b355a8760e31b815260040160405180910390fd5b919050565b6125d16129b1565b6125d96129fa565b565b6125e36129b1565b600080546001600160a01b0319166001600160a01b0392909216919091179055565b61260d6129b1565b61261682612825565b6118b68161294f565b6000805160206135df83398151915280546001190161265157604051633ee5aeb560e01b815260040160405180910390fd5b60029055565b60016000805160206135df83398151915255565b6001600160a01b038216612692576040516321cb944560e11b815260040160405180910390fd5b806000036126b357604051630d23170560e01b815260040160405180910390fd5b80603860008282546126c5919061317c565b90915550506001600160a01b038216600090815260396020526040812080548392906126f290849061317c565b9091555050604080518082019091526001600160a01b039283168152602081019182526037805460018101825560009190915290517f42a7b7dd785cd69714a189dffb3fd7d7174edc9ece837694ce50f7078f7c31ae600290920291820180546001600160a01b0319169190941617909255517f42a7b7dd785cd69714a189dffb3fd7d7174edc9ece837694ce50f7078f7c31af90910155565b6000824710156127af57604051635093740560e01b815260040160405180910390fd5b8382156127c9576000806000808785612710f1915061281d565b6040516001600160a01b038216908590600081818185875af1925050503d8060008114612812576040519150601f19603f3d011682016040523d82523d6000602084013e612817565b606091505b50909250505b509392505050565b6301c9c38063ffffffff82161180612841575063ffffffff8116155b1561286957604051633bbbd90160e21b81526301c9c380600482015260240160405180910390fd5b603a546040805163ffffffff928316815291831660208301527f55c1474264b8038534b3e34b09a3a99d1f3436634d4e34fa13cea4c33c9a832e910160405180910390a1603a805463ffffffff191663ffffffff92909216919091179055565b80603b60008282546128db919061317c565b90915550506001600160a01b0382166000908152603c60205260408120805483929061290890849061317c565b90915550506040518181526001600160a01b038316907ff4426c1412b22225874f3898e67e34c12ba628bff6d89fd87ba593927a80b4219060200160405180910390a25050565b8060000361297057604051630d23170560e01b815260040160405180910390fd5b603e5460408051918252602082018390527f3e6e3950c3fc7a0bbe5c0ded9285010d1c1ef843817fed86973510375eb07418910160405180910390a1603e55565b7ff0c57e16840df040f15088dc2f81fe391c3923bec73e23a9662efc9c229c6a0054600160401b900460ff166125d957604051631afcd79f60e31b815260040160405180910390fd5b6126576129b1565b634e487b7160e01b600052604160045260246000fd5b604080519081016001600160401b0381118282101715612a3a57612a3a612a02565b60405290565b604051601f8201601f191681016001600160401b0381118282101715612a6857612a68612a02565b604052919050565b60006001600160401b03831115612a8957612a89612a02565b612a9c601f8401601f1916602001612a40565b9050828152838383011115612ab057600080fd5b828260208301376000602084830101529392505050565b600082601f830112612ad857600080fd5b612ae783833560208501612a70565b9392505050565b600060208284031215612b0057600080fd5b81356001600160401b03811115612b1657600080fd5b612b2284828501612ac7565b949350505050565b6001600160a01b03811681146119fc57600080fd5b803563ffffffff811681146125c457600080fd5b600080600060608486031215612b6857600080fd5b8335612b7381612b2a565b9250612b8160208501612b3f565b9150604084013590509250925092565b60008060408385031215612ba457600080fd5b82356001600160401b03811115612bba57600080fd5b612bc685828601612ac7565b95602094909401359450505050565b60008083601f840112612be757600080fd5b5081356001600160401b03811115612bfe57600080fd5b6020830191508360208260051b8501011115612c1957600080fd5b9250929050565b60008060008060008060006080888a031215612c3b57600080fd5b87356001600160401b0380821115612c5257600080fd5b612c5e8b838c01612ac7565b985060208a0135915080821115612c7457600080fd5b612c808b838c01612bd5565b909850965060408a0135915080821115612c9957600080fd5b612ca58b838c01612bd5565b909650945060608a0135915080821115612cbe57600080fd5b50612ccb8a828b01612bd5565b989b979a50959850939692959293505050565b602080825282518282018190526000919060409081850190868401855b82811015612d2957815180516001600160a01b03168552860151868501529284019290850190600101612cfb565b5091979650505050505050565b600060208284031215612d4857600080fd5b8135612ae781612b2a565b600060208284031215612d6557600080fd5b5035919050565b60006001600160401b03821115612d8557612d85612a02565b5060051b60200190565b600082601f830112612da057600080fd5b81356020612db5612db083612d6c565b612a40565b82815260059290921b84018101918181019086841115612dd457600080fd5b8286015b84811015612def5780358352918301918301612dd8565b509695505050505050565b600080600060608486031215612e0f57600080fd5b83356001600160401b0380821115612e2657600080fd5b612e3287838801612ac7565b9450602091508186013581811115612e4957600080fd5b8601601f81018813612e5a57600080fd5b8035612e68612db082612d6c565b81815260059190911b8201840190848101908a831115612e8757600080fd5b928501925b82841015612eae578335612e9f81612b2a565b82529285019290850190612e8c565b96505050506040860135915080821115612ec757600080fd5b50612ed486828701612d8f565b9150509250925092565b60008060408385031215612ef157600080fd5b8235612efc81612b2a565b946020939093013593505050565b600060208284031215612f1c57600080fd5b612ae782612b3f565b60008060008060808587031215612f3b57600080fd5b84356001600160401b0380821115612f5257600080fd5b612f5e88838901612ac7565b955060208701359150612f7082612b2a565b90935060408601359080821115612f8657600080fd5b9086019060408289031215612f9a57600080fd5b612fa2612a18565b823582811115612fb157600080fd5b83019150601f82018913612fc457600080fd5b612fd389833560208501612a70565b815260209283013592810192909252509396929550929360600135925050565b80356001600160401b03811681146125c457600080fd5b60006040828403121561301c57600080fd5b50919050565b600080600080600080600080600060c08a8c03121561304057600080fd5b89356001600160401b038082111561305757600080fd5b6130638d838e01612ac7565b9a5061307160208d01612ff3565b995060408c013591508082111561308757600080fd5b6130938d838e0161300a565b985060608c01359150808211156130a957600080fd5b6130b58d838e01612bd5565b909850965060808c01359150808211156130ce57600080fd5b6130da8d838e01612bd5565b909650945060a08c01359150808211156130f357600080fd5b506131008c828d01612bd5565b915080935050809150509295985092959850929598565b60006020828403121561312957600080fd5b8151612ae781612b2a565b60006020828403121561314657600080fd5b5051919050565b634e487b7160e01b600052601160045260246000fd5b818103818111156131765761317661314d565b92915050565b808201808211156131765761317661314d565b80820281158282048414176131765761317661314d565b634e487b7160e01b600052603260045260246000fd5b6000808335601e198436030181126131d357600080fd5b8301803591506001600160401b038211156131ed57600080fd5b602001915036819003821315612c1957600080fd5b81835281816020850137506000828201602090810191909152601f909101601f19169091010190565b60608152600061323f606083018789613202565b8281036020840152613252818688613202565b9150508260408301529695505050505050565b6000600182016132775761327761314d565b5060010190565b60005b83811015613299578181015183820152602001613281565b50506000910152565b600082516132b481846020870161327e565b9190910192915050565b6000808335601e198436030181126132d557600080fd5b83016020810192503590506001600160401b038111156132f457600080fd5b803603821315612c1957600080fd5b81835260006020808501808196508560051b810191508460005b87811015612d2957828403895261333482886132be565b61333f868284613202565b9a87019a955050509084019060010161331d565b602081526000612b22602083018486613303565b606080825284519082018190526000906020906080840190828801845b828110156133a95781516001600160a01b031684529284019290840190600101613384565b5050508381038285015285518082528683019183019060005b818110156133de578351835292840192918401916001016133c2565b50506001600160a01b03861660408601529250612b22915050565b60018060a01b038416815260606020820152600083516040606084015280518060a085015261342f8160c086016020850161327e565b60209590950151608084015250506040810191909152601f91909101601f19160160c001919050565b81835260006001600160fb1b0383111561347157600080fd5b8260051b80836020870137939093016020019392505050565b81835260006020808501808196506005915085821b81018560005b88811015613511578383038a528135601e198936030181126134c657600080fd5b880186810190356001600160401b038111156134e157600080fd5b80871b36038213156134f257600080fd5b6134fd858284613458565b9b88019b94505050908501906001016134a5565b509098975050505050505050565b6001600160401b03891681526000602060a081840152893560a0840152613548818b018b6132be565b604060c086015261355d60e086018284613202565b85810360408701528a81528b9250830190506000805b8b8110156135a357833564ffffffffff8116808214613590578384fd5b8452509284019291840191600101613573565b505084810360608601526135b881898b613303565b9250505082810360808401526135cf81858761348a565b9b9a505050505050505050505056fe9b779b17422d0df92223018b32b4d1fa46e071723d6817e2486d003becc55f00a26469706673582212201f4d11483d140bad8d642e37b49db7af0db65810b20a1a6e6b8a065c25cd5c3964736f6c63430008140033",
  "deployedBytecode": "0x608060405261000c61000e565b005b7f0000000000000000000000006ab15b49ad9cb743a403850fad9e09aaa12c8f5c6001600160a01b0316330361007b576000356001600160e01b03191663278f794360e11b14610071576040516334ad5dbb60e21b815260040160405180910390fd5b610079610083565b565b6100796100b2565b6000806100933660048184610312565b8101906100a09190610352565b915091506100ae82826100c2565b5050565b6100796100bd61011d565b610155565b6100cb82610179565b6040516001600160a01b038316907fbc7cd75a20ee27fd9adebab32041f755214dbc6bffa90cc0225b39da2e5c2d3b90600090a28051156101155761011082826101f5565b505050565b6100ae61026b565b60006101507f360894a13ba1a3210667c828492db98dca3e2076cc3735a920a3ca505d382bbc546001600160a01b031690565b905090565b3660008037600080366000845af43d6000803e808015610174573d6000f35b3d6000fd5b806001600160a01b03163b6000036101b457604051634c9c8ce360e01b81526001600160a01b03821660048201526024015b60405180910390fd5b7f360894a13ba1a3210667c828492db98dca3e2076cc3735a920a3ca505d382bbc80546001600160a01b0319166001600160a01b0392909216919091179055565b6060600080846001600160a01b0316846040516102129190610422565b600060405180830381855af49150503d806000811461024d576040519150601f19603f3d011682016040523d82523d6000602084013e610252565b606091505b509150915061026285838361028a565b95945050505050565b34156100795760405163b398979f60e01b815260040160405180910390fd5b60608261029f5761029a826102e9565b6102e2565b81511580156102b657506001600160a01b0384163b155b156102df57604051639996b31560e01b81526001600160a01b03851660048201526024016101ab565b50805b9392505050565b8051156102f95780518082602001fd5b604051630a12f52160e11b815260040160405180910390fd5b6000808585111561032257600080fd5b8386111561032f57600080fd5b5050820193919092039150565b634e487b7160e01b600052604160045260246000fd5b6000806040838503121561036557600080fd5b82356001600160a01b038116811461037c57600080fd5b9150602083013567ffffffffffffffff8082111561039957600080fd5b818501915085601f8301126103ad57600080fd5b8135818111156103bf576103bf61033c565b604051601f8201601f19908116603f011681019083821181831017156103e7576103e761033c565b8160405282815288602084870101111561040057600080fd5b8260208601602083013760006020848301015280955050505050509250929050565b6000825160005b818110156104435760208186018101518583015201610429565b50600092019182525091905056fea264697066735822122027f80176059c85af4ee8751015dd9e5db167736b2eedc4be4d13ffc86fde444964736f6c63430008140033"
}