{
  "address": "0x161Cd8fD2694D220e246854E177B726D8E36971d",
  "abi": [
    {
      "type": "constructor",
      "stateMutability": "undefined",
      "payable": false,
      "inputs": []
    },
    {
      "type": "error",
      "name": "InvalidInitialization",
      "inputs": []
    },
    {
      "type": "error",
      "name": "NotInitializing",
      "inputs": []
    },
    {
      "type": "error",
      "name": "OwnableInvalidOwner",
      "inputs": [
        {
          "type": "address",
          "name": "owner"
        }
      ]
    },
    {
      "type": "error",
      "name": "OwnableUnauthorizedAccount",
      "inputs": [
        {
          "type": "address",
          "name": "account"
        }
      ]
    },
    {
      "type": "error",
      "name": "ZeroAddress",
      "inputs": []
    },
    {
      "type": "event",
      "anonymous": false,
      "name": "Initialized",
      "inputs": [
        {
          "type": "uint64",
          "name": "version",
          "indexed": false
        }
      ]
    },
    {
      "type": "event",
      "anonymous": false,
      "name": "OwnershipTransferred",
      "inputs": [
        {
          "type": "address",
          "name": "previousOwner",
          "indexed": true
        },
        {
          "type": "address",
          "name": "newOwner",
          "indexed": true
        }
      ]
    },
    {
      "type": "function",
      "name": "getEigenPodManager",
      "constant": true,
      "stateMutability": "view",
      "payable": false,
      "inputs": [],
      "outputs": [
        {
          "type": "address",
          "name": ""
        }
      ]
    },
    {
      "type": "function",
      "name": "initialize",
      "constant": false,
      "payable": false,
      "inputs": [
        {
          "type": "address",
          "name": "owner"
        },
        {
          "type": "address",
          "name": "podManager"
        },
        {
          "type": "address",
          "name": "delegationManager"
        }
      ],
      "outputs": []
    },
    {
      "type": "function",
      "name": "owner",
      "constant": true,
      "stateMutability": "view",
      "payable": false,
      "inputs": [],
      "outputs": [
        {
          "type": "address",
          "name": ""
        }
      ]
    },
    {
      "type": "function",
      "name": "renounceOwnership",
      "constant": false,
      "payable": false,
      "inputs": [],
      "outputs": []
    },
    {
      "type": "function",
      "name": "selectorToTarget",
      "constant": true,
      "stateMutability": "view",
      "payable": false,
      "inputs": [
        {
          "type": "bytes4",
          "name": "sig"
        }
      ],
      "outputs": [
        {
          "type": "address",
          "name": ""
        }
      ]
    },
    {
      "type": "function",
      "name": "transferOwnership",
      "constant": false,
      "payable": false,
      "inputs": [
        {
          "type": "address",
          "name": "newOwner"
        }
      ],
      "outputs": []
    }
  ],
  "transactionHash": "0x60ba78e3763d3159fc13122be81de8cb71ed857263dc9b76cfb859e5938649b3",
  "numDeployments": 1,
  "bytecode": "0x608060405234801561001057600080fd5b5061001961001e565b6100d0565b7ff0c57e16840df040f15088dc2f81fe391c3923bec73e23a9662efc9c229c6a00805468010000000000000000900460ff161561006e5760405163f92ee8a960e01b815260040160405180910390fd5b80546001600160401b03908116146100cd5780546001600160401b0319166001600160401b0390811782556040519081527fc7f505b2f371ae2175ee4913f4499e1f2633a7b5936321eed1cdaeb6115181d29060200160405180910390a15b50565b6107ae806100df6000396000f3fe608060405234801561001057600080fd5b50600436106100625760003560e01c80630de0c5cd14610067578063715018a6146100965780638da5cb5b146100a0578063c0c53b8b146100d0578063c664d38b146100e3578063f2fde38b146100f4575b600080fd5b61007a610075366004610642565b610107565b6040516001600160a01b03909116815260200160405180910390f35b61009e6101fd565b005b7f9016d09d72d40fdae2fd8ceac6b6234c7706214fd39c1cd1e609a0528c199300546001600160a01b031661007a565b61009e6100de366004610681565b610211565b6001546001600160a01b031661007a565b61009e6101023660046106cc565b61032d565b6001600160e01b0319811660009081526020819052604081205460ff166001816002811115610138576101386106e9565b036101505750506001546001600160a01b0316919050565b6002816002811115610164576101646106e9565b0361017c5750506002546001600160a01b0316919050565b6001546001600160a01b031663a38406a3336040516001600160e01b031960e084901b1681526001600160a01b039091166004820152602401602060405180830381865afa1580156101d2573d6000803e3d6000fd5b505050506040513d601f19601f820116820180604052508101906101f691906106ff565b9392505050565b610205610370565b61020f60006103cb565b565b7ff0c57e16840df040f15088dc2f81fe391c3923bec73e23a9662efc9c229c6a008054600160401b810460ff16159067ffffffffffffffff166000811580156102575750825b905060008267ffffffffffffffff1660011480156102745750303b155b905081158015610282575080155b156102a05760405163f92ee8a960e01b815260040160405180910390fd5b845467ffffffffffffffff1916600117855583156102ca57845460ff60401b1916600160401b1785555b6102d38861043c565b6102dd878761044d565b831561032357845460ff60401b19168555604051600181527fc7f505b2f371ae2175ee4913f4499e1f2633a7b5936321eed1cdaeb6115181d29060200160405180910390a15b5050505050505050565b610335610370565b6001600160a01b03811661036457604051631e4fbdf760e01b8152600060048201526024015b60405180910390fd5b61036d816103cb565b50565b336103a27f9016d09d72d40fdae2fd8ceac6b6234c7706214fd39c1cd1e609a0528c199300546001600160a01b031690565b6001600160a01b03161461020f5760405163118cdaa760e01b815233600482015260240161035b565b7f9016d09d72d40fdae2fd8ceac6b6234c7706214fd39c1cd1e609a0528c19930080546001600160a01b031981166001600160a01b03848116918217845560405192169182907f8be0079c531659141344cd1fd0a4f28419497f9722a3daafe3b4186f6b6457e090600090a3505050565b61044461057f565b61036d816105c8565b61045561057f565b61045e826105d0565b610467816105d0565b600180546001600160a01b038085166001600160a01b0319928316178355600280549185169190921617905560408051808201909152600b81526a637265617465506f64282960a81b60208201526104bf91906105f7565b6104ff60016040518060400160405280601a81526020017f7374616b652862797465732c62797465732c62797465733332290000000000008152506105f7565b610535600260405180604001604052806013815260200172756e64656c656761746528616464726573732960681b8152506105f7565b610558600260405180606001604052806031815260200161071d603191396105f7565b61057b60026040518060600160405280602b815260200161074e602b91396105f7565b5050565b7ff0c57e16840df040f15088dc2f81fe391c3923bec73e23a9662efc9c229c6a0054600160401b900460ff1661020f57604051631afcd79f60e31b815260040160405180910390fd5b61033561057f565b6001600160a01b03811661036d5760405163d92e233d60e01b815260040160405180910390fd5b80516020808301919091206001600160e01b031981166000908152918290526040909120805484919060ff19166001836002811115610638576106386106e9565b0217905550505050565b60006020828403121561065457600080fd5b81356001600160e01b0319811681146101f657600080fd5b6001600160a01b038116811461036d57600080fd5b60008060006060848603121561069657600080fd5b83356106a18161066c565b925060208401356106b18161066c565b915060408401356106c18161066c565b809150509250925092565b6000602082840312156106de57600080fd5b81356101f68161066c565b634e487b7160e01b600052602160045260246000fd5b60006020828403121561071157600080fd5b81516101f68161066c56fe71756575655769746864726177616c732828616464726573735b5d2c75696e743235365b5d2c61646472657373295b5d2964656c6567617465546f28616464726573732c2862797465732c75696e74323536292c6279746573333229a26469706673582212204be13bbb979a4d3e998610bbc42c415f26c70c3b69251f206a6ce8afffddf55564736f6c63430008140033",
  "deployedBytecode": "0x608060405261000c61000e565b005b7f0000000000000000000000005e8e50995d81a18236ae9afc57839cf69f60149f6001600160a01b0316330361007b576000356001600160e01b03191663278f794360e11b14610071576040516334ad5dbb60e21b815260040160405180910390fd5b610079610083565b565b6100796100b2565b6000806100933660048184610312565b8101906100a09190610352565b915091506100ae82826100c2565b5050565b6100796100bd61011d565b610155565b6100cb82610179565b6040516001600160a01b038316907fbc7cd75a20ee27fd9adebab32041f755214dbc6bffa90cc0225b39da2e5c2d3b90600090a28051156101155761011082826101f5565b505050565b6100ae61026b565b60006101507f360894a13ba1a3210667c828492db98dca3e2076cc3735a920a3ca505d382bbc546001600160a01b031690565b905090565b3660008037600080366000845af43d6000803e808015610174573d6000f35b3d6000fd5b806001600160a01b03163b6000036101b457604051634c9c8ce360e01b81526001600160a01b03821660048201526024015b60405180910390fd5b7f360894a13ba1a3210667c828492db98dca3e2076cc3735a920a3ca505d382bbc80546001600160a01b0319166001600160a01b0392909216919091179055565b6060600080846001600160a01b0316846040516102129190610422565b600060405180830381855af49150503d806000811461024d576040519150601f19603f3d011682016040523d82523d6000602084013e610252565b606091505b509150915061026285838361028a565b95945050505050565b34156100795760405163b398979f60e01b815260040160405180910390fd5b60608261029f5761029a826102e9565b6102e2565b81511580156102b657506001600160a01b0384163b155b156102df57604051639996b31560e01b81526001600160a01b03851660048201526024016101ab565b50805b9392505050565b8051156102f95780518082602001fd5b604051630a12f52160e11b815260040160405180910390fd5b6000808585111561032257600080fd5b8386111561032f57600080fd5b5050820193919092039150565b634e487b7160e01b600052604160045260246000fd5b6000806040838503121561036557600080fd5b82356001600160a01b038116811461037c57600080fd5b9150602083013567ffffffffffffffff8082111561039957600080fd5b818501915085601f8301126103ad57600080fd5b8135818111156103bf576103bf61033c565b604051601f8201601f19908116603f011681019083821181831017156103e7576103e761033c565b8160405282815288602084870101111561040057600080fd5b8260208601602083013760006020848301015280955050505050509250929050565b6000825160005b818110156104435760208186018101518583015201610429565b50600092019182525091905056fea264697066735822122027f80176059c85af4ee8751015dd9e5db167736b2eedc4be4d13ffc86fde444964736f6c63430008140033"
}