{
  "address": "0xd13469584C26c329D56176b243f0507f84Fb778A",
  "abi": [
    {
      "type": "error",
      "name": "BridgeAlreadyExists",
      "inputs": [
        {
          "type": "uint256",
          "name": "chainId"
        }
      ]
    },
    {
      "type": "error",
      "name": "ChainIdAlreadyExists",
      "inputs": [
        {
          "type": "uint256",
          "name": "chainId"
        }
      ]
    },
    {
      "type": "error",
      "name": "ChainIdNotFound",
      "inputs": [
        {
          "type": "uint256",
          "name": "chainId"
        }
      ]
    },
    {
      "type": "error",
      "name": "CrosschainBridgeNotSet",
      "inputs": []
    },
    {
      "type": "error",
      "name": "InceptionTokenAddressNotSet",
      "inputs": []
    },
    {
      "type": "error",
      "name": "IndexOutOfBounds",
      "inputs": [
        {
          "type": "uint256",
          "name": "index"
        },
        {
          "type": "uint256",
          "name": "length"
        }
      ]
    },
    {
      "type": "error",
      "name": "InvalidInitialization",
      "inputs": []
    },
    {
      "type": "error",
      "name": "LiquidityPoolNotSet",
      "inputs": []
    },
    {
      "type": "error",
      "name": "MissingOneOrMoreL2Transactions",
      "inputs": [
        {
          "type": "uint256",
          "name": "chainId"
        }
      ]
    },
    {
      "type": "error",
      "name": "MsgNotFromBridge",
      "inputs": [
        {
          "type": "address",
          "name": "caller"
        }
      ]
    },
    {
      "type": "error",
      "name": "NoAdapterAvailable",
      "inputs": [
        {
          "type": "uint256",
          "name": "_chainId"
        }
      ]
    },
    {
      "type": "error",
      "name": "NoBridgeForThisChainId",
      "inputs": [
        {
          "type": "uint256",
          "name": "chainId"
        }
      ]
    },
    {
      "type": "error",
      "name": "NoRebalancingRequired",
      "inputs": []
    },
    {
      "type": "error",
      "name": "NotInitializing",
      "inputs": []
    },
    {
      "type": "error",
      "name": "OnlyAdapter",
      "inputs": []
    },
    {
      "type": "error",
      "name": "OnlyOperator",
      "inputs": []
    },
    {
      "type": "error",
      "name": "OwnableInvalidOwner",
      "inputs": [
        {
          "type": "address",
          "name": "owner"
        }
      ]
    },
    {
      "type": "error",
      "name": "OwnableUnauthorizedAccount",
      "inputs": [
        {
          "type": "address",
          "name": "account"
        }
      ]
    },
    {
      "type": "error",
      "name": "SendAmountExceedsEthBalance",
      "inputs": [
        {
          "type": "uint256",
          "name": "amountToSend"
        }
      ]
    },
    {
      "type": "error",
      "name": "SettingZeroAddress",
      "inputs": []
    },
    {
      "type": "error",
      "name": "StakeAmountExceedsEthBalance",
      "inputs": [
        {
          "type": "uint256",
          "name": "staked"
        },
        {
          "type": "uint256",
          "name": "availableEth"
        }
      ]
    },
    {
      "type": "error",
      "name": "StakeAmountExceedsMaxTVL",
      "inputs": []
    },
    {
      "type": "error",
      "name": "TimeBeforePrevRecord",
      "inputs": [
        {
          "type": "uint256",
          "name": "timestamp"
        }
      ]
    },
    {
      "type": "error",
      "name": "TimeCannotBeInFuture",
      "inputs": [
        {
          "type": "uint256",
          "name": "timestamp"
        }
      ]
    },
    {
      "type": "error",
      "name": "TransferToLockboxFailed",
      "inputs": []
    },
    {
      "type": "event",
      "anonymous": false,
      "name": "AdapterAdded",
      "inputs": [
        {
          "type": "uint256",
          "name": "chainId",
          "indexed": true
        },
        {
          "type": "address",
          "name": "newAdapter",
          "indexed": false
        }
      ]
    },
    {
      "type": "event",
      "anonymous": false,
      "name": "ChainIdAdded",
      "inputs": [
        {
          "type": "uint256",
          "name": "chainId",
          "indexed": false
        }
      ]
    },
    {
      "type": "event",
      "anonymous": false,
      "name": "ChainIdDeleted",
      "inputs": [
        {
          "type": "uint256",
          "name": "chainId",
          "indexed": false
        },
        {
          "type": "uint256",
          "name": "index",
          "indexed": false
        }
      ]
    },
    {
      "type": "event",
      "anonymous": false,
      "name": "DefaultBridgeChanged",
      "inputs": [
        {
          "type": "address",
          "name": "prevDefaultAdapter",
          "indexed": true
        },
        {
          "type": "address",
          "name": "newDefaultAdapter",
          "indexed": true
        }
      ]
    },
    {
      "type": "event",
      "anonymous": false,
      "name": "ETHDepositedToLiquidPool",
      "inputs": [
        {
          "type": "address",
          "name": "liquidPool",
          "indexed": false
        },
        {
          "type": "uint256",
          "name": "amountETH",
          "indexed": false
        }
      ]
    },
    {
      "type": "event",
      "anonymous": false,
      "name": "ETHReceived",
      "inputs": [
        {
          "type": "address",
          "name": "sender",
          "indexed": false
        },
        {
          "type": "uint256",
          "name": "amount",
          "indexed": false
        }
      ]
    },
    {
      "type": "event",
      "anonymous": false,
      "name": "InceptionTokenChanged",
      "inputs": [
        {
          "type": "address",
          "name": "prevInceptionToken",
          "indexed": false
        },
        {
          "type": "address",
          "name": "newInceptionToken",
          "indexed": false
        }
      ]
    },
    {
      "type": "event",
      "anonymous": false,
      "name": "InceptionTokenDepositedToLockbox",
      "inputs": [
        {
          "type": "uint256",
          "name": "mintAmount",
          "indexed": false
        }
      ]
    },
    {
      "type": "event",
      "anonymous": false,
      "name": "Initialized",
      "inputs": [
        {
          "type": "uint64",
          "name": "version",
          "indexed": false
        }
      ]
    },
    {
      "type": "event",
      "anonymous": false,
      "name": "L2InfoReceived",
      "inputs": [
        {
          "type": "uint256",
          "name": "networkId",
          "indexed": true
        },
        {
          "type": "uint256",
          "name": "timestamp",
          "indexed": false
        },
        {
          "type": "uint256",
          "name": "ethBalance",
          "indexed": false
        },
        {
          "type": "uint256",
          "name": "inceptionTokenBalance",
          "indexed": false
        }
      ]
    },
    {
      "type": "event",
      "anonymous": false,
      "name": "LiqPoolChanged",
      "inputs": [
        {
          "type": "address",
          "name": "prevLiqPool",
          "indexed": false
        },
        {
          "type": "address",
          "name": "newLiqPool",
          "indexed": false
        }
      ]
    },
    {
      "type": "event",
      "anonymous": false,
      "name": "LockboxChanged",
      "inputs": [
        {
          "type": "address",
          "name": "prevLockbox",
          "indexed": false
        },
        {
          "type": "address",
          "name": "newLockbox",
          "indexed": false
        }
      ]
    },
    {
      "type": "event",
      "anonymous": false,
      "name": "OperatorChanged",
      "inputs": [
        {
          "type": "address",
          "name": "prevOperator",
          "indexed": false
        },
        {
          "type": "address",
          "name": "newOperator",
          "indexed": false
        }
      ]
    },
    {
      "type": "event",
      "anonymous": false,
      "name": "OwnershipTransferStarted",
      "inputs": [
        {
          "type": "address",
          "name": "previousOwner",
          "indexed": true
        },
        {
          "type": "address",
          "name": "newOwner",
          "indexed": true
        }
      ]
    },
    {
      "type": "event",
      "anonymous": false,
      "name": "OwnershipTransferred",
      "inputs": [
        {
          "type": "address",
          "name": "previousOwner",
          "indexed": true
        },
        {
          "type": "address",
          "name": "newOwner",
          "indexed": true
        }
      ]
    },
    {
      "type": "event",
      "anonymous": false,
      "name": "TreasuryUpdateBurn",
      "inputs": [
        {
          "type": "uint256",
          "name": "mintAmount",
          "indexed": false
        }
      ]
    },
    {
      "type": "event",
      "anonymous": false,
      "name": "TreasuryUpdateMint",
      "inputs": [
        {
          "type": "uint256",
          "name": "mintAmount",
          "indexed": false
        }
      ]
    },
    {
      "type": "function",
      "name": "MULTIPLIER",
      "constant": true,
      "stateMutability": "view",
      "payable": false,
      "inputs": [],
      "outputs": [
        {
          "type": "uint256",
          "name": ""
        }
      ]
    },
    {
      "type": "function",
      "name": "acceptOwnership",
      "constant": false,
      "payable": false,
      "inputs": [],
      "outputs": []
    },
    {
      "type": "function",
      "name": "addAdapter",
      "constant": false,
      "payable": false,
      "inputs": [
        {
          "type": "uint256",
          "name": "_chainId"
        },
        {
          "type": "address",
          "name": "_newAdapter"
        }
      ],
      "outputs": []
    },
    {
      "type": "function",
      "name": "addChainId",
      "constant": false,
      "payable": false,
      "inputs": [
        {
          "type": "uint256",
          "name": "_newChainId"
        }
      ],
      "outputs": []
    },
    {
      "type": "function",
      "name": "chainIds",
      "constant": true,
      "stateMutability": "view",
      "payable": false,
      "inputs": [
        {
          "type": "uint256",
          "name": ""
        }
      ],
      "outputs": [
        {
          "type": "uint256",
          "name": ""
        }
      ]
    },
    {
      "type": "function",
      "name": "defaultAdapter",
      "constant": true,
      "stateMutability": "view",
      "payable": false,
      "inputs": [],
      "outputs": [
        {
          "type": "address",
          "name": ""
        }
      ]
    },
    {
      "type": "function",
      "name": "deleteChainId",
      "constant": false,
      "payable": false,
      "inputs": [
        {
          "type": "uint256",
          "name": "_chainId"
        }
      ],
      "outputs": []
    },
    {
      "type": "function",
      "name": "getAdapter",
      "constant": true,
      "stateMutability": "view",
      "payable": false,
      "inputs": [
        {
          "type": "uint256",
          "name": "_chainId"
        }
      ],
      "outputs": [
        {
          "type": "address",
          "name": "adapter"
        },
        {
          "type": "bool",
          "name": "isDefault"
        }
      ]
    },
    {
      "type": "function",
      "name": "getTransactionData",
      "constant": true,
      "stateMutability": "view",
      "payable": false,
      "inputs": [
        {
          "type": "uint256",
          "name": "_chainId"
        }
      ],
      "outputs": [
        {
          "type": "tuple",
          "name": "",
          "components": [
            {
              "type": "uint256",
              "name": "timestamp"
            },
            {
              "type": "uint256",
              "name": "ethBalance"
            },
            {
              "type": "uint256",
              "name": "inceptionTokenBalance"
            }
          ]
        }
      ]
    },
    {
      "type": "function",
      "name": "handleL2Info",
      "constant": false,
      "payable": false,
      "inputs": [
        {
          "type": "uint256",
          "name": "_chainId"
        },
        {
          "type": "uint256",
          "name": "_timestamp"
        },
        {
          "type": "uint256",
          "name": "_balance"
        },
        {
          "type": "uint256",
          "name": "_totalSupply"
        }
      ],
      "outputs": []
    },
    {
      "type": "function",
      "name": "inceptionToken",
      "constant": true,
      "stateMutability": "view",
      "payable": false,
      "inputs": [],
      "outputs": [
        {
          "type": "address",
          "name": ""
        }
      ]
    },
    {
      "type": "function",
      "name": "initialize",
      "constant": false,
      "payable": false,
      "inputs": [
        {
          "type": "address",
          "name": "_inceptionToken"
        },
        {
          "type": "address",
          "name": "_lockbox"
        },
        {
          "type": "address",
          "name": "_liqPool"
        },
        {
          "type": "address",
          "name": "_defaultAdapter"
        },
        {
          "type": "address",
          "name": "_ratioFeed"
        },
        {
          "type": "address",
          "name": "_operator"
        }
      ],
      "outputs": []
    },
    {
      "type": "function",
      "name": "liqPool",
      "constant": true,
      "stateMutability": "view",
      "payable": false,
      "inputs": [],
      "outputs": [
        {
          "type": "address",
          "name": ""
        }
      ]
    },
    {
      "type": "function",
      "name": "lockboxAddress",
      "constant": true,
      "stateMutability": "view",
      "payable": false,
      "inputs": [],
      "outputs": [
        {
          "type": "address",
          "name": ""
        }
      ]
    },
    {
      "type": "function",
      "name": "operator",
      "constant": true,
      "stateMutability": "view",
      "payable": false,
      "inputs": [],
      "outputs": [
        {
          "type": "address",
          "name": ""
        }
      ]
    },
    {
      "type": "function",
      "name": "owner",
      "constant": true,
      "stateMutability": "view",
      "payable": false,
      "inputs": [],
      "outputs": [
        {
          "type": "address",
          "name": ""
        }
      ]
    },
    {
      "type": "function",
      "name": "pendingOwner",
      "constant": true,
      "stateMutability": "view",
      "payable": false,
      "inputs": [],
      "outputs": [
        {
          "type": "address",
          "name": ""
        }
      ]
    },
    {
      "type": "function",
      "name": "quoteSendEthToL2",
      "constant": true,
      "stateMutability": "view",
      "payable": false,
      "inputs": [
        {
          "type": "uint256",
          "name": "_chainId"
        },
        {
          "type": "bytes",
          "name": "_options"
        }
      ],
      "outputs": [
        {
          "type": "uint256",
          "name": "fee"
        }
      ]
    },
    {
      "type": "function",
      "name": "ratioFeed",
      "constant": true,
      "stateMutability": "view",
      "payable": false,
      "inputs": [],
      "outputs": [
        {
          "type": "address",
          "name": ""
        }
      ]
    },
    {
      "type": "function",
      "name": "renounceOwnership",
      "constant": false,
      "payable": false,
      "inputs": [],
      "outputs": []
    },
    {
      "type": "function",
      "name": "sendEthToL2",
      "constant": false,
      "stateMutability": "payable",
      "payable": true,
      "inputs": [
        {
          "type": "uint256",
          "name": "_chainId"
        },
        {
          "type": "uint256",
          "name": "_callValue"
        },
        {
          "type": "bytes",
          "name": "_options"
        }
      ],
      "outputs": []
    },
    {
      "type": "function",
      "name": "setDefaultAdapter",
      "constant": false,
      "payable": false,
      "inputs": [
        {
          "type": "address",
          "name": "_newDefaultAdapter"
        }
      ],
      "outputs": []
    },
    {
      "type": "function",
      "name": "setInceptionToken",
      "constant": false,
      "payable": false,
      "inputs": [
        {
          "type": "address",
          "name": "_inceptionToken"
        }
      ],
      "outputs": []
    },
    {
      "type": "function",
      "name": "setLiqPool",
      "constant": false,
      "payable": false,
      "inputs": [
        {
          "type": "address",
          "name": "_liqPool"
        }
      ],
      "outputs": []
    },
    {
      "type": "function",
      "name": "setLockboxAddress",
      "constant": false,
      "payable": false,
      "inputs": [
        {
          "type": "address",
          "name": "_lockboxAddress"
        }
      ],
      "outputs": []
    },
    {
      "type": "function",
      "name": "setOperator",
      "constant": false,
      "payable": false,
      "inputs": [
        {
          "type": "address",
          "name": "_operator"
        }
      ],
      "outputs": []
    },
    {
      "type": "function",
      "name": "stake",
      "constant": false,
      "payable": false,
      "inputs": [
        {
          "type": "uint256",
          "name": "_amount"
        }
      ],
      "outputs": []
    },
    {
      "type": "function",
      "name": "transferOwnership",
      "constant": false,
      "payable": false,
      "inputs": [
        {
          "type": "address",
          "name": "newOwner"
        }
      ],
      "outputs": []
    },
    {
      "type": "function",
      "name": "txs",
      "constant": true,
      "stateMutability": "view",
      "payable": false,
      "inputs": [
        {
          "type": "uint256",
          "name": ""
        }
      ],
      "outputs": [
        {
          "type": "uint256",
          "name": "timestamp"
        },
        {
          "type": "uint256",
          "name": "ethBalance"
        },
        {
          "type": "uint256",
          "name": "inceptionTokenBalance"
        }
      ]
    },
    {
      "type": "function",
      "name": "updateTreasuryData",
      "constant": false,
      "payable": false,
      "inputs": [],
      "outputs": []
    },
    {
      "type": "receive",
      "stateMutability": "payable"
    }
  ],
  "transactionHash": "0xaaba6b7d3125b4632c89372c4e71fa06fd5dc3fff036fb95ca14087ea3800968",
  "numDeployments": 1,
  "bytecode": "0x6080604052348015600f57600080fd5b506121638061001f6000396000f3fe6080604052600436106101d05760003560e01c8063734e6cad116100f7578063b3ab15fb11610095578063ddeadbb611610064578063ddeadbb614610566578063e30c3978146105a5578063f2fde38b146105ba578063f5715d56146105da57600080fd5b8063b3ab15fb146104e6578063bfab2bb614610506578063c235fb1414610526578063cc2a9a5b1461054657600080fd5b806382257e3f116100d157806382257e3f146104715780638da5cb5b146104915780638e29ebb5146104a6578063a694fc3a146104c657600080fd5b8063734e6cad1461041c578063740b91f41461043c57806379ba50971461045c57600080fd5b80633924c33c1161016f57806357039e911161013e57806357039e91146103b4578063570ca735146103c7578063582f1da2146103e7578063715018a61461040757600080fd5b80633924c33c146103125780633b24b5471461033257806350d7be5f1461037457806351eafd871461039457600080fd5b80630f3b647e116101ab5780630f3b647e146102925780631b449f06146102b257806321d93090146102d257806328ed3db6146102f257600080fd5b80625c54fc14610214578063029c9ae91461022b578063059f8b161461026857600080fd5b3661020f57604080513381523460208201527fbfe611b001dfcd411432f7bf0d79b82b4b2ee81511edac123a3403c357fb972a910160405180910390a1005b600080fd5b34801561022057600080fd5b50610229610631565b005b34801561023757600080fd5b5060015461024b906001600160a01b031681565b6040516001600160a01b0390911681526020015b60405180910390f35b34801561027457600080fd5b50610284670de0b6b3a764000081565b60405190815260200161025f565b34801561029e57600080fd5b506102296102ad366004611d4f565b6108b7565b3480156102be57600080fd5b506102296102cd366004611d7f565b610958565b3480156102de57600080fd5b506102846102ed366004611da3565b6109f0565b3480156102fe57600080fd5b5061022961030d366004611da3565b610a11565b34801561031e57600080fd5b5061022961032d366004611d7f565b610b82565b34801561033e57600080fd5b5061035261034d366004611da3565b610c1a565b604080518251815260208084015190820152918101519082015260600161025f565b34801561038057600080fd5b5061028461038f366004611dbc565b610c77565b3480156103a057600080fd5b506102296103af366004611e3a565b610d9f565b6102296103c2366004611e82565b610ee8565b3480156103d357600080fd5b5060045461024b906001600160a01b031681565b3480156103f357600080fd5b50610229610402366004611da3565b61100a565b34801561041357600080fd5b50610229611064565b34801561042857600080fd5b5060075461024b906001600160a01b031681565b34801561044857600080fd5b5060025461024b906001600160a01b031681565b34801561046857600080fd5b50610229611078565b34801561047d57600080fd5b5061022961048c366004611d7f565b6110bd565b34801561049d57600080fd5b5061024b611148565b3480156104b257600080fd5b5060035461024b906001600160a01b031681565b3480156104d257600080fd5b506102296104e1366004611da3565b61117d565b3480156104f257600080fd5b50610229610501366004611d7f565b61145f565b34801561051257600080fd5b50610229610521366004611d7f565b6114f7565b34801561053257600080fd5b5060005461024b906001600160a01b031681565b34801561055257600080fd5b50610229610561366004611f4e565b61158f565b34801561057257600080fd5b50610586610581366004611da3565b6117f0565b604080516001600160a01b03909316835290151560208301520161025f565b3480156105b157600080fd5b5061024b61181e565b3480156105c657600080fd5b506102296105d5366004611d7f565b611847565b3480156105e657600080fd5b506106166105f5366004611da3565b60056020526000908152604090208054600182015460029092015490919083565b6040805193845260208401929092529082015260600161025f565b600080600880548060200260200160405190810160405280929190818152602001828054801561068057602002820191906000526020600020905b81548152602001906001019080831161066c575b5050505050905060005b81518110156107085760008282815181106106a7576106a7611fd0565b6020026020010151905060006106bc82610c1a565b805190915082906106ec576040516335a6861360e11b81526004016106e391815260200190565b60405180910390fd5b5060408101516106fc9086611ffc565b9450505060010161068a565b5060006107136118cc565b90508281101561073a5760006107298285612015565b905061073481611942565b50610772565b8281111561075957600061074e8483612015565b905061073481611a06565b604051637bb44c2160e11b815260040160405180910390fd5b600080546040516370a0823160e01b81523060048201526001600160a01b03909116906370a0823190602401602060405180830381865afa1580156107bb573d6000803e3d6000fd5b505050506040513d601f19601f820116820180604052508101906107df9190612028565b905080156108b15760005460015460405163a9059cbb60e01b81526001600160a01b0391821660048201526024810184905291169063a9059cbb906044016020604051808303816000875af115801561083c573d6000803e3d6000fd5b505050506040513d601f19601f820116820180604052508101906108609190612041565b61087d57604051638205342760e01b815260040160405180910390fd5b6040518181527f4ae5bd787f4cd94b85a88836b5cefe362f37828a82ecd6172ae39aa907f3dec99060200160405180910390a15b50505050565b6108bf611aca565b6001600160a01b0381166108e65760405163ef945a6560e01b815260040160405180910390fd5b600082815260066020526040902080546001600160a01b0319166001600160a01b03831617905561091682611afc565b6040516001600160a01b038216815282907f36faf335eb63af51ba93e9dd185ae816d74a9bac978bc399b49b11137ecd48189060200160405180910390a25050565b610960611aca565b6001600160a01b0381166109875760405163ef945a6560e01b815260040160405180910390fd5b600254604080516001600160a01b03928316815291831660208301527ffc944a5f86de9fcfac9dd7587ad1fbfb44e832bfeddec35cad2884cab5d7da65910160405180910390a1600280546001600160a01b0319166001600160a01b0392909216919091179055565b60088181548110610a0057600080fd5b600091825260209091200154905081565b6004546001600160a01b0316331480610a425750610a2d611148565b6001600160a01b0316336001600160a01b0316145b610a5f576040516327e1f1e560e01b815260040160405180910390fd5b600080805b600854811015610aa6578360088281548110610a8257610a82611fd0565b906000526020600020015403610a9e5780925060019150610aa6565b600101610a64565b508281610ac9576040516354a5785b60e11b81526004016106e391815260200190565b5060088054610ada90600190612015565b81548110610aea57610aea611fd0565b906000526020600020015460088381548110610b0857610b08611fd0565b6000918252602090912001556008805480610b2557610b25612063565b600190038181906000526020600020016000905590557f6065156fce04c2111fb2766a72318ef9845d87e0e4eebcf9c3400d1b0d22f4228383604051610b75929190918252602082015260400190565b60405180910390a1505050565b610b8a611aca565b6001600160a01b038116610bb15760405163ef945a6560e01b815260040160405180910390fd5b600054604080516001600160a01b03928316815291831660208301527fe8282554581f4f6dcc4a6fbb857f7e89cad72736bcb699bf4205e3665b8e7066910160405180910390a1600080546001600160a01b0319166001600160a01b0392909216919091179055565b610c3e60405180606001604052806000815260200160008152602001600081525090565b50600090815260056020908152604091829020825160608101845281548152600182015492810192909252600201549181019190915290565b600080610c8385611ba5565b90506001600160a01b038116610cac57604051636389838560e11b815260040160405180910390fd5b604051638d02167d60e01b81526001600160a01b03821690638d02167d90610cda90879087906004016120a2565b602060405180830381865afa158015610cf7573d6000803e3d6000fd5b505050506040513d601f19601f82011682018060405250810190610d1b9190612028565b604051632296888760e11b81526001600160a01b0383169063452d110e90610d4b908990899089906004016120be565b602060405180830381865afa158015610d68573d6000803e3d6000fd5b505050506040513d601f19601f82011682018060405250810190610d8c9190612028565b610d969190612015565b95945050505050565b83610da981611ba5565b6001600160a01b0316336001600160a01b031614610dda576040516308ce245d60e31b815260040160405180910390fd5b8342811115610dff576040516336ce2d0f60e11b81526004016106e391815260200190565b50600085815260056020908152604091829020825160608101845281548082526001830154938201939093526002909101549281019290925215610e6557805185908111610e6357604051636e6f496160e01b81526004016106e391815260200190565b505b6040805160608082018352878252602080830188815283850188815260008c8152600584528690208551815591516001830155516002909101558351898152908101889052928301869052909188917f32d49425af41fa76a45e8ef674babb83acc4d8312d2dffe76903c97b7089249a910160405180910390a250505050505050565b6004546001600160a01b0316331480610f195750610f04611148565b6001600160a01b0316336001600160a01b0316145b610f36576040516327e1f1e560e01b815260040160405180910390fd5b6000610f4184611ba5565b90506001600160a01b038116610f6a57604051636389838560e11b815260040160405180910390fd5b47610f753485611ffc565b11158390610f9957604051636e5b995960e11b81526004016106e391815260200190565b506001600160a01b0381166335d43949610fb33486611ffc565b86856040518463ffffffff1660e01b8152600401610fd29291906120d8565b6000604051808303818588803b158015610feb57600080fd5b505af1158015610fff573d6000803e3d6000fd5b505050505050505050565b6004546001600160a01b031633148061103b5750611026611148565b6001600160a01b0316336001600160a01b0316145b611058576040516327e1f1e560e01b815260040160405180910390fd5b61106181611afc565b50565b61106c611aca565b6110766000611c01565b565b338061108261181e565b6001600160a01b0316146110b45760405163118cdaa760e01b81526001600160a01b03821660048201526024016106e3565b61106181611c01565b6110c5611aca565b6001600160a01b0381166110ec5760405163ef945a6560e01b815260040160405180910390fd5b6007546040516001600160a01b038084169216907f45d051af501a72e3e9cb0c59c70e94521b42cf1ba723cd0956bf5b8321616c4590600090a3600780546001600160a01b0319166001600160a01b0392909216919091179055565b6000807f9016d09d72d40fdae2fd8ceac6b6234c7706214fd39c1cd1e609a0528c1993005b546001600160a01b031692915050565b6004546001600160a01b03163314806111ae5750611199611148565b6001600160a01b0316336001600160a01b0316145b6111cb576040516327e1f1e560e01b815260040160405180910390fd5b6002546001600160a01b03166111f45760405163d667ca4560e01b815260040160405180910390fd5b804747821115611220576040516306836a2960e21b8152600481019290925260248201526044016106e3565b5050600260009054906101000a90046001600160a01b03166001600160a01b0316633f9085516040518163ffffffff1660e01b8152600401602060405180830381865afa158015611275573d6000803e3d6000fd5b505050506040513d601f19601f820116820180604052508101906112999190612028565b8111156112b9576040516357337ea960e01b815260040160405180910390fd5b600260009054906101000a90046001600160a01b03166001600160a01b0316633a4b66f1826040518263ffffffff1660e01b81526004016000604051808303818588803b15801561130957600080fd5b505af115801561131d573d6000803e3d6000fd5b5050600080546040516370a0823160e01b81523060048201529194506001600160a01b031692506370a082319150602401602060405180830381865afa15801561136b573d6000803e3d6000fd5b505050506040513d601f19601f8201168201806040525081019061138f9190612028565b60005460015460405163a9059cbb60e01b81526001600160a01b03918216600482015260248101849052929350169063a9059cbb906044016020604051808303816000875af11580156113e6573d6000803e3d6000fd5b505050506040513d601f19601f8201168201806040525081019061140a9190612041565b61142757604051638205342760e01b815260040160405180910390fd5b6040518181527f4ae5bd787f4cd94b85a88836b5cefe362f37828a82ecd6172ae39aa907f3dec9906020015b60405180910390a15050565b611467611aca565b6001600160a01b03811661148e5760405163ef945a6560e01b815260040160405180910390fd5b600454604080516001600160a01b03928316815291831660208301527fd58299b712891143e76310d5e664c4203c940a67db37cf856bdaa3c5c76a802c910160405180910390a1600480546001600160a01b0319166001600160a01b0392909216919091179055565b6114ff611aca565b6001600160a01b0381166115265760405163ef945a6560e01b815260040160405180910390fd5b600154604080516001600160a01b03928316815291831660208301527f224a554a3f3aadb47d65ed2efd7c15f31f83deeee4b3717ed7ade9dec75c61f6910160405180910390a1600180546001600160a01b0319166001600160a01b0392909216919091179055565b7ff0c57e16840df040f15088dc2f81fe391c3923bec73e23a9662efc9c229c6a008054600160401b810460ff16159067ffffffffffffffff166000811580156115d55750825b905060008267ffffffffffffffff1660011480156115f25750303b155b905081158015611600575080155b1561161e5760405163f92ee8a960e01b815260040160405180910390fd5b845467ffffffffffffffff19166001178555831561164857845460ff60401b1916600160401b1785555b61165133611c3d565b6001600160a01b038b166116785760405163ef945a6560e01b815260040160405180910390fd5b6001600160a01b038a1661169f5760405163ef945a6560e01b815260040160405180910390fd5b6001600160a01b0389166116c65760405163ef945a6560e01b815260040160405180910390fd5b6001600160a01b0388166116ed5760405163ef945a6560e01b815260040160405180910390fd5b6001600160a01b0387166117145760405163ef945a6560e01b815260040160405180910390fd5b6001600160a01b03861661173b5760405163ef945a6560e01b815260040160405180910390fd5b600080546001600160a01b03199081166001600160a01b038e8116919091179092556001805482168d84161790556002805482168c84161790556007805482168b84161790556003805482168a84161790556004805490911691881691909117905583156117e357845460ff60401b19168555604051600181527fc7f505b2f371ae2175ee4913f4499e1f2633a7b5936321eed1cdaeb6115181d29060200160405180910390a15b5050505050505050505050565b6000806117fc83611ba5565b6007549092506001600160a01b0390811690831603611819575060015b915091565b6000807f237e158222e3e6968b72b9db0d8043aacf074ad9f650f0d1606b4d82ee432c0061116d565b61184f611aca565b7f237e158222e3e6968b72b9db0d8043aacf074ad9f650f0d1606b4d82ee432c0080546001600160a01b0319166001600160a01b0383169081178255611893611148565b6001600160a01b03167f38d16b8cac22d99fc7c124b9cd0de2d3fa1faef420bfe791d8c362d765e2270060405160405180910390a35050565b600080546001546040516370a0823160e01b81526001600160a01b0391821660048201529116906370a0823190602401602060405180830381865afa158015611919573d6000803e3d6000fd5b505050506040513d601f19601f8201168201806040525081019061193d9190612028565b905090565b6000546001600160a01b031661196b57604051635ce3a26360e01b815260040160405180910390fd5b6000546001546040516340c10f1960e01b81526001600160a01b0391821660048201526024810184905291169081906340c10f1990604401600060405180830381600087803b1580156119bd57600080fd5b505af11580156119d1573d6000803e3d6000fd5b505050507f61f887a2f5c9e7b476f4c3dab1560bc4f01d991be63db8ab9dd0d826044ae1158260405161145391815260200190565b6000546001600160a01b0316611a2f57604051635ce3a26360e01b815260040160405180910390fd5b600054600154604051632770a7eb60e21b81526001600160a01b039182166004820152602481018490529116908190639dc29fac90604401600060405180830381600087803b158015611a8157600080fd5b505af1158015611a95573d6000803e3d6000fd5b505050507f4addf2dd216e30ceae7fd7eea5312852e3471df45182db976a324001db87c0b08260405161145391815260200190565b33611ad3611148565b6001600160a01b0316146110765760405163118cdaa760e01b81523360048201526024016106e3565b60005b600854811015611b39578160088281548110611b1d57611b1d611fd0565b906000526020600020015403611b31575050565b600101611aff565b50600880546001810182556000919091527ff3f7a9fe364faab93b216da50a3214154f22a0a2b415b23a84c8169e8b636ee3018190556040518181527f81b76ca0f2f5caf9af258fb0d9955478a105e304a99322dd21ee8f35dcb494a69060200160405180910390a150565b6000818152600660205260409020546001600160a01b031680611bd057506007546001600160a01b03165b816001600160a01b038216611bfb57604051636efcc08960e01b81526004016106e391815260200190565b50919050565b7f237e158222e3e6968b72b9db0d8043aacf074ad9f650f0d1606b4d82ee432c0080546001600160a01b0319168155611c3982611c4e565b5050565b611c45611cbf565b61106181611d08565b7f9016d09d72d40fdae2fd8ceac6b6234c7706214fd39c1cd1e609a0528c19930080546001600160a01b031981166001600160a01b03848116918217845560405192169182907f8be0079c531659141344cd1fd0a4f28419497f9722a3daafe3b4186f6b6457e090600090a3505050565b7ff0c57e16840df040f15088dc2f81fe391c3923bec73e23a9662efc9c229c6a0054600160401b900460ff1661107657604051631afcd79f60e31b815260040160405180910390fd5b611d10611cbf565b6001600160a01b0381166110b457604051631e4fbdf760e01b8152600060048201526024016106e3565b6001600160a01b038116811461106157600080fd5b60008060408385031215611d6257600080fd5b823591506020830135611d7481611d3a565b809150509250929050565b600060208284031215611d9157600080fd5b8135611d9c81611d3a565b9392505050565b600060208284031215611db557600080fd5b5035919050565b600080600060408486031215611dd157600080fd5b83359250602084013567ffffffffffffffff811115611def57600080fd5b8401601f81018613611e0057600080fd5b803567ffffffffffffffff811115611e1757600080fd5b866020828401011115611e2957600080fd5b939660209190910195509293505050565b60008060008060808587031215611e5057600080fd5b5050823594602084013594506040840135936060013592509050565b634e487b7160e01b600052604160045260246000fd5b600080600060608486031215611e9757600080fd5b8335925060208401359150604084013567ffffffffffffffff811115611ebc57600080fd5b8401601f81018613611ecd57600080fd5b803567ffffffffffffffff811115611ee757611ee7611e6c565b604051601f8201601f19908116603f0116810167ffffffffffffffff81118282101715611f1657611f16611e6c565b604052818152828201602001881015611f2e57600080fd5b816020840160208301376000602083830101528093505050509250925092565b60008060008060008060c08789031215611f6757600080fd5b8635611f7281611d3a565b95506020870135611f8281611d3a565b94506040870135611f9281611d3a565b93506060870135611fa281611d3a565b92506080870135611fb281611d3a565b915060a0870135611fc281611d3a565b809150509295509295509295565b634e487b7160e01b600052603260045260246000fd5b634e487b7160e01b600052601160045260246000fd5b8082018082111561200f5761200f611fe6565b92915050565b8181038181111561200f5761200f611fe6565b60006020828403121561203a57600080fd5b5051919050565b60006020828403121561205357600080fd5b81518015158114611d9c57600080fd5b634e487b7160e01b600052603160045260246000fd5b81835281816020850137506000828201602090810191909152601f909101601f19169091010190565b6020815260006120b6602083018486612079565b949350505050565b838152604060208201526000610d96604083018486612079565b828152604060208201526000825180604084015260005b8181101561210c57602081860181015160608684010152016120ef565b506000606082850101526060601f19601f830116840101915050939250505056fea2646970667358221220166d5ed71089b21663ee4dea6a9e63009969a7c8086debd93942bb8fae8c79b364736f6c634300081b0033",
  "deployedBytecode": "0x608060405261000c61000e565b005b7f000000000000000000000000a6f294c755ca10b951b1c89d5af512d9d3c92b4d6001600160a01b0316330361007b576000356001600160e01b03191663278f794360e11b14610071576040516334ad5dbb60e21b815260040160405180910390fd5b610079610083565b565b6100796100b2565b6000806100933660048184610312565b8101906100a09190610352565b915091506100ae82826100c2565b5050565b6100796100bd61011d565b610155565b6100cb82610179565b6040516001600160a01b038316907fbc7cd75a20ee27fd9adebab32041f755214dbc6bffa90cc0225b39da2e5c2d3b90600090a28051156101155761011082826101f5565b505050565b6100ae61026b565b60006101507f360894a13ba1a3210667c828492db98dca3e2076cc3735a920a3ca505d382bbc546001600160a01b031690565b905090565b3660008037600080366000845af43d6000803e808015610174573d6000f35b3d6000fd5b806001600160a01b03163b6000036101b457604051634c9c8ce360e01b81526001600160a01b03821660048201526024015b60405180910390fd5b7f360894a13ba1a3210667c828492db98dca3e2076cc3735a920a3ca505d382bbc80546001600160a01b0319166001600160a01b0392909216919091179055565b6060600080846001600160a01b0316846040516102129190610422565b600060405180830381855af49150503d806000811461024d576040519150601f19603f3d011682016040523d82523d6000602084013e610252565b606091505b509150915061026285838361028a565b95945050505050565b34156100795760405163b398979f60e01b815260040160405180910390fd5b60608261029f5761029a826102e9565b6102e2565b81511580156102b657506001600160a01b0384163b155b156102df57604051639996b31560e01b81526001600160a01b03851660048201526024016101ab565b50805b9392505050565b8051156102f95780518082602001fd5b604051630a12f52160e11b815260040160405180910390fd5b6000808585111561032257600080fd5b8386111561032f57600080fd5b5050820193919092039150565b634e487b7160e01b600052604160045260246000fd5b6000806040838503121561036557600080fd5b82356001600160a01b038116811461037c57600080fd5b9150602083013567ffffffffffffffff8082111561039957600080fd5b818501915085601f8301126103ad57600080fd5b8135818111156103bf576103bf61033c565b604051601f8201601f19908116603f011681019083821181831017156103e7576103e761033c565b8160405282815288602084870101111561040057600080fd5b8260208601602083013760006020848301015280955050505050509250929050565b6000825160005b818110156104435760208186018101518583015201610429565b50600092019182525091905056fea264697066735822122027f80176059c85af4ee8751015dd9e5db167736b2eedc4be4d13ffc86fde444964736f6c63430008140033"
}