{
  "address": "0x3e329e6782C7d8496DE49e79CD36D1aA592D493b",
  "abi": [
    {
      "type": "constructor",
      "stateMutability": "undefined",
      "payable": false,
      "inputs": []
    },
    {
      "type": "error",
      "name": "InvalidInitialization",
      "inputs": []
    },
    {
      "type": "error",
      "name": "NotInitializing",
      "inputs": []
    },
    {
      "type": "error",
      "name": "OnlyGovernanceAllowed",
      "inputs": []
    },
    {
      "type": "error",
      "name": "OnlyOperatorAllowed",
      "inputs": []
    },
    {
      "type": "error",
      "name": "OnlyRestakingPoolAllowed",
      "inputs": []
    },
    {
      "type": "error",
      "name": "RatioNotUpdated",
      "inputs": [
        {
          "type": "uint8",
          "name": ""
        }
      ]
    },
    {
      "type": "error",
      "name": "RatioThresholdNotInRange",
      "inputs": []
    },
    {
      "type": "event",
      "anonymous": false,
      "name": "Initialized",
      "inputs": [
        {
          "type": "uint64",
          "name": "version",
          "indexed": false
        }
      ]
    },
    {
      "type": "event",
      "anonymous": false,
      "name": "RatioThresholdChanged",
      "inputs": [
        {
          "type": "uint256",
          "name": "oldValue",
          "indexed": false
        },
        {
          "type": "uint256",
          "name": "newValue",
          "indexed": false
        }
      ]
    },
    {
      "type": "event",
      "anonymous": false,
      "name": "RatioUpdated",
      "inputs": [
        {
          "type": "address",
          "name": "tokenAddress",
          "indexed": true
        },
        {
          "type": "uint256",
          "name": "oldRatio",
          "indexed": false
        },
        {
          "type": "uint256",
          "name": "newRatio",
          "indexed": false
        }
      ]
    },
    {
      "type": "function",
      "name": "INITIAL_RATIO",
      "constant": true,
      "stateMutability": "view",
      "payable": false,
      "inputs": [],
      "outputs": [
        {
          "type": "uint256",
          "name": ""
        }
      ]
    },
    {
      "type": "function",
      "name": "MAX_THRESHOLD",
      "constant": true,
      "stateMutability": "view",
      "payable": false,
      "inputs": [],
      "outputs": [
        {
          "type": "uint32",
          "name": ""
        }
      ]
    },
    {
      "type": "function",
      "name": "averagePercentageRate",
      "constant": true,
      "stateMutability": "view",
      "payable": false,
      "inputs": [
        {
          "type": "address",
          "name": "token"
        },
        {
          "type": "uint8",
          "name": "day"
        }
      ],
      "outputs": [
        {
          "type": "uint256",
          "name": ""
        }
      ]
    },
    {
      "type": "function",
      "name": "config",
      "constant": true,
      "stateMutability": "view",
      "payable": false,
      "inputs": [],
      "outputs": [
        {
          "type": "address",
          "name": ""
        }
      ]
    },
    {
      "type": "function",
      "name": "getRatio",
      "constant": true,
      "stateMutability": "view",
      "payable": false,
      "inputs": [
        {
          "type": "address",
          "name": "token"
        }
      ],
      "outputs": [
        {
          "type": "uint256",
          "name": ""
        }
      ]
    },
    {
      "type": "function",
      "name": "historicalRatios",
      "constant": true,
      "stateMutability": "view",
      "payable": false,
      "inputs": [
        {
          "type": "address",
          "name": ""
        }
      ],
      "outputs": [
        {
          "type": "uint40",
          "name": "lastUpdate"
        }
      ]
    },
    {
      "type": "function",
      "name": "initialize",
      "constant": false,
      "payable": false,
      "inputs": [
        {
          "type": "address",
          "name": "config"
        },
        {
          "type": "uint256",
          "name": "ratioThreshold_"
        }
      ],
      "outputs": []
    },
    {
      "type": "function",
      "name": "ratioThreshold",
      "constant": true,
      "stateMutability": "view",
      "payable": false,
      "inputs": [],
      "outputs": [
        {
          "type": "uint256",
          "name": ""
        }
      ]
    },
    {
      "type": "function",
      "name": "repairRatio",
      "constant": false,
      "payable": false,
      "inputs": [
        {
          "type": "address",
          "name": "token"
        },
        {
          "type": "uint256",
          "name": "newRatio"
        }
      ],
      "outputs": []
    },
    {
      "type": "function",
      "name": "setRatioThreshold",
      "constant": false,
      "payable": false,
      "inputs": [
        {
          "type": "uint256",
          "name": "newValue"
        }
      ],
      "outputs": []
    },
    {
      "type": "function",
      "name": "updateRatio",
      "constant": false,
      "payable": false,
      "inputs": [
        {
          "type": "address",
          "name": "token"
        },
        {
          "type": "uint256",
          "name": "newRatio"
        }
      ],
      "outputs": []
    }
  ],
  "transactionHash": "0xa5a569a9a8ccec4b3e641211c88309b0ef1a73b0d4cdae608b330bbbb39e63b2",
  "numDeployments": 1,
  "bytecode": "0x608060405234801561001057600080fd5b5061001961001e565b6100d0565b7ff0c57e16840df040f15088dc2f81fe391c3923bec73e23a9662efc9c229c6a00805468010000000000000000900460ff161561006e5760405163f92ee8a960e01b815260040160405180910390fd5b80546001600160401b03908116146100cd5780546001600160401b0319166001600160401b0390811782556040519081527fc7f505b2f371ae2175ee4913f4499e1f2633a7b5936321eed1cdaeb6115181d29060200160405180910390a15b50565b610cd2806100df6000396000f3fe608060405234801561001057600080fd5b50600436106100a95760003560e01c80634898ab40116100715780634898ab40146101255780637068ca0d14610134578063754b27071461014757806379502c5514610170578063cd6dc6871461018b578063ec653c4b1461019e57600080fd5b806308af5431146100ae57806311ad2955146100d35780632364753a146100e857806327a0a544146100fb5780633be19c031461011c575b600080fd5b6100b96305f5e10081565b60405163ffffffff90911681526020015b60405180910390f35b6100e66100e1366004610ab3565b6101de565b005b6100e66100f6366004610adf565b610331565b61010e610109366004610af8565b6103e3565b6040519081526020016100ca565b61010e60345481565b61010e670de0b6b3a764000081565b6100e6610142366004610ab3565b61058e565b61010e610155366004610b37565b6001600160a01b031660009081526032602052604090205490565b6000546040516001600160a01b0390911681526020016100ca565b6100e6610199366004610ab3565b6107ff565b6101c86101ac366004610b37565b60336020526000908152604090206003015464ffffffffff1681565b60405164ffffffffff90911681526020016100ca565b60008054906101000a90046001600160a01b03166001600160a01b031663289b3c0d6040518163ffffffff1660e01b8152600401602060405180830381865afa15801561022f573d6000803e3d6000fd5b505050506040513d601f19601f820116820180604052508101906102539190610b54565b6001600160a01b0316336001600160a01b0316146102845760405163e2d4f15f60e01b815260040160405180910390fd5b670de0b6b3a7640000811180610298575080155b156102c2576003604051637e5e135360e01b81526004016102b99190610b87565b60405180910390fd5b6001600160a01b0382166000818152603260209081526040918290205482519081529081018490527f4c5c23b4efbfea6d16c8453f565e165a02a22cda9a8dc7aac0a66f91d2304da6910160405180910390a26001600160a01b03909116600090815260326020526040902055565b60008054906101000a90046001600160a01b03166001600160a01b031663289b3c0d6040518163ffffffff1660e01b8152600401602060405180830381865afa158015610382573d6000803e3d6000fd5b505050506040513d601f19601f820116820180604052508101906103a69190610b54565b6001600160a01b0316336001600160a01b0316146103d75760405163e2d4f15f60e01b815260040160405180910390fd5b6103e081610917565b50565b6000808260ff161180156103fa575060088260ff16105b6104465760405162461bcd60e51b815260206004820152601960248201527f6461792073686f756c642062652066726f6d203120746f20370000000000000060448201526064016102b9565b6001600160a01b0383166000908152603360205260408120805490916001600160401b039091169082600861047e60ff881685610bdb565b6104889190610c18565b610493906001610c3e565b6001600160401b0316600981106104ac576104ac610baf565b60048104909101546001600160401b036008600390931683026101000a90910416915060009084906104de9085610c18565b6104e9906001610c3e565b6001600160401b03166009811061050257610502610baf565b600491828204019190066008029054906101000a90046001600160401b03166001600160401b0316905080821015610541576000945050505050610588565b61054e60ff871683610c5e565b6105588284610c75565b61056b9068056bc75e2d63100000610c5e565b6105779061016d610c5e565b6105819190610c88565b9450505050505b92915050565b60008054906101000a90046001600160a01b03166001600160a01b031663e7f43c686040518163ffffffff1660e01b8152600401602060405180830381865afa1580156105df573d6000803e3d6000fd5b505050506040513d601f19601f820116820180604052508101906106039190610b54565b6001600160a01b0316336001600160a01b03161461063457604051633734611360e01b815260040160405180910390fd5b6001600160a01b03821660009081526035602090815260408083205460329092528220549091610665838584610986565b9050600081600481111561067b5761067b610b71565b1461069b5780604051637e5e135360e01b81526004016102b99190610b87565b6001600160a01b03851660008181526032602090815260409182902087905581518581529081018790527f4c5c23b4efbfea6d16c8453f565e165a02a22cda9a8dc7aac0a66f91d2304da6910160405180910390a26001600160a01b038516600090815260356020908152604080832064ffffffffff4281811690925560339093529220600381015490926201514492610736921690610c75565b11156107f75780546001600160401b031685826008610756846001610c3e565b6107609190610c18565b61076b906001610c3e565b6001600160401b03166009811061078457610784610baf565b600491828204019190066008026101000a8154816001600160401b0302191690836001600160401b031602179055508060016107c09190610c3e565b825467ffffffffffffffff19166001600160401b03919091161782555060038101805464ffffffffff19164264ffffffffff161790555b505050505050565b7ff0c57e16840df040f15088dc2f81fe391c3923bec73e23a9662efc9c229c6a008054600160401b810460ff1615906001600160401b03166000811580156108445750825b90506000826001600160401b031660011480156108605750303b155b90508115801561086e575080155b1561088c5760405163f92ee8a960e01b815260040160405180910390fd5b845467ffffffffffffffff1916600117855583156108b657845460ff60401b1916600160401b1785555b6108bf87610a25565b6108c886610a4f565b831561090e57845460ff60401b19168555604051600181527fc7f505b2f371ae2175ee4913f4499e1f2633a7b5936321eed1cdaeb6115181d29060200160405180910390a15b50505050505050565b6305f5e100811180610927575080155b1561094557604051630a57072960e01b815260040160405180910390fd5b60345460408051918252602082018390527f661e4cadf2d36ec16a59d60dcfeebe23f9be2aec99852725798a4be99790840e910160405180910390a1603455565b6000816000036109b057670de0b6b3a76400008311156109a857506004610a1e565b506000610a1e565b61a8c06109bd8542610c75565b10156109cb57506001610a1e565b818311156109db57506002610a1e565b6034546000906305f5e100906109f19085610c5e565b6109fb9190610c88565b9050610a078184610c75565b841015610a18576003915050610a1e565b60009150505b9392505050565b610a2d610a53565b600080546001600160a01b0319166001600160a01b0392909216919091179055565b6103d75b7ff0c57e16840df040f15088dc2f81fe391c3923bec73e23a9662efc9c229c6a0054600160401b900460ff16610a9c57604051631afcd79f60e31b815260040160405180910390fd5b565b6001600160a01b03811681146103e057600080fd5b60008060408385031215610ac657600080fd5b8235610ad181610a9e565b946020939093013593505050565b600060208284031215610af157600080fd5b5035919050565b60008060408385031215610b0b57600080fd5b8235610b1681610a9e565b9150602083013560ff81168114610b2c57600080fd5b809150509250929050565b600060208284031215610b4957600080fd5b8135610a1e81610a9e565b600060208284031215610b6657600080fd5b8151610a1e81610a9e565b634e487b7160e01b600052602160045260246000fd5b6020810160058310610ba957634e487b7160e01b600052602160045260246000fd5b91905290565b634e487b7160e01b600052603260045260246000fd5b634e487b7160e01b600052601160045260246000fd5b6001600160401b03828116828216039080821115610bfb57610bfb610bc5565b5092915050565b634e487b7160e01b600052601260045260246000fd5b60006001600160401b0380841680610c3257610c32610c02565b92169190910692915050565b6001600160401b03818116838216019080821115610bfb57610bfb610bc5565b808202811582820484141761058857610588610bc5565b8181038181111561058857610588610bc5565b600082610c9757610c97610c02565b50049056fea264697066735822122048bdc4de67fd085f8b8c92f08c0a998bd00c92b2dbe04709cfadbbafed7449b564736f6c63430008140033",
  "deployedBytecode": "0x608060405261000c61000e565b005b7f00000000000000000000000034742d63fc57dda07bf0142e565b6dfade6462316001600160a01b0316330361007b576000356001600160e01b03191663278f794360e11b14610071576040516334ad5dbb60e21b815260040160405180910390fd5b610079610083565b565b6100796100b2565b6000806100933660048184610312565b8101906100a09190610352565b915091506100ae82826100c2565b5050565b6100796100bd61011d565b610155565b6100cb82610179565b6040516001600160a01b038316907fbc7cd75a20ee27fd9adebab32041f755214dbc6bffa90cc0225b39da2e5c2d3b90600090a28051156101155761011082826101f5565b505050565b6100ae61026b565b60006101507f360894a13ba1a3210667c828492db98dca3e2076cc3735a920a3ca505d382bbc546001600160a01b031690565b905090565b3660008037600080366000845af43d6000803e808015610174573d6000f35b3d6000fd5b806001600160a01b03163b6000036101b457604051634c9c8ce360e01b81526001600160a01b03821660048201526024015b60405180910390fd5b7f360894a13ba1a3210667c828492db98dca3e2076cc3735a920a3ca505d382bbc80546001600160a01b0319166001600160a01b0392909216919091179055565b6060600080846001600160a01b0316846040516102129190610422565b600060405180830381855af49150503d806000811461024d576040519150601f19603f3d011682016040523d82523d6000602084013e610252565b606091505b509150915061026285838361028a565b95945050505050565b34156100795760405163b398979f60e01b815260040160405180910390fd5b60608261029f5761029a826102e9565b6102e2565b81511580156102b657506001600160a01b0384163b155b156102df57604051639996b31560e01b81526001600160a01b03851660048201526024016101ab565b50805b9392505050565b8051156102f95780518082602001fd5b604051630a12f52160e11b815260040160405180910390fd5b6000808585111561032257600080fd5b8386111561032f57600080fd5b5050820193919092039150565b634e487b7160e01b600052604160045260246000fd5b6000806040838503121561036557600080fd5b82356001600160a01b038116811461037c57600080fd5b9150602083013567ffffffffffffffff8082111561039957600080fd5b818501915085601f8301126103ad57600080fd5b8135818111156103bf576103bf61033c565b604051601f8201601f19908116603f011681019083821181831017156103e7576103e761033c565b8160405282815288602084870101111561040057600080fd5b8260208601602083013760006020848301015280955050505050509250929050565b6000825160005b818110156104435760208186018101518583015201610429565b50600092019182525091905056fea264697066735822122027f80176059c85af4ee8751015dd9e5db167736b2eedc4be4d13ffc86fde444964736f6c63430008140033"
}