{
  "address": "0x527BAA531B64BCB80cf9369DD1b1BD3CCCdDAeab",
  "abi": [
    {
      "inputs": [
        {
          "internalType": "address",
          "name": "beacon_",
          "type": "address"
        },
        {
          "internalType": "contract IRestakerFacets",
          "name": "facets_",
          "type": "address"
        }
      ],
      "stateMutability": "nonpayable",
      "type": "constructor"
    },
    {
      "inputs": [],
      "name": "Create2EmptyBytecode",
      "type": "error"
    },
    {
      "inputs": [],
      "name": "Create2FailedDeployment",
      "type": "error"
    },
    {
      "inputs": [
        {
          "internalType": "uint256",
          "name": "balance",
          "type": "uint256"
        },
        {
          "internalType": "uint256",
          "name": "needed",
          "type": "uint256"
        }
      ],
      "name": "Create2InsufficientBalance",
      "type": "error"
    },
    {
      "anonymous": false,
      "inputs": [
        {
          "indexed": true,
          "internalType": "address",
          "name": "creator",
          "type": "address"
        },
        {
          "indexed": true,
          "internalType": "contract IRestaker",
          "name": "restaker",
          "type": "address"
        },
        {
          "indexed": false,
          "internalType": "uint256",
          "name": "id",
          "type": "uint256"
        }
      ],
      "name": "RestakerDeployed",
      "type": "event"
    },
    {
      "inputs": [],
      "name": "BEACON_PROXY_BYTECODE",
      "outputs": [
        {
          "internalType": "bytes",
          "name": "",
          "type": "bytes"
        }
      ],
      "stateMutability": "view",
      "type": "function"
    },
    {
      "inputs": [],
      "name": "beacon",
      "outputs": [
        {
          "internalType": "address",
          "name": "",
          "type": "address"
        }
      ],
      "stateMutability": "view",
      "type": "function"
    },
    {
      "inputs": [],
      "name": "deployRestaker",
      "outputs": [
        {
          "internalType": "contract IRestaker",
          "name": "restaker",
          "type": "address"
        }
      ],
      "stateMutability": "nonpayable",
      "type": "function"
    },
    {
      "inputs": [],
      "name": "facets",
      "outputs": [
        {
          "internalType": "contract IRestakerFacets",
          "name": "",
          "type": "address"
        }
      ],
      "stateMutability": "view",
      "type": "function"
    },
    {
      "inputs": [
        {
          "internalType": "uint256",
          "name": "id",
          "type": "uint256"
        }
      ],
      "name": "getRestaker",
      "outputs": [
        {
          "internalType": "address",
          "name": "",
          "type": "address"
        }
      ],
      "stateMutability": "view",
      "type": "function"
    },
    {
      "inputs": [],
      "name": "nonce",
      "outputs": [
        {
          "internalType": "uint256",
          "name": "",
          "type": "uint256"
        }
      ],
      "stateMutability": "view",
      "type": "function"
    }
  ],
  "transactionHash": "0xab7e481f558295e60954bcbef09fa7bd4e5bf1f1405f1dc51f2b4be10ec196b4",
  "args": [
    "0x6892281113639621cFaac3469F0B7FC60c2A2fF0",
    "0x655cae54f8bcb718275c7719259dc359d8253C62"
  ],
  "numDeployments": 1,
  "solcInputHash": "d7f905ed178939fa2bf7403f57491127",
  "bytecode": "0x60c060405234801561001057600080fd5b50604051610b3b380380610b3b83398101604081905261002f9161005e565b6001600160a01b039182166080521660a052610098565b6001600160a01b038116811461005b57600080fd5b50565b6000806040838503121561007157600080fd5b825161007c81610046565b602084015190925061008d81610046565b809150509250929050565b60805160a051610a726100c96000396000818160b00152610151015260008181606c015261027f0152610a726000f3fe608060405234801561001057600080fd5b50600436106100625760003560e01c806359659e90146100675780637a0ed627146100ab5780639ce953c8146100d2578063affed0e0146100da578063cda3ef36146100f1578063d52fc71014610106575b600080fd5b61008e7f000000000000000000000000000000000000000000000000000000000000000081565b6040516001600160a01b0390911681526020015b60405180910390f35b61008e7f000000000000000000000000000000000000000000000000000000000000000081565b61008e610119565b6100e360005481565b6040519081526020016100a2565b6100f9610211565b6040516100a291906103db565b61008e61011436600461040e565b610236565b60008054339061013290839061012d610256565b6102ec565b60405163485cc95560e01b81526001600160a01b0383811660048301527f0000000000000000000000000000000000000000000000000000000000000000811660248301529193509083169063485cc95590604401600060405180830381600087803b1580156101a157600080fd5b505af11580156101b5573d6000803e3d6000fd5b5050600080546001600160a01b038087169450851692507f66b1c85e3aa7b590e4fcd19543377d320772af5d49300c8c50653f46253ee99f91806101f883610427565b9091555060405190815260200160405180910390a35090565b604051610220602082016103a9565b601f1982820381018352601f9091011660405281565b600061025082610244610256565b80519060200120610377565b92915050565b606060405180602001610268906103a9565b601f1982820381018352601f9091011660408181527f00000000000000000000000000000000000000000000000000000000000000006001600160a01b03166020830152808201526000606082015260800160408051601f19818403018152908290526102d8929160200161044e565b604051602081830303815290604052905090565b60008347101561031c5760405163392efb2b60e21b81524760048201526024810185905260440160405180910390fd5b815160000361033e57604051631328927760e21b815260040160405180910390fd5b8282516020840186f590506001600160a01b03811661037057604051633a0ba96160e11b815260040160405180910390fd5b9392505050565b60006103708383306000604051836040820152846020820152828152600b8101905060ff815360559020949350505050565b6105bf806200047e83390190565b60005b838110156103d25781810151838201526020016103ba565b50506000910152565b60208152600082518060208401526103fa8160408501602087016103b7565b601f01601f19169190910160400192915050565b60006020828403121561042057600080fd5b5035919050565b60006001820161044757634e487b7160e01b600052601160045260246000fd5b5060010190565b600083516104608184602088016103b7565b8351908301906104748183602088016103b7565b0194935050505056fe60a06040526040516105bf3803806105bf83398101604081905261002291610387565b61002c828261003e565b506001600160a01b031660805261047e565b610047826100fe565b6040516001600160a01b038316907f1cf3b03a6cf19fa2baba4df148e9dcabedea7f8a5c07840e207e5c089be95d3e90600090a28051156100f2576100ed826001600160a01b0316635c60da1b6040518163ffffffff1660e01b8152600401602060405180830381865afa1580156100c3573d6000803e3d6000fd5b505050506040513d601f19601f820116820180604052508101906100e79190610447565b82610211565b505050565b6100fa610288565b5050565b806001600160a01b03163b60000361013957604051631933b43b60e21b81526001600160a01b03821660048201526024015b60405180910390fd5b807fa3f0ad74e5423aebfd80d3ef4346578335a9a72aeaee59ff6cb3582b35133d5080546001600160a01b0319166001600160a01b0392831617905560408051635c60da1b60e01b81529051600092841691635c60da1b9160048083019260209291908290030181865afa1580156101b5573d6000803e3d6000fd5b505050506040513d601f19601f820116820180604052508101906101d99190610447565b9050806001600160a01b03163b6000036100fa57604051634c9c8ce360e01b81526001600160a01b0382166004820152602401610130565b6060600080846001600160a01b03168460405161022e9190610462565b600060405180830381855af49150503d8060008114610269576040519150601f19603f3d011682016040523d82523d6000602084013e61026e565b606091505b50909250905061027f8583836102a9565b95945050505050565b34156102a75760405163b398979f60e01b815260040160405180910390fd5b565b6060826102be576102b982610308565b610301565b81511580156102d557506001600160a01b0384163b155b156102fe57604051639996b31560e01b81526001600160a01b0385166004820152602401610130565b50805b9392505050565b8051156103185780518082602001fd5b604051630a12f52160e11b815260040160405180910390fd5b80516001600160a01b038116811461034857600080fd5b919050565b634e487b7160e01b600052604160045260246000fd5b60005b8381101561037e578181015183820152602001610366565b50506000910152565b6000806040838503121561039a57600080fd5b6103a383610331565b60208401519092506001600160401b03808211156103c057600080fd5b818501915085601f8301126103d457600080fd5b8151818111156103e6576103e661034d565b604051601f8201601f19908116603f0116810190838211818310171561040e5761040e61034d565b8160405282815288602084870101111561042757600080fd5b610438836020830160208801610363565b80955050505050509250929050565b60006020828403121561045957600080fd5b61030182610331565b60008251610474818460208701610363565b9190910192915050565b6080516101276104986000396000601e01526101276000f3fe6080604052600a600c565b005b60186014601a565b60a0565b565b60007f00000000000000000000000000000000000000000000000000000000000000006001600160a01b0316635c60da1b6040518163ffffffff1660e01b8152600401602060405180830381865afa1580156079573d6000803e3d6000fd5b505050506040513d601f19601f82011682018060405250810190609b919060c3565b905090565b3660008037600080366000845af43d6000803e80801560be573d6000f35b3d6000fd5b60006020828403121560d457600080fd5b81516001600160a01b038116811460ea57600080fd5b939250505056fea264697066735822122037166f4f2d476023197930b53ff67240236749f00fc39a993769be560cecebb764736f6c63430008140033a26469706673582212205282a7d1c180a1c265833ab2aaa0cf70b159f60e4305f57df6e7cd8b6e16805664736f6c63430008140033",
  "devdoc": {
    "author": "GenesisLRT",
    "errors": {
      "Create2EmptyBytecode()": [
        {
          "details": "There's no code to deploy."
        }
      ],
      "Create2FailedDeployment()": [
        {
          "details": "The deployment failed."
        }
      ],
      "Create2InsufficientBalance(uint256,uint256)": [
        {
          "details": "Not enough balance for performing a CREATE2 deploy."
        }
      ]
    },
    "kind": "dev",
    "methods": {},
    "title": "create2 deployer of {Restaker}",
    "version": 1
  },
  "userdoc": {
    "kind": "user",
    "methods": {},
    "notice": "Not upgradeable contracts makes possible to everyone deploy new instance of Restaker.",
    "version": 1
  },
  "storageLayout": {
    "storage": [
      {
        "astId": 10904,
        "contract": "contracts/restaker/RestakerDeployer.sol:RestakerDeployer",
        "label": "nonce",
        "offset": 0,
        "slot": "0",
        "type": "t_uint256"
      }
    ],
    "types": {
      "t_uint256": {
        "encoding": "inplace",
        "label": "uint256",
        "numberOfBytes": "32"
      }
    }
  }
}