{
  "address": "0xEAA6d9f33c7095218Ed9cD4f0D7FB6551A14005f",
  "abi": [
    {
      "type": "constructor",
      "stateMutability": "undefined",
      "payable": false,
      "inputs": []
    },
    {
      "type": "error",
      "name": "AmbiguousFee",
      "inputs": [
        {
          "type": "uint256",
          "name": "claimed"
        },
        {
          "type": "uint256",
          "name": "fee"
        }
      ]
    },
    {
      "type": "error",
      "name": "InvalidInitialization",
      "inputs": []
    },
    {
      "type": "error",
      "name": "NotInitializing",
      "inputs": []
    },
    {
      "type": "error",
      "name": "OnlyGovernanceAllowed",
      "inputs": []
    },
    {
      "type": "error",
      "name": "OnlyOperatorAllowed",
      "inputs": []
    },
    {
      "type": "error",
      "name": "OnlyRestakingPoolAllowed",
      "inputs": []
    },
    {
      "type": "error",
      "name": "PoolDistributeGasLimitNotInRange",
      "inputs": [
        {
          "type": "uint64",
          "name": "max"
        }
      ]
    },
    {
      "type": "error",
      "name": "PoolFailedInnerCall",
      "inputs": []
    },
    {
      "type": "error",
      "name": "PoolInsufficientBalance",
      "inputs": []
    },
    {
      "type": "error",
      "name": "PoolRestakerExists",
      "inputs": []
    },
    {
      "type": "error",
      "name": "PoolRestakerNotExists",
      "inputs": []
    },
    {
      "type": "error",
      "name": "PoolStakeAmGreaterThanAvailable",
      "inputs": []
    },
    {
      "type": "error",
      "name": "PoolStakeAmLessThanMin",
      "inputs": []
    },
    {
      "type": "error",
      "name": "PoolUnstakeAmLessThanMin",
      "inputs": []
    },
    {
      "type": "error",
      "name": "PoolWrongInputLength",
      "inputs": []
    },
    {
      "type": "error",
      "name": "PoolZeroAddress",
      "inputs": []
    },
    {
      "type": "error",
      "name": "PoolZeroAmount",
      "inputs": []
    },
    {
      "type": "error",
      "name": "ReentrancyGuardReentrantCall",
      "inputs": []
    },
    {
      "type": "event",
      "anonymous": false,
      "name": "ClaimExpected",
      "inputs": [
        {
          "type": "address",
          "name": "claimer",
          "indexed": true
        },
        {
          "type": "uint256",
          "name": "value",
          "indexed": false
        }
      ]
    },
    {
      "type": "event",
      "anonymous": false,
      "name": "Deposited",
      "inputs": [
        {
          "type": "string",
          "name": "provider",
          "indexed": true
        },
        {
          "type": "bytes[]",
          "name": "pubkeys"
        }
      ]
    },
    {
      "type": "event",
      "anonymous": false,
      "name": "DistributeGasLimitChanged",
      "inputs": [
        {
          "type": "uint32",
          "name": "prevValue",
          "indexed": false
        },
        {
          "type": "uint32",
          "name": "newValue",
          "indexed": false
        }
      ]
    },
    {
      "type": "event",
      "anonymous": false,
      "name": "FeeClaimed",
      "inputs": [
        {
          "type": "address",
          "name": "restaker",
          "indexed": true
        },
        {
          "type": "address",
          "name": "treasury",
          "indexed": true
        },
        {
          "type": "uint256",
          "name": "fee",
          "indexed": false
        },
        {
          "type": "uint256",
          "name": "totalClaimed",
          "indexed": false
        }
      ]
    },
    {
      "type": "event",
      "anonymous": false,
      "name": "Initialized",
      "inputs": [
        {
          "type": "uint64",
          "name": "version",
          "indexed": false
        }
      ]
    },
    {
      "type": "event",
      "anonymous": false,
      "name": "MaxTVLChanged",
      "inputs": [
        {
          "type": "uint256",
          "name": "prevValue",
          "indexed": false
        },
        {
          "type": "uint256",
          "name": "newValue",
          "indexed": false
        }
      ]
    },
    {
      "type": "event",
      "anonymous": false,
      "name": "MinStakeChanged",
      "inputs": [
        {
          "type": "uint256",
          "name": "prevValue",
          "indexed": false
        },
        {
          "type": "uint256",
          "name": "newValue",
          "indexed": false
        }
      ]
    },
    {
      "type": "event",
      "anonymous": false,
      "name": "MinUntakeChanged",
      "inputs": [
        {
          "type": "uint256",
          "name": "prevValue",
          "indexed": false
        },
        {
          "type": "uint256",
          "name": "newValue",
          "indexed": false
        }
      ]
    },
    {
      "type": "event",
      "anonymous": false,
      "name": "PendingUnstake",
      "inputs": [
        {
          "type": "address",
          "name": "ownerAddress",
          "indexed": true
        },
        {
          "type": "address",
          "name": "receiverAddress",
          "indexed": true
        },
        {
          "type": "uint256",
          "name": "amount",
          "indexed": false
        },
        {
          "type": "uint256",
          "name": "shares",
          "indexed": false
        }
      ]
    },
    {
      "type": "event",
      "anonymous": false,
      "name": "Received",
      "inputs": [
        {
          "type": "address",
          "name": "sender",
          "indexed": true
        },
        {
          "type": "uint256",
          "name": "amount",
          "indexed": false
        }
      ]
    },
    {
      "type": "event",
      "anonymous": false,
      "name": "ReferralStake",
      "inputs": [
        {
          "type": "bytes32",
          "name": "code",
          "indexed": true
        }
      ]
    },
    {
      "type": "event",
      "anonymous": false,
      "name": "RestakerAdded",
      "inputs": [
        {
          "type": "string",
          "name": "provider",
          "indexed": true
        },
        {
          "type": "address",
          "name": "restaker",
          "indexed": false
        }
      ]
    },
    {
      "type": "event",
      "anonymous": false,
      "name": "Staked",
      "inputs": [
        {
          "type": "address",
          "name": "staker",
          "indexed": true
        },
        {
          "type": "uint256",
          "name": "amount",
          "indexed": false
        },
        {
          "type": "uint256",
          "name": "shares",
          "indexed": false
        }
      ]
    },
    {
      "type": "event",
      "anonymous": false,
      "name": "UnstakeClaimed",
      "inputs": [
        {
          "type": "address",
          "name": "claimer",
          "indexed": true
        },
        {
          "type": "address",
          "name": "caller",
          "indexed": true
        },
        {
          "type": "uint256",
          "name": "value",
          "indexed": false
        }
      ]
    },
    {
      "type": "event",
      "anonymous": false,
      "name": "Unstaked",
      "inputs": [
        {
          "type": "address",
          "name": "from",
          "indexed": true
        },
        {
          "type": "address",
          "name": "to",
          "indexed": true
        },
        {
          "type": "uint256",
          "name": "amount",
          "indexed": false
        },
        {
          "type": "uint256",
          "name": "shares",
          "indexed": false
        }
      ]
    },
    {
      "type": "event",
      "anonymous": false,
      "name": "UnstakesDistributed",
      "inputs": [
        {
          "type": "tuple[]",
          "name": "unstakes",
          "components": [
            {
              "type": "address",
              "name": "recipient"
            },
            {
              "type": "uint256",
              "name": "amount"
            }
          ]
        }
      ]
    },
    {
      "type": "function",
      "name": "CALL_GAS_LIMIT",
      "constant": true,
      "stateMutability": "view",
      "payable": false,
      "inputs": [],
      "outputs": [
        {
          "type": "uint256",
          "name": ""
        }
      ]
    },
    {
      "type": "function",
      "name": "activateRestaking",
      "constant": false,
      "payable": false,
      "inputs": [
        {
          "type": "string",
          "name": "provider"
        }
      ],
      "outputs": []
    },
    {
      "type": "function",
      "name": "addRestaker",
      "constant": false,
      "payable": false,
      "inputs": [
        {
          "type": "string",
          "name": "provider"
        }
      ],
      "outputs": []
    },
    {
      "type": "function",
      "name": "availableToStake",
      "constant": true,
      "stateMutability": "view",
      "payable": false,
      "inputs": [],
      "outputs": [
        {
          "type": "uint256",
          "name": ""
        }
      ]
    },
    {
      "type": "function",
      "name": "batchDeposit",
      "constant": false,
      "payable": false,
      "inputs": [
        {
          "type": "string",
          "name": "provider"
        },
        {
          "type": "bytes[]",
          "name": "pubkeys"
        },
        {
          "type": "bytes[]",
          "name": "signatures"
        },
        {
          "type": "bytes32[]",
          "name": "deposit_data_roots"
        }
      ],
      "outputs": []
    },
    {
      "type": "function",
      "name": "claimRestaker",
      "constant": false,
      "payable": false,
      "inputs": [
        {
          "type": "string",
          "name": "provider"
        },
        {
          "type": "uint256",
          "name": "fee"
        }
      ],
      "outputs": []
    },
    {
      "type": "function",
      "name": "claimUnstake",
      "constant": false,
      "payable": false,
      "inputs": [
        {
          "type": "address",
          "name": "claimer"
        }
      ],
      "outputs": []
    },
    {
      "type": "function",
      "name": "claimableOf",
      "constant": true,
      "stateMutability": "view",
      "payable": false,
      "inputs": [
        {
          "type": "address",
          "name": "claimer"
        }
      ],
      "outputs": [
        {
          "type": "uint256",
          "name": ""
        }
      ]
    },
    {
      "type": "function",
      "name": "config",
      "constant": true,
      "stateMutability": "view",
      "payable": false,
      "inputs": [],
      "outputs": [
        {
          "type": "address",
          "name": ""
        }
      ]
    },
    {
      "type": "function",
      "name": "delegateTo",
      "constant": false,
      "payable": false,
      "inputs": [
        {
          "type": "string",
          "name": "provider"
        },
        {
          "type": "address",
          "name": "elOperator"
        },
        {
          "type": "tuple",
          "name": "approverSignatureAndExpiry",
          "components": [
            {
              "type": "bytes",
              "name": "signature"
            },
            {
              "type": "uint256",
              "name": "expiry"
            }
          ]
        },
        {
          "type": "bytes32",
          "name": "approverSalt"
        }
      ],
      "outputs": []
    },
    {
      "type": "function",
      "name": "distributeUnstakes",
      "constant": false,
      "payable": false,
      "inputs": [],
      "outputs": []
    },
    {
      "type": "function",
      "name": "getMinStake",
      "constant": true,
      "stateMutability": "view",
      "payable": false,
      "inputs": [],
      "outputs": [
        {
          "type": "uint256",
          "name": "amount"
        }
      ]
    },
    {
      "type": "function",
      "name": "getMinUnstake",
      "constant": true,
      "stateMutability": "view",
      "payable": false,
      "inputs": [],
      "outputs": [
        {
          "type": "uint256",
          "name": "shares"
        }
      ]
    },
    {
      "type": "function",
      "name": "getPending",
      "constant": true,
      "stateMutability": "view",
      "payable": false,
      "inputs": [],
      "outputs": [
        {
          "type": "uint256",
          "name": ""
        }
      ]
    },
    {
      "type": "function",
      "name": "getRestaker",
      "constant": true,
      "stateMutability": "view",
      "payable": false,
      "inputs": [
        {
          "type": "string",
          "name": "provider"
        }
      ],
      "outputs": [
        {
          "type": "address",
          "name": ""
        }
      ]
    },
    {
      "type": "function",
      "name": "getTotalClaimable",
      "constant": true,
      "stateMutability": "view",
      "payable": false,
      "inputs": [],
      "outputs": [
        {
          "type": "uint256",
          "name": ""
        }
      ]
    },
    {
      "type": "function",
      "name": "getTotalPendingUnstakes",
      "constant": true,
      "stateMutability": "view",
      "payable": false,
      "inputs": [],
      "outputs": [
        {
          "type": "uint256",
          "name": ""
        }
      ]
    },
    {
      "type": "function",
      "name": "getTotalUnstakesOf",
      "constant": true,
      "stateMutability": "view",
      "payable": false,
      "inputs": [
        {
          "type": "address",
          "name": "recipient"
        }
      ],
      "outputs": [
        {
          "type": "uint256",
          "name": ""
        }
      ]
    },
    {
      "type": "function",
      "name": "getUnstakes",
      "constant": true,
      "stateMutability": "view",
      "payable": false,
      "inputs": [],
      "outputs": [
        {
          "type": "tuple[]",
          "name": "unstakes",
          "components": [
            {
              "type": "address",
              "name": "recipient"
            },
            {
              "type": "uint256",
              "name": "amount"
            }
          ]
        }
      ]
    },
    {
      "type": "function",
      "name": "getUnstakesOf",
      "constant": true,
      "stateMutability": "view",
      "payable": false,
      "inputs": [
        {
          "type": "address",
          "name": "recipient"
        }
      ],
      "outputs": [
        {
          "type": "tuple[]",
          "name": "unstakes",
          "components": [
            {
              "type": "address",
              "name": "recipient"
            },
            {
              "type": "uint256",
              "name": "amount"
            }
          ]
        }
      ]
    },
    {
      "type": "function",
      "name": "hasClaimable",
      "constant": true,
      "stateMutability": "view",
      "payable": false,
      "inputs": [
        {
          "type": "address",
          "name": "claimer"
        }
      ],
      "outputs": [
        {
          "type": "bool",
          "name": ""
        }
      ]
    },
    {
      "type": "function",
      "name": "initialize",
      "constant": false,
      "payable": false,
      "inputs": [
        {
          "type": "address",
          "name": "config"
        },
        {
          "type": "uint32",
          "name": "distributeGasLimit"
        },
        {
          "type": "uint256",
          "name": "maxTVL"
        }
      ],
      "outputs": []
    },
    {
      "type": "function",
      "name": "recoverTokens",
      "constant": false,
      "payable": false,
      "inputs": [
        {
          "type": "string",
          "name": "provider"
        },
        {
          "type": "address[]",
          "name": "tokenList"
        },
        {
          "type": "uint256[]",
          "name": "amountsToWithdraw"
        }
      ],
      "outputs": []
    },
    {
      "type": "function",
      "name": "setDistributeGasLimit",
      "constant": false,
      "payable": false,
      "inputs": [
        {
          "type": "uint32",
          "name": "newValue"
        }
      ],
      "outputs": []
    },
    {
      "type": "function",
      "name": "setMaxTVL",
      "constant": false,
      "payable": false,
      "inputs": [
        {
          "type": "uint256",
          "name": "newValue"
        }
      ],
      "outputs": []
    },
    {
      "type": "function",
      "name": "setMinStake",
      "constant": false,
      "payable": false,
      "inputs": [
        {
          "type": "uint256",
          "name": "newValue"
        }
      ],
      "outputs": []
    },
    {
      "type": "function",
      "name": "setMinUnstake",
      "constant": false,
      "payable": false,
      "inputs": [
        {
          "type": "uint256",
          "name": "newValue"
        }
      ],
      "outputs": []
    },
    {
      "type": "function",
      "name": "stake",
      "constant": false,
      "stateMutability": "payable",
      "payable": true,
      "inputs": [],
      "outputs": []
    },
    {
      "type": "function",
      "name": "stake",
      "constant": false,
      "stateMutability": "payable",
      "payable": true,
      "inputs": [
        {
          "type": "bytes32",
          "name": "code"
        }
      ],
      "outputs": []
    },
    {
      "type": "function",
      "name": "unstake",
      "constant": false,
      "payable": false,
      "inputs": [
        {
          "type": "address",
          "name": "to"
        },
        {
          "type": "uint256",
          "name": "shares"
        }
      ],
      "outputs": []
    },
    {
      "type": "function",
      "name": "verifyWithdrawalCredentials",
      "constant": false,
      "payable": false,
      "inputs": [
        {
          "type": "string",
          "name": "provider"
        },
        {
          "type": "uint64",
          "name": "oracleTimestamp"
        },
        {
          "type": "tuple",
          "name": "stateRootProof",
          "components": [
            {
              "type": "bytes32",
              "name": "beaconStateRoot"
            },
            {
              "type": "bytes",
              "name": "proof"
            }
          ]
        },
        {
          "type": "uint40[]",
          "name": "validatorIndices"
        },
        {
          "type": "bytes[]",
          "name": "validatorFieldsProofs"
        },
        {
          "type": "bytes32[][]",
          "name": "validatorFields"
        }
      ],
      "outputs": []
    },
    {
      "type": "function",
      "name": "withdrawBeforeRestaking",
      "constant": false,
      "payable": false,
      "inputs": [
        {
          "type": "string",
          "name": "provider"
        }
      ],
      "outputs": []
    },
    {
      "type": "function",
      "name": "withdrawNonBeaconChainETHBalanceWei",
      "constant": false,
      "payable": false,
      "inputs": [
        {
          "type": "string",
          "name": "provider"
        },
        {
          "type": "uint256",
          "name": "amountToWithdraw"
        }
      ],
      "outputs": []
    },
    {
      "type": "receive",
      "stateMutability": "payable"
    }
  ],
  "transactionHash": "0x6fcfab1784dc615b4eebf081289c9ea1782e6347e03fe3a9ca8f7ae208dfb1bb",
  "numDeployments": 1,
  "bytecode": "0x60806040523480156200001157600080fd5b506200001c62000022565b620000d6565b7ff0c57e16840df040f15088dc2f81fe391c3923bec73e23a9662efc9c229c6a00805468010000000000000000900460ff1615620000735760405163f92ee8a960e01b815260040160405180910390fd5b80546001600160401b0390811614620000d35780546001600160401b0319166001600160401b0390811782556040519081527fc7f505b2f371ae2175ee4913f4499e1f2633a7b5936321eed1cdaeb6115181d29060200160405180910390a15b50565b61382980620000e66000396000f3fe6080604052600436106101f25760003560e01c80638903ab9d1161010d578063d11531da116100a0578063e6a497331161006f578063e6a49733146105bf578063eea4684d146105df578063f21748ad146105ff578063fa57d0021461061f578063fb8fa2901461063457600080fd5b8063d11531da1461053f578063d50b810d1461055f578063d95edac91461057f578063dc835d6b1461059f57600080fd5b8063b3870ef7116100dc578063b3870ef7146104b6578063bc782927146104d6578063c0d64a871461050c578063c2a672e01461051f57600080fd5b80638903ab9d1461042a5780638c80fd90146104605780638e59fbf614610480578063ad72cc351461049657600080fd5b806356a3b5fa1161018557806378288a381161015457806378288a381461036e57806379502c55146103905780637cf3d51e146103c2578063845b91501461040a57600080fd5b806356a3b5fa146103045780635f4aa38d146103195780636180c6091461033957806370131f4d1461034e57600080fd5b8063126d5df6116101c1578063126d5df6146102b25780633a4b66f1146102c75780633f908551146102cf57806348abd196146102e457600080fd5b8063034c4454146102335780630359cc221461025b5780630f19aaef1461027d57806311ae9ed21461029d57600080fd5b3661022e5760405134815233907f88a5966d370b9919b20f3e2c13ff65706f196a4e32cc2c12bf57088f885258749060200160405180910390a2005b600080fd5b34801561023f57600080fd5b50610248610654565b6040519081526020015b60405180910390f35b34801561026757600080fd5b5061027b610276366004612c1c565b6107bf565b005b34801561028957600080fd5b5061027b610298366004612c81565b6108c9565b3480156102a957600080fd5b506102486109eb565b3480156102be57600080fd5b50603854610248565b61027b610a1a565b3480156102db57600080fd5b50610248610c12565b3480156102f057600080fd5b5061027b6102ff366004612cbf565b610d11565b34801561031057600080fd5b50610248610e2a565b34801561032557600080fd5b5061027b610334366004612d4e565b610f27565b34801561034557600080fd5b50603b54610248565b34801561035a57600080fd5b5061027b610369366004612c1c565b611196565b34801561037a57600080fd5b50610383611284565b6040516102529190612e0c565b34801561039c57600080fd5b506000546001600160a01b03165b6040516001600160a01b039091168152602001610252565b3480156103ce57600080fd5b506103fa6103dd366004612e64565b6001600160a01b03166000908152603c6020526040902054151590565b6040519015158152602001610252565b34801561041657600080fd5b5061027b610425366004612e81565b611388565b34801561043657600080fd5b50610248610445366004612e64565b6001600160a01b03166000908152603c602052604090205490565b34801561046c57600080fd5b5061027b61047b366004612e81565b61146f565b34801561048c57600080fd5b5061024861271081565b3480156104a257600080fd5b506103aa6104b1366004612edb565b611556565b3480156104c257600080fd5b5061027b6104d1366004612faa565b6115be565b3480156104e257600080fd5b506102486104f1366004612e64565b6001600160a01b031660009081526039602052604090205490565b61027b61051a366004612e81565b611741565b34801561052b57600080fd5b5061027b61053a36600461308e565b611777565b34801561054b57600080fd5b5061027b61055a366004612e64565b611978565b34801561056b57600080fd5b5061027b61057a3660046130ba565b611abd565b34801561058b57600080fd5b5061027b61059a366004613105565b611d21565b3480156105ab57600080fd5b5061027b6105ba366004613120565b611dd0565b3480156105cb57600080fd5b506103836105da366004612e64565b611eed565b3480156105eb57600080fd5b5061027b6105fa36600461321d565b612050565b34801561060b57600080fd5b5061027b61061a366004612e81565b61217c565b34801561062b57600080fd5b5061027b61222b565b34801561064057600080fd5b5061027b61064f366004612c1c565b61246c565b6000806106696000546001600160a01b031690565b6001600160a01b031663ec6c350c6040518163ffffffff1660e01b8152600401602060405180830381865afa1580156106a6573d6000803e3d6000fd5b505050506040513d601f19601f820116820180604052508101906106ca9190613312565b604051600162e422bd60e01b03198152600160048201529091506000906001600160a01b0383169063c6e6f59290829063ff1bdd4390602401602060405180830381865afa158015610720573d6000803e3d6000fd5b505050506040513d601f19601f82011682018060405250810190610744919061332f565b6040518263ffffffff1660e01b815260040161076291815260200190565b602060405180830381865afa15801561077f573d6000803e3d6000fd5b505050506040513d601f19601f820116820180604052508101906107a3919061332f565b905080603354116107b457806107b8565b6033545b9250505090565b60008054906101000a90046001600160a01b03166001600160a01b031663e7f43c686040518163ffffffff1660e01b8152600401602060405180830381865afa158015610810573d6000803e3d6000fd5b505050506040513d601f19601f820116820180604052508101906108349190613312565b6001600160a01b0316336001600160a01b03161461086557604051633734611360e01b815260040160405180910390fd5b60006108708261269e565b9050806001600160a01b0316630cd4649e6040518163ffffffff1660e01b8152600401600060405180830381600087803b1580156108ad57600080fd5b505af11580156108c1573d6000803e3d6000fd5b505050505050565b7ff0c57e16840df040f15088dc2f81fe391c3923bec73e23a9662efc9c229c6a008054600160401b810460ff1615906001600160401b031660008115801561090e5750825b90506000826001600160401b0316600114801561092a5750303b155b905081158015610938575080155b156109565760405163f92ee8a960e01b815260040160405180910390fd5b845467ffffffffffffffff19166001178555831561098057845460ff60401b1916600160401b1785555b6109886126f2565b61099188612702565b61099b878761272c565b83156109e157845460ff60401b19168555604051600181527fc7f505b2f371ae2175ee4913f4499e1f2633a7b5936321eed1cdaeb6115181d29060200160405180910390a15b5050505050505050565b600047816109f8603b5490565b905081811115610a0b5760009250505090565b6107b8818361335e565b505090565b34610a23610e2a565b811015610a435760405163273d2bdb60e21b815260040160405180910390fd5b610a4b610c12565b811115610a6b57604051633175986360e21b815260040160405180910390fd5b600080546001600160a01b03166001600160a01b031663ec6c350c6040518163ffffffff1660e01b8152600401602060405180830381865afa158015610ab5573d6000803e3d6000fd5b505050506040513d601f19601f82011682018060405250810190610ad99190613312565b6040516363737ac960e11b8152600481018490529091506000906001600160a01b0383169063c6e6f59290602401602060405180830381865afa158015610b24573d6000803e3d6000fd5b505050506040513d601f19601f82011682018060405250810190610b48919061332f565b90506001600160a01b0382166340c10f19336040516001600160e01b031960e084901b1681526001600160a01b03909116600482015260248101849052604401600060405180830381600087803b158015610ba257600080fd5b505af1158015610bb6573d6000803e3d6000fd5b505050508260346000828254610bcc9190613371565b9091555050604080518481526020810183905233917f1449c6dd7851abc30abf37f57715f492010519147cc2652fbc38202c18a6ee9091015b60405180910390a2505050565b600080610c276000546001600160a01b031690565b6001600160a01b031663ec6c350c6040518163ffffffff1660e01b8152600401602060405180830381865afa158015610c64573d6000803e3d6000fd5b505050506040513d601f19601f82011682018060405250810190610c889190613312565b6001600160a01b03166301e1d1146040518163ffffffff1660e01b8152600401602060405180830381865afa158015610cc5573d6000803e3d6000fd5b505050506040513d601f19601f82011682018060405250810190610ce9919061332f565b9050603e54811115610cfd57600091505090565b80603e54610d0b919061335e565b91505090565b60008054906101000a90046001600160a01b03166001600160a01b031663e7f43c686040518163ffffffff1660e01b8152600401602060405180830381865afa158015610d62573d6000803e3d6000fd5b505050506040513d601f19601f82011682018060405250810190610d869190613312565b6001600160a01b0316336001600160a01b031614610db757604051633734611360e01b815260040160405180910390fd5b6000610dc28361269e565b60405163e2c8344560e01b8152306004820152602481018490529091506001600160a01b0382169063e2c8344590604401600060405180830381600087803b158015610e0d57600080fd5b505af1158015610e21573d6000803e3d6000fd5b50505050505050565b600080610e3f6000546001600160a01b031690565b6001600160a01b031663ec6c350c6040518163ffffffff1660e01b8152600401602060405180830381865afa158015610e7c573d6000803e3d6000fd5b505050506040513d601f19601f82011682018060405250810190610ea09190613312565b604051600162e422bd60e01b03198152600160048201526001600160a01b03919091169063ff1bdd4390602401602060405180830381865afa158015610eea573d6000803e3d6000fd5b505050506040513d601f19601f82011682018060405250810190610f0e919061332f565b90508060325411610f1f5780610d0b565b505060325490565b60008054906101000a90046001600160a01b03166001600160a01b031663e7f43c686040518163ffffffff1660e01b8152600401602060405180830381865afa158015610f78573d6000803e3d6000fd5b505050506040513d601f19601f82011682018060405250810190610f9c9190613312565b6001600160a01b0316336001600160a01b031614610fcd57604051633734611360e01b815260040160405180910390fd5b610fd5612746565b848381141580610fe55750808214155b15611003576040516367af08e760e11b815260040160405180910390fd5b611016816801bc16d674ec800000613384565b47101561103657604051635093740560e01b815260040160405180910390fd5b60006110418961269e565b905060005b8281101561112d57816001600160a01b0316639b4e46346801bc16d674ec8000008b8b858181106110795761107961339b565b905060200281019061108b91906133b1565b8b8b8781811061109d5761109d61339b565b90506020028101906110af91906133b1565b8b8b898181106110c1576110c161339b565b905060200201356040518763ffffffff1660e01b81526004016110e8959493929190613420565b6000604051808303818588803b15801561110157600080fd5b505af1158015611115573d6000803e3d6000fd5b505050505080806111259061345a565b915050611046565b508860405161113c9190613497565b60405180910390207f82893d4437db377df0abca554a4a9ef54de226c99efe74077b214d6d3390e7dd8989604051611175929190613548565b60405180910390a25050610e2160016000805160206137d483398151915255565b60008054906101000a90046001600160a01b03166001600160a01b031663e7f43c686040518163ffffffff1660e01b8152600401602060405180830381865afa1580156111e7573d6000803e3d6000fd5b505050506040513d601f19601f8201168201806040525081019061120b9190613312565b6001600160a01b0316336001600160a01b03161461123c57604051633734611360e01b815260040160405180910390fd5b60006112478261269e565b9050806001600160a01b031663baa7145a6040518163ffffffff1660e01b8152600401600060405180830381600087803b1580156108ad57600080fd5b6036546037546060916112969161335e565b6001600160401b038111156112ad576112ad612b30565b6040519080825280602002602001820160405280156112f257816020015b60408051808201909152600080825260208201528152602001906001900390816112cb5790505b506036549091506000905b603754811015610a15576037818154811061131a5761131a61339b565b60009182526020918290206040805180820190915260029092020180546001600160a01b03168252600101549181019190915283836113588161345a565b94508151811061136a5761136a61339b565b602002602001018190525080806113809061345a565b9150506112fd565b60008054906101000a90046001600160a01b03166001600160a01b031663289b3c0d6040518163ffffffff1660e01b8152600401602060405180830381865afa1580156113d9573d6000803e3d6000fd5b505050506040513d601f19601f820116820180604052508101906113fd9190613312565b6001600160a01b0316336001600160a01b03161461142e5760405163e2d4f15f60e01b815260040160405180910390fd5b60335460408051918252602082018390527f8bdf1717dd354dbbe463f6106e79cd3ab4553f582ea47512f268d9470fc93609910160405180910390a1603355565b60008054906101000a90046001600160a01b03166001600160a01b031663289b3c0d6040518163ffffffff1660e01b8152600401602060405180830381865afa1580156114c0573d6000803e3d6000fd5b505050506040513d601f19601f820116820180604052508101906114e49190613312565b6001600160a01b0316336001600160a01b0316146115155760405163e2d4f15f60e01b815260040160405180910390fd5b60325460408051918252602082018390527fca11c8a4c461b60c9f485404c272650c2aaae260b2067d72e9924abb68556593910160405180910390a1603255565b6000603d600061159b85858080601f01602080910402602001604051908101604052809392919081815260200183838082843760009201919091525061279292505050565b81526020810191909152604001600020546001600160a01b031690505b92915050565b60008054906101000a90046001600160a01b03166001600160a01b031663e7f43c686040518163ffffffff1660e01b8152600401602060405180830381865afa15801561160f573d6000803e3d6000fd5b505050506040513d601f19601f820116820180604052508101906116339190613312565b6001600160a01b0316336001600160a01b03161461166457604051633734611360e01b815260040160405180910390fd5b600061166f8461269e565b9050806001600160a01b031663dda3346c84846116946000546001600160a01b031690565b6001600160a01b031663e7f43c686040518163ffffffff1660e01b8152600401602060405180830381865afa1580156116d1573d6000803e3d6000fd5b505050506040513d601f19601f820116820180604052508101906116f59190613312565b6040518463ffffffff1660e01b81526004016117139392919061355c565b600060405180830381600087803b15801561172d57600080fd5b505af11580156109e1573d6000803e3d6000fd5b611749610a1a565b60405181907f8c355e502e4eade8ac341bcb08dcfca0ae238efe6431e5a63b75be9026d9163b90600090a250565b61177f612746565b611787610654565b8110156117a7576040516307bd37ff60e01b815260040160405180910390fd5b600080543391906001600160a01b03166001600160a01b031663ec6c350c6040518163ffffffff1660e01b8152600401602060405180830381865afa1580156117f4573d6000803e3d6000fd5b505050506040513d601f19601f820116820180604052508101906118189190613312565b604051600162e422bd60e01b03198152600481018590529091506000906001600160a01b0383169063ff1bdd4390602401602060405180830381865afa158015611866573d6000803e3d6000fd5b505050506040513d601f19601f8201168201806040525081019061188a919061332f565b604051632770a7eb60e21b81526001600160a01b0385811660048301526024820187905291925090831690639dc29fac90604401600060405180830381600087803b1580156118d857600080fd5b505af11580156118ec573d6000803e3d6000fd5b505050506118fa858261279d565b806035600082825461190c9190613371565b909155505060408051828152602081018690526001600160a01b0380881692908616917f06cc7e90b4f2b554a9614b0caa84f909f3498c820ae47c731f490c28c07f7d3b910160405180910390a350505061197460016000805160206137d483398151915255565b5050565b611980612746565b6001600160a01b0381166119a7576040516321cb944560e11b815260040160405180910390fd5b6001600160a01b0381166000908152603c6020526040812054908190036119e157604051630d23170560e01b815260040160405180910390fd5b603b54471015611a0457604051635093740560e01b815260040160405180910390fd5b80603b6000828254611a16919061335e565b90915550506001600160a01b0382166000908152603c60205260408120819055611a418383836128be565b905080611a6157604051634dbb90c960e01b815260040160405180910390fd5b60405182815233906001600160a01b038516907febc6a30f46090cafd1f043241dbc148c4310b7026aae29ff950ea25a5411879b9060200160405180910390a35050611aba60016000805160206137d483398151915255565b50565b60008054906101000a90046001600160a01b03166001600160a01b031663e7f43c686040518163ffffffff1660e01b8152600401602060405180830381865afa158015611b0e573d6000803e3d6000fd5b505050506040513d601f19601f82011682018060405250810190611b329190613312565b6001600160a01b0316336001600160a01b031614611b6357604051633734611360e01b815260040160405180910390fd5b6000611ba484848080601f01602080910402602001604051908101604052809392919081815260200183838082843760009201919091525061269e92505050565b90506000479050816001600160a01b031663ef8cdf7c6040518163ffffffff1660e01b8152600401600060405180830381600087803b158015611be657600080fd5b505af1158015611bfa573d6000803e3d6000fd5b5050505060008147611c0c919061335e565b905080841115611c3e57604051634f274ad560e11b815260048101829052602481018590526044015b60405180910390fd5b600080546001600160a01b03166001600160a01b0316633b19e84a6040518163ffffffff1660e01b8152600401602060405180830381865afa158015611c88573d6000803e3d6000fd5b505050506040513d601f19601f82011682018060405250810190611cac9190613312565b90508415611cc257611cc0818660006128be565b505b806001600160a01b0316846001600160a01b03167f2ee827557318e24ad8fdb9f616bbfd73b44656ea23439623780d719c369f0c1d8785604051611d10929190918252602082015260400190565b60405180910390a350505050505050565b60008054906101000a90046001600160a01b03166001600160a01b031663289b3c0d6040518163ffffffff1660e01b8152600401602060405180830381865afa158015611d72573d6000803e3d6000fd5b505050506040513d601f19601f82011682018060405250810190611d969190613312565b6001600160a01b0316336001600160a01b031614611dc75760405163e2d4f15f60e01b815260040160405180910390fd5b611aba81612957565b60008054906101000a90046001600160a01b03166001600160a01b031663e7f43c686040518163ffffffff1660e01b8152600401602060405180830381865afa158015611e21573d6000803e3d6000fd5b505050506040513d601f19601f82011682018060405250810190611e459190613312565b6001600160a01b0316336001600160a01b031614611e7657604051633734611360e01b815260040160405180910390fd5b6000611e818561269e565b60405163eea9064b60e01b81529091506001600160a01b0382169063eea9064b90611eb4908790879087906004016135ee565b600060405180830381600087803b158015611ece57600080fd5b505af1158015611ee2573d6000803e3d6000fd5b505050505050505050565b603654603754606091611eff9161335e565b6001600160401b03811115611f1657611f16612b30565b604051908082528060200260200182016040528015611f5b57816020015b6040805180820190915260008082526020820152815260200190600190039081611f345790505b506036549091506000905b60375481101561202d57836001600160a01b031660378281548110611f8d57611f8d61339b565b60009182526020909120600290910201546001600160a01b03160361201b5760378181548110611fbf57611fbf61339b565b60009182526020918290206040805180820190915260029092020180546001600160a01b0316825260010154918101919091528383611ffd8161345a565b94508151811061200f5761200f61339b565b60200260200101819052505b806120258161345a565b915050611f66565b50600081835161203d919061335e565b90508015612049578183525b5050919050565b60008054906101000a90046001600160a01b03166001600160a01b031663e7f43c686040518163ffffffff1660e01b8152600401602060405180830381865afa1580156120a1573d6000803e3d6000fd5b505050506040513d601f19601f820116820180604052508101906120c59190613312565b6001600160a01b0316336001600160a01b0316146120f657604051633734611360e01b815260040160405180910390fd5b60006121018a61269e565b604051633f65cf1960e01b81529091506001600160a01b03821690633f65cf199061213e908c908c908c908c908c908c908c908c90600401613714565b600060405180830381600087803b15801561215857600080fd5b505af115801561216c573d6000803e3d6000fd5b5050505050505050505050505050565b60008054906101000a90046001600160a01b03166001600160a01b031663289b3c0d6040518163ffffffff1660e01b8152600401602060405180830381865afa1580156121cd573d6000803e3d6000fd5b505050506040513d601f19601f820116820180604052508101906121f19190613312565b6001600160a01b0316336001600160a01b0316146122225760405163e2d4f15f60e01b815260040160405180910390fd5b611aba816129f7565b60008054906101000a90046001600160a01b03166001600160a01b031663e7f43c686040518163ffffffff1660e01b8152600401602060405180830381865afa15801561227c573d6000803e3d6000fd5b505050506040513d601f19601f820116820180604052508101906122a09190613312565b6001600160a01b0316336001600160a01b0316146122d157604051633734611360e01b815260040160405180910390fd5b6122d9612746565b60006122e36109eb565b603754603654919250905b81811080156122fd5750600083115b80156123105750603a5463ffffffff165a115b156124515760006037828154811061232a5761232a61339b565b60009182526020918290206040805180820190915260029092020180546001600160a01b0316808352600190910154928201929092529150158061237057506020810151155b156123865761237e8261345a565b9150506122ee565b80602001518410156123985750612451565b60208082015182516001600160a01b031660009081526039909252604082208054919290916123c890849061335e565b90915550506020810151603880546000906123e490849061335e565b909155505060208101516123f8908561335e565b93506037828154811061240d5761240d61339b565b60009182526020822060029091020180546001600160a01b0319168155600101556124378261345a565b915061244b81600001518260200151612a59565b506122ee565b603655505060016000805160206137d483398151915255565b565b60008054906101000a90046001600160a01b03166001600160a01b031663289b3c0d6040518163ffffffff1660e01b8152600401602060405180830381865afa1580156124bd573d6000803e3d6000fd5b505050506040513d601f19601f820116820180604052508101906124e19190613312565b6001600160a01b0316336001600160a01b0316146125125760405163e2d4f15f60e01b815260040160405180910390fd5b805160208201206000906000818152603d60205260409020549091506001600160a01b0316801561255657604051638b1a6ce760e01b815260040160405180910390fd5b6000546001600160a01b03166001600160a01b0316633f69e0f76040518163ffffffff1660e01b8152600401602060405180830381865afa15801561259f573d6000803e3d6000fd5b505050506040513d601f19601f820116820180604052508101906125c39190613312565b6001600160a01b0316639ce953c86040518163ffffffff1660e01b81526004016020604051808303816000875af1158015612602573d6000803e3d6000fd5b505050506040513d601f19601f820116820180604052508101906126269190613312565b6000838152603d60205260409081902080546001600160a01b0319166001600160a01b0384161790555190915061265e908490613497565b6040519081900381206001600160a01b0383168252907f187f9ad308b4b25229d086a632166f351b45905117cc3162fb9ec6873b9a9ce890602001610c05565b6000603d60006126b384805160209091012090565b81526020810191909152604001600020546001600160a01b03169050806126ed57604051631b355a8760e31b815260040160405180910390fd5b919050565b6126fa612adf565b61246a612b28565b61270a612adf565b600080546001600160a01b0319166001600160a01b0392909216919091179055565b612734612adf565b61273d82612957565b611974816129f7565b6000805160206137d483398151915280546001190161277857604051633ee5aeb560e01b815260040160405180910390fd5b60029055565b60016000805160206137d483398151915255565b805160209091012090565b6001600160a01b0382166127c4576040516321cb944560e11b815260040160405180910390fd5b806000036127e557604051630d23170560e01b815260040160405180910390fd5b80603860008282546127f79190613371565b90915550506001600160a01b03821660009081526039602052604081208054839290612824908490613371565b9091555050604080518082019091526001600160a01b039283168152602081019182526037805460018101825560009190915290517f42a7b7dd785cd69714a189dffb3fd7d7174edc9ece837694ce50f7078f7c31ae600290920291820180546001600160a01b0319169190941617909255517f42a7b7dd785cd69714a189dffb3fd7d7174edc9ece837694ce50f7078f7c31af90910155565b6000824710156128e157604051635093740560e01b815260040160405180910390fd5b8382156128fb576000806000808785612710f1915061294f565b6040516001600160a01b038216908590600081818185875af1925050503d8060008114612944576040519150601f19603f3d011682016040523d82523d6000602084013e612949565b606091505b50909250505b509392505050565b6301c9c38063ffffffff82161180612973575063ffffffff8116155b1561299757604051633bbbd90160e21b81526301c9c3806004820152602401611c35565b603a546040805163ffffffff928316815291831660208301527f55c1474264b8038534b3e34b09a3a99d1f3436634d4e34fa13cea4c33c9a832e910160405180910390a1603a805463ffffffff191663ffffffff92909216919091179055565b80600003612a1857604051630d23170560e01b815260040160405180910390fd5b603e5460408051918252602082018390527f3e6e3950c3fc7a0bbe5c0ded9285010d1c1ef843817fed86973510375eb07418910160405180910390a1603e55565b80603b6000828254612a6b9190613371565b90915550506001600160a01b0382166000908152603c602052604081208054839290612a98908490613371565b90915550506040518181526001600160a01b038316907ff4426c1412b22225874f3898e67e34c12ba628bff6d89fd87ba593927a80b4219060200160405180910390a25050565b7ff0c57e16840df040f15088dc2f81fe391c3923bec73e23a9662efc9c229c6a0054600160401b900460ff1661246a57604051631afcd79f60e31b815260040160405180910390fd5b61277e612adf565b634e487b7160e01b600052604160045260246000fd5b604080519081016001600160401b0381118282101715612b6857612b68612b30565b60405290565b604051601f8201601f191681016001600160401b0381118282101715612b9657612b96612b30565b604052919050565b60006001600160401b03831115612bb757612bb7612b30565b612bca601f8401601f1916602001612b6e565b9050828152838383011115612bde57600080fd5b828260208301376000602084830101529392505050565b600082601f830112612c0657600080fd5b612c1583833560208501612b9e565b9392505050565b600060208284031215612c2e57600080fd5b81356001600160401b03811115612c4457600080fd5b612c5084828501612bf5565b949350505050565b6001600160a01b0381168114611aba57600080fd5b803563ffffffff811681146126ed57600080fd5b600080600060608486031215612c9657600080fd5b8335612ca181612c58565b9250612caf60208501612c6d565b9150604084013590509250925092565b60008060408385031215612cd257600080fd5b82356001600160401b03811115612ce857600080fd5b612cf485828601612bf5565b95602094909401359450505050565b60008083601f840112612d1557600080fd5b5081356001600160401b03811115612d2c57600080fd5b6020830191508360208260051b8501011115612d4757600080fd5b9250929050565b60008060008060008060006080888a031215612d6957600080fd5b87356001600160401b0380821115612d8057600080fd5b612d8c8b838c01612bf5565b985060208a0135915080821115612da257600080fd5b612dae8b838c01612d03565b909850965060408a0135915080821115612dc757600080fd5b612dd38b838c01612d03565b909650945060608a0135915080821115612dec57600080fd5b50612df98a828b01612d03565b989b979a50959850939692959293505050565b602080825282518282018190526000919060409081850190868401855b82811015612e5757815180516001600160a01b03168552860151868501529284019290850190600101612e29565b5091979650505050505050565b600060208284031215612e7657600080fd5b8135612c1581612c58565b600060208284031215612e9357600080fd5b5035919050565b60008083601f840112612eac57600080fd5b5081356001600160401b03811115612ec357600080fd5b602083019150836020828501011115612d4757600080fd5b60008060208385031215612eee57600080fd5b82356001600160401b03811115612f0457600080fd5b612f1085828601612e9a565b90969095509350505050565b60006001600160401b03821115612f3557612f35612b30565b5060051b60200190565b600082601f830112612f5057600080fd5b81356020612f65612f6083612f1c565b612b6e565b82815260059290921b84018101918181019086841115612f8457600080fd5b8286015b84811015612f9f5780358352918301918301612f88565b509695505050505050565b600080600060608486031215612fbf57600080fd5b83356001600160401b0380821115612fd657600080fd5b612fe287838801612bf5565b9450602091508186013581811115612ff957600080fd5b8601601f8101881361300a57600080fd5b8035613018612f6082612f1c565b81815260059190911b8201840190848101908a83111561303757600080fd5b928501925b8284101561305e57833561304f81612c58565b8252928501929085019061303c565b9650505050604086013591508082111561307757600080fd5b5061308486828701612f3f565b9150509250925092565b600080604083850312156130a157600080fd5b82356130ac81612c58565b946020939093013593505050565b6000806000604084860312156130cf57600080fd5b83356001600160401b038111156130e557600080fd5b6130f186828701612e9a565b909790965060209590950135949350505050565b60006020828403121561311757600080fd5b612c1582612c6d565b6000806000806080858703121561313657600080fd5b84356001600160401b038082111561314d57600080fd5b61315988838901612bf5565b95506020870135915061316b82612c58565b9093506040860135908082111561318157600080fd5b908601906040828903121561319557600080fd5b61319d612b46565b8235828111156131ac57600080fd5b83019150601f820189136131bf57600080fd5b6131ce89833560208501612b9e565b815260209283013592810192909252509396929550929360600135925050565b80356001600160401b03811681146126ed57600080fd5b60006040828403121561321757600080fd5b50919050565b600080600080600080600080600060c08a8c03121561323b57600080fd5b89356001600160401b038082111561325257600080fd5b61325e8d838e01612bf5565b9a5061326c60208d016131ee565b995060408c013591508082111561328257600080fd5b61328e8d838e01613205565b985060608c01359150808211156132a457600080fd5b6132b08d838e01612d03565b909850965060808c01359150808211156132c957600080fd5b6132d58d838e01612d03565b909650945060a08c01359150808211156132ee57600080fd5b506132fb8c828d01612d03565b915080935050809150509295985092959850929598565b60006020828403121561332457600080fd5b8151612c1581612c58565b60006020828403121561334157600080fd5b5051919050565b634e487b7160e01b600052601160045260246000fd5b818103818111156115b8576115b8613348565b808201808211156115b8576115b8613348565b80820281158282048414176115b8576115b8613348565b634e487b7160e01b600052603260045260246000fd5b6000808335601e198436030181126133c857600080fd5b8301803591506001600160401b038211156133e257600080fd5b602001915036819003821315612d4757600080fd5b81835281816020850137506000828201602090810191909152601f909101601f19169091010190565b6060815260006134346060830187896133f7565b82810360208401526134478186886133f7565b9150508260408301529695505050505050565b60006001820161346c5761346c613348565b5060010190565b60005b8381101561348e578181015183820152602001613476565b50506000910152565b600082516134a9818460208701613473565b9190910192915050565b6000808335601e198436030181126134ca57600080fd5b83016020810192503590506001600160401b038111156134e957600080fd5b803603821315612d4757600080fd5b81835260006020808501808196508560051b810191508460005b87811015612e5757828403895261352982886134b3565b6135348682846133f7565b9a87019a9550505090840190600101613512565b602081526000612c506020830184866134f8565b606080825284519082018190526000906020906080840190828801845b8281101561359e5781516001600160a01b031684529284019290840190600101613579565b5050508381038285015285518082528683019183019060005b818110156135d3578351835292840192918401916001016135b7565b50506001600160a01b03861660408601529250612c50915050565b60018060a01b038416815260606020820152600083516040606084015280518060a08501526136248160c0860160208501613473565b60209590950151608084015250506040810191909152601f91909101601f19160160c001919050565b81835260006001600160fb1b0383111561366657600080fd5b8260051b80836020870137939093016020019392505050565b81835260006020808501808196506005915085821b81018560005b88811015613706578383038a528135601e198936030181126136bb57600080fd5b880186810190356001600160401b038111156136d657600080fd5b80871b36038213156136e757600080fd5b6136f285828461364d565b9b88019b945050509085019060010161369a565b509098975050505050505050565b6001600160401b03891681526000602060a081840152893560a084015261373d818b018b6134b3565b604060c086015261375260e0860182846133f7565b85810360408701528a81528b9250830190506000805b8b81101561379857833564ffffffffff8116808214613785578384fd5b8452509284019291840191600101613768565b505084810360608601526137ad81898b6134f8565b9250505082810360808401526137c481858761367f565b9b9a505050505050505050505056fe9b779b17422d0df92223018b32b4d1fa46e071723d6817e2486d003becc55f00a2646970667358221220983de08b26a0f251e917b9267a9554f388745d5dad9dab8495905339126ace6f64736f6c63430008140033",
  "deployedBytecode": "0x608060405261000c61000e565b005b7f0000000000000000000000004d9e0aa0e373d05072165aacdabacff74cfb8f036001600160a01b0316330361007b576000356001600160e01b03191663278f794360e11b14610071576040516334ad5dbb60e21b815260040160405180910390fd5b610079610083565b565b6100796100b2565b6000806100933660048184610312565b8101906100a09190610352565b915091506100ae82826100c2565b5050565b6100796100bd61011d565b610155565b6100cb82610179565b6040516001600160a01b038316907fbc7cd75a20ee27fd9adebab32041f755214dbc6bffa90cc0225b39da2e5c2d3b90600090a28051156101155761011082826101f5565b505050565b6100ae61026b565b60006101507f360894a13ba1a3210667c828492db98dca3e2076cc3735a920a3ca505d382bbc546001600160a01b031690565b905090565b3660008037600080366000845af43d6000803e808015610174573d6000f35b3d6000fd5b806001600160a01b03163b6000036101b457604051634c9c8ce360e01b81526001600160a01b03821660048201526024015b60405180910390fd5b7f360894a13ba1a3210667c828492db98dca3e2076cc3735a920a3ca505d382bbc80546001600160a01b0319166001600160a01b0392909216919091179055565b6060600080846001600160a01b0316846040516102129190610422565b600060405180830381855af49150503d806000811461024d576040519150601f19603f3d011682016040523d82523d6000602084013e610252565b606091505b509150915061026285838361028a565b95945050505050565b34156100795760405163b398979f60e01b815260040160405180910390fd5b60608261029f5761029a826102e9565b6102e2565b81511580156102b657506001600160a01b0384163b155b156102df57604051639996b31560e01b81526001600160a01b03851660048201526024016101ab565b50805b9392505050565b8051156102f95780518082602001fd5b604051630a12f52160e11b815260040160405180910390fd5b6000808585111561032257600080fd5b8386111561032f57600080fd5b5050820193919092039150565b634e487b7160e01b600052604160045260246000fd5b6000806040838503121561036557600080fd5b82356001600160a01b038116811461037c57600080fd5b9150602083013567ffffffffffffffff8082111561039957600080fd5b818501915085601f8301126103ad57600080fd5b8135818111156103bf576103bf61033c565b604051601f8201601f19908116603f011681019083821181831017156103e7576103e761033c565b8160405282815288602084870101111561040057600080fd5b8260208601602083013760006020848301015280955050505050509250929050565b6000825160005b818110156104435760208186018101518583015201610429565b50600092019182525091905056fea264697066735822122027f80176059c85af4ee8751015dd9e5db167736b2eedc4be4d13ffc86fde444964736f6c63430008140033"
}